:100000000C945F010C9487010C9487010C94870178
:100010000C9487010C9487010C9487010C94C908F7
:100020000C9487010C9487010C9487010C94870130
:100030000C9487010C9487010C9487010C94870120
:100040000C947F080C9487010C944B090C9425099F
:100050000C9487010C9487010C9487010C94870100
:100060000C947D090C948701203A20004E6F742077
:100070006120686578206368617261637465723AB3
:1000800020002F2A2A2A2A2A2A2A2A2A2A2A2A2AFF
:100090002A2A2A2A2A2A2A2A2A2A2A2A2A2A2A2AC0
:1000A0002A2A2A2A2A2A2A2A2A2A2A2A2A2A2A2AB0
:1000B0002A2A2A2A2A2A2A2A2A2A2A2A2A2A2A2AA0
:1000C0002A2A2A2A2A2A2A2A2A2A2A2F002F2A2AB0
:1000D0002A2A2A2A2A2A2A2A2A2A2A2A2A2A2A2A80
:1000E0002A2A2020594F5520424541542054484542
:1000F000204348414C4C454E47452121212020209A
:100100002A2A2A2A2A2A2A2A2A2A2A2A2A2A2A2A4F
:100110002A2A2A2A2F002F2A2A2A2A2A2A2A2A2A5F
:100120002A2A2A2A2A2A2A2A2A2A2A202020202061
:100130002020202020436F6E67726174732121217B
:100140002020202020202020202A2A2A2A2A2A2A69
:100150002A2A2A2A2A2A2A2A2A2A2A2A2A2F0057F7
:10016000656C6C2C20616C6D6F73742E2E2E204488
:1001700065636F64652074686520666C61672061E3
:100180006E642070757420697420696E20796F75B3
:1001900072207265706F7274004E6F20726573709A
:1001A0006F6E73652C2074727920616761696E2EA1
:1001B000002E2E2E002E2E2E002E2E2E0053656E7B
:1001C00064696E6720796F7572206D6573736167FE
:1001D000652E2E2E3A004572726F723A204261648B
:1001E00020435243004572726F723A204C656E672D
:1001F0007468206D757374206E6F74206578636504
:100200006564203130004572726F723A20496E6326
:100210006F7272656374204C656E67746800457216
:10022000726F723A20496E636F7272656374204810
:10023000656164657200506C656173652073656EFD
:100240006420746865206D6573736167652022465C
:100250004C41472220696E2068657820286F7665BA
:10026000722073657269616C293A00000000080011
:10027000020100000304070000000000000000026B
:1002800000000000250028002B00000000002400D2
:1002900027002A00040404040404040402020202E5
:1002A0000202030303030303010204081020408039
:1002B0000102040810200102040810209C0A1124E5
:1002C0001FBECFEFD8E0DEBFCDBF12E0A0E0B1E0AF
:1002D000E6E2F0E302C005900D92A63FB107D9F720
:1002E00024E0A6EFB2E001C01D92A23BB207E1F705
:1002F00011E0CFE5D1E004C02197FE010E940A166B
:10030000CE35D107C9F70E94F70A0C9411180C9446
:10031000000090E0FC01E855FD4F24918C569D4F64
:10032000FC018491882399F090E0880F991FFC01CB
:10033000E657FD4FA591B491FC01E058FD4F859122
:1003400094918FB7F894EC91E22BEC938FBF0895C2
:10035000CF92DF92EF92FF92CF936C0180910001D8
:100360008A3049F08F3F09F44EC0CF91FF90EF9053
:10037000DF90CF900895EFE7F2E0C491C7FDF5CF8D
:100380008AE00E948901CC2319F0C23009F0D8C05C
:10039000F12CE12C68E478EE81E090E0A701960171
:1003A0000E94C214BA01A9014150510961097109A1
:1003B000CC2309F405C1C23009F093C04F3F510569
:1003C0006105710509F00CF4B9C064E274EF80E0D6
:1003D00090E0A70196010E94C214BA01A901415000
:1003E00051096109710995E08091B100887F892BDD
:1003F0008093B100C13009F4BBC0C23009F4CDC054
:10040000C111B3CF89C08AE080930001EFE7F2E029
:10041000C491CF3F09F4A9CFC13019F148F0C230DF
:1004200009F43DC0C7FDA1CF8AE00E948901ADCF8C
:1004300014BC15BC84B5826084BD85B5816085BD62
:10044000EEE9F2E0E491F0E0EE0FFF1FE058FD4F1F
:1004500085919491E2EBF2E0E491E0937603C0E0C1
:100460008FCF10928000109281008091810088606F
:100470008093810080918100816080938100EEE90A
:10048000F2E0E491F0E0EE0FFF1FE058FD4F8591A0
:100490009491E2EBF2E0E491E093750371CF109256
:1004A000B0001092B1008091B00082608093B000E3
:1004B0008091B10081608093B100EEE9F2E0E491B7
:1004C000F0E0EE0FFF1FE058FD4F8591949190935F
:1004D000740380937303E2EBF2E0E491E093720320
:1004E0004FCF4F3F51056105710541F13CF162E18C
:1004F0007AE780E090E0A70196010E94C214BA0159
:10050000A9014150510961097109C11162C094E00A
:1005100085B5887F892B85BD47BD8FEF9FEFDC01B7
:1005200080937F0390938003A0938103B093820311
:1005300080916E00826080936E0017CF94E054CF5C
:10054000960150E040E060E072E18AE790E00E94AE
:10055000C214BA01A9014150510961097109C130A0
:1005600009F048CF80918100887F8160809381006D
:1005700050938900409388008FEF9FEFDC018093B8
:100580007B0390937C03A0937D03B0937E038091C3
:100590006F00826080936F00E8CE4093B3008FEFCE
:1005A0009FEFDC018093770390937803A093790306
:1005B000B0937A0380917000826080937000D5CEF2
:1005C00093E04F3F51056105710511F00CF08FCF9D
:1005D0009FCF96E009CF90E0FC01E559FD4F2491B3
:1005E000FC01E855FD4F3491FC01EC56FD4FE491C0
:1005F000EE23C9F0222339F0233001F1A8F4213091
:1006000019F1223029F1F0E0EE0FFF1FE058FD4F05
:10061000A591B4918FB7F894EC91611126C03095F3
:100620003E233C938FBF08952730A9F02830C9F0AE
:10063000243049F7809180008F7D03C08091800035
:100640008F7780938000DFCF84B58F7784BDDBCF39
:1006500084B58F7DFBCF8091B0008F778093B00001
:10066000D2CF8091B0008F7DF9CF3E2BDACF3FB74C
:10067000F89480916A0390916B03A0916C03B09100
:100680006D0326B5A89B05C02F3F19F00196A11D4B
:10069000B11D3FBFBA2FA92F982F8827BC01CD01CC
:1006A000620F711D811D911D42E0660F771F881F2B
:1006B000991F4A95D1F708958F929F92AF92BF925A
:1006C000CF92DF92EF92FF924B015C010E943703C1
:1006D0006B017C010E9437036C197D098E099F090B
:1006E000683E734081059105A8F321E0821A9108C4
:1006F000A108B10888EEC80E83E0D81EE11CF11CE9
:1007000081149104A104B10429F7FF90EF90DF90C8
:10071000CF90BF90AF909F908F90089508950895C7
:100720009091000189130BC0EFE7F2E0E4919FEF95
:1007300090930001E13049F028F0E23061F060E090
:100740000C94EB0210926E00FACF90916F009D7F97
:1007500090936F00F4CF909170009D7F9093700004
:1007600091E09093B0009091B100987F9460909345
:10077000B1001092B300E3CFAF92BF92CF92DF925D
:10078000EF92FF920F931F93CF93DF936C017B0146
:100790008B01040F151FEB015E01AE18BF08C017D7
:1007A000D10759F06991D601ED91FC910190F0814A
:1007B000E02DC6010995892B79F7C501DF91CF910D
:1007C0001F910F91FF90EF90DF90CF90BF90AF906F
:1007D0000895FC01538D448D252F30E0842F90E047
:1007E000821B930B541710F0CF960895019708952C
:1007F000FC01918D828D981761F0A28DAE0FBF2FF5
:10080000B11D5D968C91928D9F5F9F73928F90E04A
:1008100008958FEF9FEF08952FB7F89480916E039E
:1008200090916F03A0917003B09171032FBF8093DB
:10083000DB039093DC03A093DD03B093DE0383ED31
:1008400093E00E94F80397FF26C02FB7F894809199
:100850006E0390916F03A0917003B09171032FBF4D
:100860004091DB035091DC036091DD037091DE0366
:10087000841B950BA60BB70B4091D7035091D8035F
:100880006091D9037091DA0384179507A607B7071B
:10089000B0F28FEF9FEF0895FC01918D828D981734
:1008A00031F0828DE80FF11D858D90E008958FEF76
:1008B0009FEF0895FC01918D228D892F90E0805C3F
:1008C0009F4F821B91098F739927089583ED93E0C1
:1008D0000E945A0421E0892B09F420E0822F089518
:1008E00080E090E0892B29F00E94660481110C942D
:1008F00000000895FC01A48DA80FB92FB11DA35AC3
:10090000BF4F2C91848D90E001968F739927848F2F
:10091000A689B7892C93A089B1898C918370806452
:100920008C93938D848D981306C00288F389E02DF3
:1009300080818F7D80830895EF92FF920F931F93A4
:10094000CF93DF93EC0181E0888F9B8D8C8D981382
:100950001AC0E889F989808185FF15C09FB7F8948E
:10096000EE89FF896083E889F989808183708064DA
:1009700080839FBF81E090E0DF91CF911F910F9125
:10098000FF90EF900895F62E0B8D10E00F5F1F4F34
:100990000F731127E02E8C8D8E110CC00FB607FC43
:1009A000FACFE889F989808185FFF5CFCE010E94D1
:1009B0007A04F1CFEB8DEC0FFD2FF11DE35AFF4FC1
:1009C000F0829FB7F8940B8FEA89FB89808180625F
:1009D000CFCF0F931F93CF93DF938C01D0E0C0E074
:1009E000F801EC0FFD1F6491662341F083ED93E065
:1009F0000E949C04892B11F02196F2CFCE01DF9149
:100A0000CF911F910F910895CF93DF93EC01888DC3
:100A10008823B9F0AA89BB89E889F9898C9185FD79
:100A200003C0808186FD0DC00FB607FCF7CF8C9107
:100A300085FFF2CF808185FFEDCFCE010E947A0441
:100A4000E9CFDF91CF91089520911703260F332727
:100A5000331F21323105ECF42091A903FC0190E011
:100A600080E0243069F082E00895A091170321917D
:100A7000AC0149505D4FA40FB52FB11D2C930196C9
:100A8000861798F380911703680F6093170380E02F
:100A9000089581E008951092A90381E08093A8034E
:100AA0001092830361E082E10E94EB0261E083E146
:100AB0000E94EB02E9EBF0E080818E7F80838081F1
:100AC0008D7F808388E48093B80085E48093BC00A8
:100AD0000895CF93DF9391E09093F6028823B9F0C5
:100AE000C091B800D091BA008091BC008A7B8093FD
:100AF000BC0060E082E10E94EB0260E083E10E94C2
:100B0000EB020E944B05D093BA00C093B800DF916E
:100B1000CF9108958F929F92AF92BF92CF92DF9222
:100B2000EF92FF920F931F93CF93DF93D091D20355
:100B3000D13208F0D7C0182FC091D1030E943703DB
:100B40006B017C018091A90381116BC082E08093CD
:100B5000A9031093A8038FEF8093A7031092A60315
:100B6000D093A503A1EBB3E0E5E8F3E080E0D81370
:100B700091C01092840380918403CC0FC82BC09342
:100B8000840380918303813009F088C0109283032D
:100B90000E9437036B017C01809184038093BB002A
:100BA0008091AB039091AC03A091AD03B091AE03E3
:100BB000892B8A2B8B2BA1F00E9437030091AB036A
:100BC0001091AC032091AD033091AE036C197D09F7
:100BD0008E099F09061717072807390708F442C02E
:100BE0008091BC0083FDD8CF85EC8093BC000E942F
:100BF00037036B017C018091A903823009F450C056
:100C00008091A7038F3F09F46FC08091A7038032C2
:100C100009F46CC08091A703803309F469C084E0B3
:100C200026C08091AB039091AC03A091AD03B0912D
:100C3000AE03892B8A2B8B2B09F484CF0E943703B8
:100C40008090AB039090AC03A090AD03B090AE0346
:100C50006C197D098E099F0986169706A806B906A4
:100C600008F070CF8091AA030E94690585E0109278
:100C7000B0031092D2031092AF03DF91CF911F9176
:100C80000F91FF90EF90DF90CF90BF90AF909F902B
:100C90008F9008959D9191938F5F69CF85EEA5CF39
:100CA0008091AB039091AC03A091AD03B091AE03E2
:100CB000892B8A2B8B2B09F49ECF0E94370300913E
:100CC000AB031091AC032091AD033091AE036C19CE
:100CD0007D098E099F09061717072807390708F0AD
:100CE0008ACFC0CF81E0C3CF80E0C1CF82E0BFCF49
:100CF00083E0BDCF0895E0915F0380915E03E81724
:100D000030F4F0E0E65CFC4F808190E008958FEFD6
:100D10009FEF089590915F0380915E032FEF3FEF67
:100D2000981748F4E92FF0E0E65CFC4F208130E0B2
:100D30009F5F90935F03C901089580915E03909136
:100D40005F03891B990B0895CF92DF92EF92FF9278
:100D50000F931F93CF93DF937C01CB018A012091E6
:100D6000AF03222389F0EB016B01C40ED51ECC1515
:100D7000DD0569F06991D701ED91FC910190F08159
:100D8000E02DC7010995F3CF642F0E942405C80107
:100D9000DF91CF911F910F91FF90EF90DF90CF9057
:100DA0000895CF93DF931F92CDB7DEB7698320916B
:100DB000AF032223F9F02091D203203258F021E032
:100DC00030E0FC013383228390E080E00F90DF91DC
:100DD000CF9108958091B003E82FF0E0EF54FC4FDD
:100DE000998190838F5F8093B0038093D20381E0D9
:100DF00090E0ECCF61E0CE0101960E942405F7CF90
:100E000090E080E00895AF92BF92DF92EF92FF9260
:100E10000F931F93CF93DF93CDB7DEB72D970FB608
:100E2000F894DEBF0FBECDBF25EA29836A83E2E7CF
:100E3000E6270E2E000CFF0BE15DFE4F7081582F50
:100E40009E012D5F3F4FDC01C9014D91F901419396
:100E50009F01E72FE427F0E0E15DFE4F70814A2F0C
:100E6000451B461790F3DC01A60FB11D7C9303E0F0
:100E7000060F60E08BE00E94EB0268EC70E080E01F
:100E800090E00E945C03D12C10E08D2D0D2C000C05
:100E9000990B801791073CF521E030E02C0F3D1FA6
:100EA000820F931FFC01A08087E0E82EF12C0A2C12
:100EB000000CBB08C5010E2C02C0959587950A94BD
:100EC000E2F761E080FF60E08BE00E94EB0268ECFB
:100ED00070E080E090E00E945C03F1E0EF1AF1081E
:100EE00048F7D394D2CF60E08BE02D960FB6F894FC
:100EF000DEBF0FBECDBFDF91CF911F910F91FF904D
:100F0000EF90DF90BF90AF900C94EB02FC0101904A
:100F10000020E9F73197AF01481B590BBC0183ED65
:100F200093E00C94BC0383E592E00C948607CF9386
:100F3000DF930E94E904EC010E9493078C0F9D1F30
:100F4000DF91CF9108958F929F92AF92BF920F93AE
:100F50001F93CF93DF93CDB7DEB7A1970FB6F89469
:100F6000DEBF0FBECDBF19A2423008F44AE08E01A9
:100F70000F5D1F4F842E912CB12CA12CA501940143
:100F80000E941815E62FB901CA01EA30F4F4E05DB9
:100F9000D801EE938D01232B242B252B79F790E09C
:100FA00080E0109719F0CD010E948607A1960FB638
:100FB000F894DEBF0FBECDBFDF91CF911F910F918F
:100FC000BF90AF909F908F900895E95CE1CFCF9351
:100FD000DF930E948607EC010E9493078C0F9D1FF0
:100FE000DF91CF910895CF93C82F80ED8C0F8A3079
:100FF00030F08FE98C0F863020F489EA8C0FCF9186
:1010000008958FEB8C0F863010F489ECF7CF8CE6C7
:1010100090E00E94E9046C2F83ED93E00E949C0411
:1010200088E690E00E94E9046C2F70E090E080E098
:101030004AE00E94A3070E9493078FEFE0CF0F932F
:101040001F93CF93DF93EC0188819981009759F02A
:101050002A813B812617370730F081E0DF91CF915D
:101060001F910F9108958B016F5F7F4F0E9435177D
:10107000009759F0998388831B830A832C813D81D3
:10108000232B59F7FC011082E8CF80E0E7CF85EDF4
:101090008093BC008091AB039091AC03A091AD0311
:1010A000B091AE030796A11DB11D23E0B695A7959B
:1010B000979587952A95D1F72091BC0024FD03C010
:1010C0001092A90308954091AB035091AC03609135
:1010D000AD037091AE03452B462B472B69F3009768
:1010E000A105B10541F02AE22A95F1F700C0019768
:1010F000A109B109E1CF8091AA030C9469051F925F
:101100000F920FB60F9211242F933F938F939F93BB
:10111000AF93BF9380916E0390916F03A091700382
:10112000B09171033091690323E0230F2D3758F5F7
:101130000196A11DB11D2093690380936E039093C6
:101140006F03A0937003B093710380916A03909131
:101150006B03A0916C03B0916D030196A11DB11DAD
:1011600080936A0390936B03A0936C03B0936D0319
:10117000BF91AF919F918F913F912F910F900FBE93
:101180000F901F90189526E8230F0296A11DB11D00
:10119000D2CF1F920F920FB60F9211242F933F932D
:1011A0004F935F936F937F938F939F93AF93BF936F
:1011B000EF93FF938091770390917803A091790347
:1011C000B0917A03892B8A2B8B2BD1F190917203EA
:1011D000E0917303F091740380818927808380916B
:1011E000770390917803A0917903B0917A03181650
:1011F00019061A061B069CF48091770390917803D8
:10120000A0917903B0917A030197A109B109809364
:10121000770390937803A0937903B0937A03FF91B7
:10122000EF91BF91AF919F918F917F916F915F915E
:101230004F913F912F910F900FBE0F901F901895D7
:10124000809100010E949003EACF1F920F920FB687
:101250000F9211242F933F934F935F936F937F933C
:101260008F939F93AF93BF93EF93FF9383ED93E09F
:101270000E947A04FF91EF91BF91AF919F918F915E
:101280007F916F915F914F913F912F910F900FBE82
:101290000F901F9018951F920F920FB60F92112466
:1012A0002F938F939F93EF93FF93E091E303F0913C
:1012B000E4038081E091E903F091EA0382FD1BC021
:1012C00090818091EC038F5F8F732091ED038217E3
:1012D00041F0E091EC03F0E0ED52FC4F958F8093EC
:1012E000EC03FF91EF919F918F912F910F900FBE83
:1012F0000F901F9018958081F4CF1F920F920FB618
:101300000F9211242F933F934F935F936F937F938B
:101310008F939F93AF93BF93EF93FF938091B90007
:10132000887F803609F44AC0F0F5883209F4A7C0F6
:1013300018F5803109F49BC0B8F4882309F4F9C08A
:10134000883009F494C0FF91EF91BF91AF919F91C4
:101350008F917F916F915F914F913F912F910F905E
:101360000FBE0F901F901895883109F488C0803205
:1013700051F78093A70314C0803409F49DC040F452
:101380008033B9F38833F9F68093A70385ECB0C0B6
:10139000803509F485C0883509F496C0883499F6FB
:1013A0000E944708D0CF883909F48CC038F58837B7
:1013B00029F050F4883611F0803729F683E08093C5
:1013C000A9031092390357C0883809F47BC08039CB
:1013D00019F0803809F0B7CF80913903803208F0D6
:1013E00071C0E091390381E08E0F809339038091C1
:1013F000BB00F0E0E75EFC4F80833DC0803B39F0EE
:10140000E0F4803A09F479C0883A09F09CCF84E08E
:101410008093A9031092180310921703E0915A03C6
:10142000F0915B0309958091170381110FC081E052
:10143000809317031092F70209C0803C09F4A6CFED
:10144000883C09F4A3CF883B09F07DCFE0911803D5
:1014500081E08E0F80931803F0E0E950FD4F80810A
:101460008093BB00909118038091170329C080914D
:1014700084038093BB0085EC8093BC0064CF909183
:10148000A6038091A503981758F5E091A60381E083
:101490008E0F8093A603F0E0EB57FC4F8081E9CFDD
:1014A000E091A60381E08E0F8093A6038091BB009C
:1014B000F0E0EB57FC4F80839091A6038091A50349
:1014C0009817C8F285E8D8CFE091A60381E08E0F87
:1014D0008093A6038091BB00F0E0EB57FC4F808324
:1014E0008091A80381115CCF81E08093830384EA1B
:1014F0008093BC001092A90326CF85EC8093BC009A
:101500001092A90380913903803230F4E0913903BD
:10151000F0E0E75EFC4F10826091390370E0E091EB
:101520005C03F0915D0389E193E009951092390322
:101530000ACF1092A70334CFE3EDF3E013821282B7
:1015400048EE53E060E070E0448355836683778320
:1015500083E392E09183808385EC90E09587848794
:1015600084EC90E09787868780EC90E0918B808B6D
:1015700081EC90E0938B828B82EC90E0958B848B56
:1015800086EC90E0978B868B118E128E138E148EC4
:10159000A0E7B4E013961C921E92129714964D93F6
:1015A0005D936D937C93179785E492E011969C93DD
:1015B0008E93E3E8F4E080ED97E097A386A311A66D
:1015C00010A612A6178A118E12A213A214A215A297
:1015D00014821582ECE7F4E01682158280E18183A3
:1015E00080E28083B483A3838CE282830895CF93C7
:1015F000DF93CDB7DEB7C45BD1400FB6F894DEBF42
:101600000FBECDBF789484B5826084BD84B58160FF
:1016100084BD85B5826085BD85B5816085BD8091BD
:101620006E00816080936E00109281008091810035
:10163000826080938100809181008160809381002D
:10164000809180008160809380008091B1008460EF
:101650008093B1008091B00081608093B000809150
:101660007A00846080937A0080917A00826080930F
:101670007A0080917A00816080937A0080917A006C
:10168000806880937A001092C10080E2E7E0F1E088
:10169000DE01AF59BE4F01900D928A95E1F7E091BE
:1016A000E303F091E40382E08083E091DF03F091B3
:1016B000E0031082E091E103F091E20380E1808396
:1016C0001092EB03E091E703F091E80386E080835A
:1016D000E091E503F091E603808180618083E091F1
:1016E000E503F091E603808188608083E091E50363
:1016F000F091E603808180688083E091E503F091BA
:10170000E60380818F7D808388E0E7E2F1E08E014F
:101710000F5F1F4FD80101900D928A95E1F781E08C
:1017200080938704109288041092890480939A040D
:1017300098E090939B041092830480938504809397
:10174000840410928604F801A2E9B4E0CE0109965F
:1017500021912D938E179F07D9F7CF5BDE4F88819C
:10176000C154D14080938A04F12C80919A04F816D8
:1017700098F48F2D90E09C012D573B4F6901D901C2
:1017800017968C910E94890160918404F6018781EB
:101790000E94EB02F394E9CFF12C80919B04F816A0
:1017A00050F090919A04EDE9F4E080E09817B1F0E0
:1017B00011928F5FFBCF8F2D90E09C012D573B4FF7
:1017C0006901D9011F968C910E948901609186045C
:1017D000F60187850E94EB02F394DFCFF12C809114
:1017E0009A04F81658F4EF2DF0E0ED57FB4F609196
:1017F000840487810E94EB02F394F1CF6091860408
:10180000809192040E94EB02F12C80919B04F816C7
:1018100058F4EF2DF0E0ED57FB4F6091860487857B
:101820000E94EB02F394F1CF6091840480918A04CA
:101830000E94EB0288E097E09093AA048093A904A9
:101840001092AC041092AB041092AD048CE00E9494
:10185000890160E08CE00E94EB028BE00E9489012C
:1018600060E08BE00E94EB020E944B058CE08093CD
:10187000B80010925F0310925E031092B0031092B2
:10188000D2030E944B058EE893E090935B03809314
:101890005A038FE893E090935D0380935C038091FB
:1018A0007F049091800420917C0431E03093AF0359
:1018B0002093D103DC01ED91FC910190F081E02DAA
:1018C00060EF099581E00E948A05F82E8111A1C080
:1018D000E0907C040E9437034B015C018091A903D6
:1018E000811163C081E08093A9038093A8039FEFD7
:1018F0009093A7031092A6031092A50380938403EC
:1019000080918403EE0CE82AE092840380918303A3
:10191000813009F093C0109283030E9437034B017A
:101920005C01809184038093BB008091AB03909114
:10193000AC03A091AD03B091AE03892B8A2B8B2B06
:10194000A1F00E9437034090AB035090AC0360902D
:10195000AD037090AE03681979098A099B09461690
:1019600057066806790608F441C08091BC0083FDE3
:10197000D8CF85EC8093BC000E9437034B015C01FB
:101980008091A903813009F45BC08091A603811185
:1019900079C08091A603E5E8F3E0AAE3B3E0F81686
:1019A00049F191919D93F394FACF8091AB0390917B
:1019B000AC03A091AD03B091AE03892B8A2B8B2B86
:1019C00009F48CCF0E9437034090AB035090AC03D6
:1019D0006090AD037090AE03681979098A099B097C
:1019E000461657066806790608F078CF8091AA0354
:1019F0000E94690510925F03F0925E0380917F045C
:101A000090918004DC01ED91FC910284F385E02D3E
:101A1000099580917C0491E09093AF038093D1036A
:101A20001092B0031092D20381E00E948A058823AD
:101A300059F186E592E00E94E707FFCF85EE9ACF45
:101A40008091AB039091AC03A091AD03B091AE0334
:101A5000892B8A2B8B2B09F493CF0E94370340905C
:101A6000AB035090AC036090AD037090AE03681967
:101A700079098A099B09461657066806790608F00F
:101A80007FCFB4CF81E087CFEDB7FEB7CF55DE4F24
:101A9000F983E883C15AD14081E093E2A5E4B7E637
:101AA000CF57DE4F88839983AA83BB83C158D14027
:101AB00089E89BEAADECBFEECB57DE4F8883998374
:101AC000AA83BB83C558D1408EEF9CEDAAEBB8E941
:101AD000C757DE4F88839983AA83BB83C958D140F7
:101AE00086E794E5A2E3B0E1C357DE4F888399838C
:101AF000AA83BB83CD58D14080EF91EEA2EDB3EC29
:101B0000CF56DE4F88839983AA83BB83C159D140C6
:101B10002DB73EB7205431090FB6F8943EBF0FBE23
:101B20002DBFFF978DB79EB78F5B9F4FDF011D9233
:101B30001D921D921D928A179B07C9F7209184045C
:101B40008091830490E0B0E0A0E0B82FAA27992705
:101B50008827A22B90684081518162817381842BF8
:101B6000952BA62BB72B80839183A283B38380E12F
:101B700090E0A0E0B0E084AF95AFA6AFB7AF80E44F
:101B800091E0D8019C011D9221503040E1F7C556EB
:101B9000DE4F19830883CB59D140C555DE4FF983F9
:101BA000E883CB5AD1401E013FE3231A3108CB56BC
:101BB000DE4F1882C559D14040EF51EE62ED73EC13
:101BC000C356DE4F488359836A837B83CD59D14006
:101BD00061E073E285E497E6C956DE4F6883798356
:101BE0008A839B83C759D14049E8442E4BEA542E3F
:101BF0004DEC642E4FEE742E06E714E522E330E13F
:101C00005EEF852E5CED952E5AEBA52E58E9B52E8C
:101C1000CB56DE4F7881C559D140703108F03DC3B5
:101C2000C555DE4FE881F981CB5AD1408081918141
:101C3000A281B381C556DE4FE881F981CB59D140ED
:101C400080839183A283B383B501A40140275127E8
:101C50006227732744215521662177216A017B0180
:101C6000C026D126E226F326CF54DE4FC882D98281
:101C7000EA82FB82C15BD14089E9C82E89E7D82E70
:101C800082E8E82E8AE5F82EC556DE4FA881B98194
:101C9000CB59D1404D915D916D917D91C556DE4FEF
:101CA000B983A883CB59D140CD55DE4F48835983A2
:101CB0006A837B83C35AD140C956DE4F488159811C
:101CC0006A817B81C759D140BBE17695679557956D
:101CD0004795BA95D1F7C955DE4F488359836A8332
:101CE0007B83C75AD140C956DE4F688179818A818A
:101CF0009B81C759D14045E0660F771F881F991F08
:101D00004A95D1F7DC01CB01C955DE4F4881598195
:101D10006A817B81C75AD140842B952BA62BB72B88
:101D2000CD55DE4F488159816A817B81C35AD140AC
:101D3000840F951FA61FB71FCD55DE4F888399834B
:101D4000AA83BB83C35AD140CF54DE4F4881598107
:101D50006A817B81C15BD140840F951FA61FB71F8D
:101D60008C0D9D1DAE1DBF1DC356DE4FC880D98092
:101D7000EA80FB80CD59D140C80ED91EEA1EFB1E59
:101D8000D301C20152E0B695A795979587955A95CC
:101D9000D1F7B301A201EEE1440F551F661F771F73
:101DA000EA95D1F7482B592B6A2B7B2BCB56DE4F6C
:101DB0008881C559D1408F5FCB56DE4F8883C55986
:101DC000D140C555DE4FA881B981CB5AD140149678
:101DD000C555DE4FB983A883CB5AD140B4E02B0E52
:101DE000311CC956DE4F488059806A807B80C759B4
:101DF000D140C356DE4F088319832A833B83CD59D4
:101E0000D140803509F03CC2EFEFCE1AECEDDE0A8E
:101E1000EAEBEE0AE8E9FE0ACF57DE4FC882D98224
:101E2000EA82FB82C158D140D301C2018757944551
:101E3000A243B041CB57DE4F88839983AA83BB83EB
:101E4000C558D1402A013B01F2E04F1AF3E25F0A84
:101E5000F5E46F0AF7E67F0AC757DE4F48825982DA
:101E60006A827B82C958D140D501C4018A589B4AF5
:101E7000AD4CBF4EC357DE4F88839983AA83BB8383
:101E8000CD58D14000511E412D423C43CF56DE4F2C
:101E9000088319832A833B83C159D140CF55DE4F34
:101EA000C880D980C15AD1400FB6F894DEBE0FBEAB
:101EB000CDBEFE01EF57FE4F9F012C5E3F4F80E0ED
:101EC00090E0DC01419151916191719184279527B6
:101ED000A627B7272E173F07A9F78B3D9748AA4B90
:101EE000B84021F086E792E00E94E707AE014F5F1D
:101EF0005F4F6A018A01F0E0E0E07A01A4E18A2EF6
:101F0000912C30E020E05F01A20EB31E3901660C77
:101F1000771C600E711EC501B4010E94E215A1E894
:101F2000B1E0AC0FBD1FA80FB91F8C91AA9CA001F6
:101F3000AB9C500D500D1124840F952F911DD30192
:101F40008D939C932F5F3F4F28303105E1F63896F3
:101F5000005F1F4FE034F105A1F61E01BFEB2B1A05
:101F6000BEEF3B0AF101B096CF55DE4FF983E8830F
:101F7000C15AD140CB56DE4F39822882C559D14053
:101F80008101CB56DE4FA881B981C559D1401D9240
:101F90001D921D921D92CB56DE4FB983A883C55961
:101FA000D140FE01EF59FE4FC956DE4FF983E88359
:101FB000C759D140B096C356DE4FF983E883CD5957
:101FC000D140C556DE4FD982C882CB59D140412C71
:101FD000512C3201C556DE4FA881B981CB59D14071
:101FE0006D917D91C556DE4FB983A883CB59D14001
:101FF000C956DE4FE881F981C759D140819091904F
:10200000A190B190C956DE4FF983E883C759D140FA
:10201000072E000C880B990B0E94A513A5019401B3
:102020000E9404149B01AC01C301B2010E943B1544
:102030002B013C01C956DE4F28813981C759D14057
:10204000C356DE4F48815981CD59D14024173507F9
:1020500009F6CB56DE4FE881F981C559D140349756
:102060004082518262827382F0E1CF0ED11CCF5543
:10207000DE4F28813981C15AD140CB56DE4F48818D
:102080005981C559D1402417350709F07ACF60E648
:10209000C62E63E0D62ED1018D909D90AD90BD905F
:1020A0001D0120E030E0A901C501B4010E94DD1549
:1020B00020E030E040E05FE387FD95C1C501B40159
:1020C0000E943B150E94A715F60161936F01CB5644
:1020D000DE4F28813981C559D14022163306D9F601
:1020E000809160038E5E809360031092680382E8A3
:1020F00090E00E94970786EB92E00E94E70782E853
:1021000090E00E949707A8014C5F5F4FC956DE4FD1
:1021100059834883C759D140B801655F7F4FCB567B
:10212000DE4F79836883C559D140C956DE4FA881F7
:10213000B981C759D140E7E01D92EA95E9F7380126
:102140005801D5011D925D01CB56DE4FC880D98064
:10215000C559D140AC15BD05A1F7E8E4D801EC9311
:10216000F5E41196FC9311974CE4C42E1296CC9290
:1021700012971396CC9213975FE4D52E1496DC92A7
:1021800085EC92E00E94E70768EE73E080E090E063
:102190000E945C0365E0C8010E94030786E392E0A9
:1021A0000E94970783ED93E00E945A04892BD1F394
:1021B000CF59DE4F19821882C156D140CD59DE4F1A
:1021C00019821882C356D140CB59DE4F198218822A
:1021D000C556D14070E060E0CE018F599E4F0E94FD
:1021E0001F08CF59DE4F28813981C156D140811156
:1021F000FFC02115310519F0C9010E94AC16CF5955
:10220000DE4F19821882C156D140CB59DE4F198258
:102210001882C556D140CD59DE4F19821882C35657
:10222000D1400E940C04CB59DE4FC880D980C556DE
:10223000D14097FDE9C089831A822FEFC21AD20AD2
:10224000B601CE018F599E4F0E941F08882349F383
:10225000CF59DE4F28813981C156D140CB59DE4F4D
:1022600088819981C556D140B701820F931F0E9482
:10227000FB17CB59DE4FD982C882C556D140D1CF8A
:10228000C956DE4FC882D982EA82FB82C759D14043
:10229000950184014A015B01BBCCD101D4964D91DB
:1022A0005D916D917C91D79790968D919D910D90B8
:1022B000BC91A02D84279527A627B727F10140853B
:1022C00051856285738584279527A627B727408186
:1022D00051816281738184279527A627B727880FAC
:1022E000991FAA1FBB1F811DC556DE4FE881F981CA
:1022F000CB59D14080839183A283B383CB56DE4FE9
:10230000F881C559D140F43108F49ECCCB56DE4F4C
:102310004881C559D1404832E8F4B501A4014027AD
:10232000512762277327DB01CA0184259525A6253D
:10233000B725CF54DE4F88839983AA83BB83C15BC3
:10234000D140B1EACB2EBBEEDB2EB9EDEB2EBEE6D3
:10235000FB2E9ACCCB56DE4F9881C559D140B501A2
:10236000A4019C3328F5402B512B622B732B442165
:10237000552166217721D501C40180239123A22311
:10238000B3236A017B01C82AD92AEA2AFB2ACF543F
:10239000DE4FC882D982EA82FB82C15BD140ACEDBC
:1023A000CA2EACEBDA2EABE1EA2EAFE8FA2E6CCCFB
:1023B0004027512762277327DB01CA018425952511
:1023C000A625B725CF54DE4F88839983AA83BB8384
:1023D000C15BD140F6EDCF2EF1ECDF2EF2E6EF2E11
:1023E000FAECFF2E51CCC501B4010E943A156ACE19
:1023F000CB59DE4F19821882C556D14065E572E08F
:10240000C9010E94FB170DCFC114D10409F065C0AA
:102410001982CF59DE4F88819981C156D1400097EA
:1024200011F00E94AC166801D6011D926D01AA162A
:10243000BB06D1F789810E94F307B82E8A810E94DA
:10244000F307B0E1BB9E90011124822B853A09F07D
:102450006BC08C810E94F307482EF7010190002089
:10246000E9F73197EE19FF09F695E79533978E173F
:102470001F0609F001C18B81803309F05AC0EAE0E0
:10248000E41508F456C0E2E7E425F0E0E15DFE4F14
:10249000308057014801D50114968C9114971596F8
:1024A0002C90B2E0AB0EB11C982D901B941558F5F2
:1024B0000E94F307582E822D0E94F307E0E15E9EF2
:1024C00090011124822BD4018D934D018325E82F97
:1024D000F0E0E15DFE4F3080DECF3AE1C316D1047B
:1024E00018F03AE1C32ED12CCF59DE4F68817981A3
:1024F000C156D140A601C7010E940218F701EC0D98
:10250000FD1D108286CF0E94F307B82E822D0E94F7
:10251000F307B0E1BB9E90011124822B381609F419
:10252000AEC086ED91E002C08EE192E00E94970776
:1025300096C085EE91E0FACFF8011192CE16DF0633
:10254000E1F7E0E6F3E08191D3018D933D0198E658
:10255000C92E93E0D92ECE16DF06A9F784EE92E0BD
:102560000E94E70768EE73E080E090E00E945C0361
:1025700068E0CE018F5B9E4F0E94030768EE73E018
:1025800080E090E00E945C030E9493070E94930702
:102590008DEC90E00E9497078FE591E00E949707ED
:1025A00086E191E00E9497070E9493070E9493079B
:1025B00084E1C82ED12C88EB91E00E94A80164E64A
:1025C00070E080E090E00E945C038EEE91E00E945B
:1025D000A80164E670E080E090E00E945C038BE07C
:1025E00092E00E94A80164E670E080E090E00E9422
:1025F0005C038BE492E00E94A80164E670E080E056
:1026000090E00E945C0383E992E00E94A80164E6E6
:1026100070E080E090E00E945C038AEB92E00E9410
:10262000A80164E670E080E090E00E945C0380E135
:1026300093E00E94A80164E670E080E090E00E94D0
:102640005C038AE00E94900364E670E080E090E022
:102650000E945C0321E0C21AD10809F0ACCF40E02F
:1026600050E0452B09F461CD0E946604882309F4EB
:102670005CCD0E94000059CD86E092E057CF8DEBF3
:1026800091E00E9497075801912CF50161915F013B
:10269000662371F070E090E080E04AE00E94A307BA
:1026A00082EE92E00E9486079394FAE09F12EDCFAB
:1026B0000E9493070E94930768EE73E080E090E029
:1026C0000E945C0324E092121DC0CF5BDE4F888124
:1026D000C154D1408634B1F4CE5BDE4F8881C25400
:1026E000D1408C3479F4CD5BDE4F8881C354D14026
:1026F000813441F4CC5BDE4F8881C454D1408734AF
:1027000009F41ACF89EB91E00E94970768EE73E015
:1027100080E090E00E945C0385EB91E00E949707C7
:1027200068EE73E080E090E00E945C0381EB91E052
:102730000E94970768EE73E080E090E00E945C03DF
:1027400089E991E0F3CEE89409C097FB3EF49095B7
:102750008095709561957F4F8F4F9F4F9923A9F07A
:10276000F92F96E9BB279395F69587957795679509
:10277000B795F111F8CFFAF4BB0F11F460FF1BC04D
:102780006F5F7F4F8F4F9F4F16C0882311F096E9E0
:1027900011C0772321F09EE8872F762F05C066238E
:1027A00071F096E8862F70E060E02AF09A95660F47
:1027B000771F881FDAF7880F9695879597F9089500
:1027C000990F0008550FAA0BE0E8FEEF1616170642
:1027D000E807F907C0F012161306E407F50798F0AA
:1027E000621B730B840B950B39F40A2661F0232BC3
:1027F000242B252B21F408950A2609F4A140A6953F
:102800008FEF811D811D08950E9417140C94881468
:102810000E947A1438F00E94811420F0952311F060
:102820000C9471140C94771411240C94BC140E9411
:10283000991470F3959FC1F3950F50E0551F629F57
:10284000F001729FBB27F00DB11D639FAA27F00D09
:10285000B11DAA1F649F6627B00DA11D661F829F30
:102860002227B00DA11D621F739FB00DA11D621F15
:10287000839FA00D611D221F749F3327A00D611D32
:10288000231F849F600D211D822F762F6A2F112414
:102890009F5750409AF0F1F088234AF0EE0FFF1F47
:1028A000BB1F661F771F881F91505040A9F79E3F9E
:1028B000510580F00C9471140C94BC145F3FE4F348
:1028C000983ED4F3869577956795B795F795E795F4
:1028D0009F5FC1F7FE2B880F911D9695879597F9FD
:1028E000089597F99F6780E870E060E008959FEF92
:1028F00080EC089500240A94161617061806090697
:10290000089500240A941216130614060506089565
:10291000092E0394000C11F4882352F0BB0F40F4ED
:10292000BF2B11F460FF04C06F5F7F4F8F4F9F4F2D
:10293000089557FD9058440F551F59F05F3F71F0AF
:102940004795880F97FB991F61F09F3F79F0879516
:102950000895121613061406551FF2CF4695F1DF9F
:1029600008C0161617061806991FF1CF869571052F
:10297000610508940895E894BB2766277727CB0163
:1029800097F90895052E97FB1EF400940E94D91420
:1029900057FD07D00E94181507FC03D04EF40C9485
:1029A000D91450954095309521953F4F4F4F5F4F2B
:1029B000089590958095709561957F4F8F4F9F4FAB
:1029C00008952F923F924F925F926F927F928F92D3
:1029D0009F92AF92BF92CF92DF92EF92FF920F93AE
:1029E0001F93CF93DF93CDB7DEB7CA1BDB0B0FB6B8
:1029F000F894DEBF0FBECDBF09942A883988488875
:102A00005F846E847D848C849B84AA84B984C8840A
:102A1000DF80EE80FD800C811B81AA81B981CE0F01
:102A2000D11D0FB6F894DEBF0FBECDBFED010895E6
:102A3000A1E21A2EAA1BBB1BFD010DC0AA1FBB1FC2
:102A4000EE1FFF1FA217B307E407F50720F0A21B34
:102A5000B30BE40BF50B661F771F881F991F1A94A1
:102A600069F760957095809590959B01AC01BD01CB
:102A7000CF0108955058BB27AA270E9452150C94E5
:102A800088140E947A1438F00E94811420F039F4DE
:102A90009F3F19F426F40C9477140EF4E095E7FBAD
:102AA0000C947114E92F0E94991458F3BA17620715
:102AB00073078407950720F079F4A6F50C94BB14EE
:102AC0000EF4E0950B2EBA2FA02D0B01B901900149
:102AD0000C01CA01A0011124FF27591B99F0593F8D
:102AE00050F4503E68F11A16F040A22F232F342FD5
:102AF0004427585FF3CF469537952795A795F04023
:102B00005395C9F77EF41F16BA0B620B730B840B37
:102B1000BAF09150A1F0FF0FBB1F661F771F881FEF
:102B2000C2F70EC0BA0F621F731F841F48F4879547
:102B300077956795B795F7959E3F08F0B0CF939539
:102B4000880F08F09927EE0F9795879508950E94B2
:102B5000AE156894B1110C94BC1408950E94A11490
:102B600088F09F5798F0B92F9927B751B0F0E1F04E
:102B7000660F771F881F991F1AF0BA95C9F714C0FE
:102B8000B13091F00E94BB14B1E008950C94BB14D5
:102B9000672F782F8827B85F39F0B93FCCF3869537
:102BA00077956795B395D9F73EF490958095709594
:102BB00061957F4F8F4F9F4F08950E94E01308F457
:102BC0008FEF089597FB072E16F4009407D077FD3A
:102BD00009D00E94F61507FC05D03EF4909581952A
:102BE0009F4F0895709561957F4F0895AA1BBB1B59
:102BF00051E107C0AA1FBB1FA617B70710F0A61BFD
:102C0000B70B881F991F5A95A9F780959095BC011D
:102C1000CD010895EE0FFF1F0590F491E02D09946A
:102C20000F931F93CF93DF938230910510F482E0CE
:102C300090E0E091B004F091B10430E020E0B0E029
:102C4000A0E0309799F42115310509F44AC0281BFA
:102C5000390B24303105D8F58A819B8161157105C6
:102C600089F1FB0193838283FE0111C04081518170
:102C70000281138148175907E0F04817590799F462
:102C8000109761F012960C93129713961C9332963C
:102C9000CF01DF91CF911F910F9108950093B00460
:102CA0001093B104F4CF2115310551F042175307A9
:102CB00038F0A901DB019A01BD01DF01F801C1CFA4
:102CC000EF01F9CF9093B1048093B004CDCFFE0112
:102CD000E20FF31F819391932250310939832883A6
:102CE000D7CF2091AE043091AF04232B41F4209133
:102CF0000301309104013093AF042093AE0420917E
:102D00000101309102012115310541F42DB73EB783
:102D10004091050150910601241B350BE091AE0452
:102D2000F091AF04E217F307A0F42E1B3F0B281716
:102D3000390778F0AC014E5F5F4F2417350748F034
:102D40004E0F5F1F5093AF044093AE048193919355
:102D50009FCFF0E0E0E09CCFCF93DF930097E9F0C6
:102D6000FC01329713821282A091B004B091B10499
:102D7000ED0130E020E01097A1F420813181820F35
:102D8000931F2091AE043091AF042817390709F042
:102D900061C0F093AF04E093AE04DF91CF9108954A
:102DA000EA01CE17DF07E8F54A815B819E014115F4
:102DB0005105B1F7E901FB83EA8349915991C40FA9
:102DC000D51FEC17FD0761F4808191810296840F75
:102DD000951FE90199838883828193819B838A83EC
:102DE000F0E0E0E012968D919C9113970097B9F571
:102DF0002D913C911197CD010296820F931F209146
:102E0000AE043091AF042817390739F6309751F5E1
:102E10001092B1041092B004B093AF04A093AE042A
:102E2000BCCFD383C28340815181840F951FC817C3
:102E3000D90761F44E5F5F4F88819981480F591F10
:102E4000518340838A819B8193838283211531053D
:102E500009F0B0CFF093B104E093B0049ECFFD0130
:102E6000DC01C0CF13821282D7CFB0E0A0E0EBE349
:102E7000F7E10C94E3148C01009751F4CB010E940C
:102E800010168C01C801CDB7DEB7E0E10C94FF1439
:102E9000FC01E60FF71F9C0122503109E217F307EE
:102EA00008F49DC0D901CD91DC911197C617D707C1
:102EB00098F0C530D10530F3CE01049786179707F7
:102EC00008F3C61BD70B2297C193D1936D937C93C4
:102ED000CF010E94AC16D6CF5B01AC1ABD0A4C01E3
:102EE0008C0E9D1EA091B004B091B104512C412CC8
:102EF000F12CE12C109731F58091AE049091AF0444
:102F00008815990509F05CC04616570608F058C0A8
:102F10008091010190910201009741F48DB79EB715
:102F20004091050150910601841B950BE817F907A4
:102F300008F055C0F093AF04E093AE04F90171833B
:102F40006083A0CF8D919C91119712966C901297EF
:102F500013967C901397A815B90559F56C0142E0BA
:102F6000C40ED11CCA14DB0420F1AC014A195B0960
:102F7000DA011296159780F0628273825183408342
:102F8000D9016D937C93E114F10471F0D70113968C
:102F9000FC93EE93129776CF22968C0F9D1FF9012A
:102FA00091838083F301EFCFF093B104E093B004F9
:102FB00069CF4816590608F42C017D01D3019ACF38
:102FC000CB010E9410167C01009749F0AE01B801B8
:102FD0000E94F217C8010E94AC16870153CF10E07F
:102FE00000E050CFFB01DC0102C001900D92415086
:102FF0005040D8F70895FB01DC0101900D920020AC
:10300000E1F70895FB01DC014150504048F0019088
:103010000D920020C9F701C01D9241505040E0F7C9
:063020000895F894FFCFB3
:10302600FF0000B20480008C2E3ABE988783BF1939
:103036001186C17B32BA4149C36D40E8BC25BF8DBC
:10304600BA4BC1B0858A4006050203040708090089
:10305600070E091C1B1215383F363124232A2D7002
:10306600777E796C6B6265484F464154535A5DE0F2
:10307600E7EEE9FCFBF2F5D8DFD6D1C4C3CACD90A2
:10308600979E998C8B8285A8AFA6A1B4B3BABDC70B
:10309600C0C9CEDBDCD5D2FFF8F1F6E3E4EDEAB742
:1030A600B0B9BEABACA5A28F88818693949D9A27B2
:1030B60020292E3B3C35321F18111603040D0A57E2
:1030C60050595E4B4C45426F68616673747D7A89D0
:1030D6008E878095929B9CB1B6BFB8ADAAA3A4F982
:1030E600FEF7F0E5E2EBECC1C6CFC8DDDAD3D46972
:1030F6006E676075727B7C51565F584D4A43441922
:103106001E171005020B0C21262F283D3A33344E8C
:1031160049404752555C5B7671787F6A6D64633EC1
:1031260039303722252C2B0601080F1A1D1413AE31
:10313600A9A0A7B2B5BCBB9691989F8A8D8483DE61
:10314600D9D0D7C2C5CCCBE6E1E8EFFAFDF4F3005F
:103156000000009C04BC03E90304055A04F8034C70
:103166000400000000D106A40600077A069D068A20
:10317600067B060D0A000A63616E6E6F7420636F2C
:103186006D6D756E696361746520746F206B65790A
:103196007061642E0A004F62667573636174696FAD
:1031A6006E20697320696E76616C69642E20506C9E
:1031B6006561736520636F6E746163742063686113
:1031C6006C6C656E67652061646D696E6973747297
:1031D60061746F722E004368616C6C656E67653A48
:1031E6002053504900526563696576696E67206DA4
:1031F600657373616765202248454C4C4F222E2E1D
:103206002E002000526563696576696E6720466CFC
:0632160061672E2E2E0060
:00000001FF
