:100000000C94A2010C94CA010C94CA010C94CA016C
:100010000C94CA010C94CA010C94CA010C94470FA9
:100020000C94CA010C94CA010C94CA010C94CA0124
:100030000C94CA010C94CA010C94CA010C94CA0114
:100040000C94FD0E0C94CA010C94C90F0C94A30FD0
:100050000C94CA010C94CA010C94CA010C94CA01F4
:100060000C94FB0F0C94CA0105A84CCDB2D44EB928
:100070003836A9020C50B9918688083CA6AAAA2A4B
:10008000BE000000803F00000000F304353F5E83A7
:100090006C3FBE147B3F6DC47E3F0FB17F3F43EC8E
:1000A0007F3F11FB7F3FC4FE7F3FB1FF7F3FECFFEF
:1000B0007F3FFBFF7F3FFFFF7F3F0000803F00004F
:1000C000803F0000803F0000803F0000803FF3043D
:1000D000353F15EFC33EC2C5473E36BDC83D30FB78
:1000E000483DB00AC93C900E493C880FC93BC60F39
:1000F000493BD60FC93AD90F493ADB0FC939DB0F53
:100100004939DB0FC938DB0F4938BF0FC9372F2AF0
:100110002A2A2A2A2A2A2A2A2A2A2A2A2A2A2A2A3F
:100120002A2A2A2A2A2A2A2A2A2A2A2A2A2A2A2A2F
:100130002A2A2A2A2A2A2A2A2A2A2A2A2A2A2A2A1F
:100140002A2A2A2A2A2A2A2A2A2A2A2A2A2A2A2A0F
:100150002A2A2A2A2A2A2A2F004368616C6C656E93
:1001600067653A20536F636B20616E6420526F6C39
:100170006C002F2A2A2A2A2A2A2A2A2A2A2A2A2AC2
:100180002A2A2A2A2A2A2A2020594F552042454124
:100190005420544845204348414C4C454E47452146
:1001A00021212020202A2A2A2A2A2A2A2A2A2A2ADF
:1001B0002A2A2A2A2A2A2A2A2A2F002F2A2A2A2ABF
:1001C0002A2A2A2A2A2A2A2A2A2A2A2A2A2A2A2A8F
:1001D00020202020202020202020436F6E67726185
:1001E00074732121212020202020202020202A2A51
:1001F0002A2A2A2A2A2A2A2A2A2A2A2A2A2A2A2A5F
:100200002A2A2F0020556E61626C6520746F20646D
:1002100069636970686572206D6573736167652EC7
:1002200020536F7272792C20626574746572206C31
:1002300075636B206E6578742074696D652100208C
:10024000476C616420746F206B6E6F7720746869EF
:100250006E677320617265204F4B2E20456E6A6F6A
:100260007920796F75722074696D652061742074CE
:10027000686520666163746F72792100436F6E67F1
:10028000726174756C6174696F6E7321205075743E
:100290002074686520666C616720696E20796F75CF
:1002A00072207265706F7274002E003A20496C20C3
:1002B000657374206465686F72732E205665756966
:1002C0006C6C657A206E6F75732061696465722E3F
:1002D00020566575696C6C657A206E6F7573206148
:1002E000696465722E00497465726174696F6E206D
:1002F00000000000080002010000030407000000E5
:1003000000000000000200000000250028002B0073
:1003100000000000240027002A0004040404040450
:1003200004040202020202020303030303030102A4
:100330000408102040800102040810200102040873
:1003400010201A1111241FBECFEFD8E0DEBFCDBFA1
:1003500011E0A0E0B1E0E0EBF8E302C005900D92FF
:10036000A03EB107D9F723E0A0EEB1E001C01D9295
:10037000A839B207E1F711E0C2EAD1E004C0219741
:10038000FE010E94501CC13AD107C9F70E947511A5
:100390000C94561C0C94000090E0FC01E25DFC4FB4
:1003A0002491865E9C4FFC018491882399F090E013
:1003B000880F991FFC01E05FFC4FA591B491FC01EF
:1003C000EA5FFC4F859194918FB7F894EC91E22B02
:1003D000EC938FBF08958F929F92AF92BF92CF926E
:1003E000DF92EF92FF92CF936C01809104018A30EB
:1003F00069F08F3F09F46FC0CF91FF90EF90DF90CD
:10040000CF90BF90AF909F908F900895E5E0F3E07C
:10041000C491C7FDF1CF8AE00E94CC01CC2319F032
:10042000C23009F021C1F12CE12C60E072E18AE7D1
:1004300090E0A70196010E94CF1849015A01DA0104
:10044000C9010197A109B1098F3F9105A105B10526
:1004500009F00CF4EDC060E472E48FE090E0A701D5
:1004600096010E94CF182150310941095109C2302B
:1004700009F09FC082E02F3F31054105510509F089
:100480000CF487C160E970ED83E090E0A70196016C
:100490000E94CF18215031094109510983E02F3FB3
:1004A00031054105510509F00CF473C168E478EE9B
:1004B00081E090E0A70196010E94CF1821503109F8
:1004C000410951092F3F31054105510511F00CF04B
:1004D0008EC084E05EC18AE080930401E5E0F3E031
:1004E000C491CF3F09F488CFC13019F148F0C23030
:1004F00009F43DC0C7FD80CF8AE00E94CC0190CFB7
:1005000014BC15BC84B5826084BD85B5816085BD91
:10051000E4E2F3E0E491F0E0EE0FFF1FEA5FFC4F4E
:1005200085919491E8E3F3E0E491E0936002C0E008
:1005300072CF1092800010928100809181008860BB
:100540008093810080918100816080938100E4E24A
:10055000F3E0E491F0E0EE0FFF1FEA5FFC4F8591BE
:100560009491E8E3F3E0E491E0935F0254CF1092BA
:10057000B0001092B1008091B00082608093B00012
:100580008091B10081608093B100E4E2F3E0E491F6
:10059000F0E0EE0FFF1FEA5FFC4F8591949190937E
:1005A0005E0280935D02E8E3F3E0E491E0935C0295
:1005B00032CF2F3F31054105510509F00CF452C0EF
:1005C00068E478EE81E090E0A70196010E94CF18E0
:1005D0002150310941095109CC2309F4AFC02F3F03
:1005E00031054105510511F00CF0B0C072CF64E245
:1005F00074EF80E090E0A70196010E94CF1821508F
:1006000031094109510985E02F3F31054105510567
:1006100009F008F4BEC062E17AE780E090E0A7014B
:1006200096010E94CF1821503109410951099CC0FF
:100630009C0181E0C111ADC095B5987F892B85BD26
:1006400027BD8FEF9FEFDC018093690290936A02D0
:10065000A0936B02B0936C0280916E0082608093D5
:100660006E00CACE82E0E6CFF12CE12C60E072E1B0
:100670008AE790E0A70196010E94CF182150310926
:100680004109510991E02115310581E048075105E3
:100690006CF068E478EE81E090E0A70196010E949A
:1006A000CF18215031094109510993E0C13009F0B7
:1006B00076C080918100887F892B80938100309360
:1006C0008900209388008FEF9FEFDC018093650203
:1006D00090936602A0936702B093680280916F00C6
:1006E000826080936F0088CE2093B3008FEF9FEFDE
:1006F000DC018093610290936202A0936302B09345
:1007000064028091700082608093700075CE84E0F6
:100710002F3F31054105510509F008F48DCF9AE0CE
:10072000B594A794979487949A95D1F7A5019401CD
:10073000215031094109510985E07ECF83E02F3FE7
:1007400031054105510509F00CF476CF62E17AE7F5
:1007500080E090E0A70196010E94CF182150310956
:1007600041095109CC2399F286E02F3F310541051B
:10077000510579F070F08AE0B594A7949794879426
:100780008A95D1F7A50194012150310941095109F8
:1007900087E09091B100987F892B8093B100C130A0
:1007A00009F48DCFC23009F49FCFC11125CE48CFB7
:1007B00090E0FC01EF50FD4F2491FC01E25DFC4F05
:1007C0003491FC01E65EFC4FE491EE23C9F0222354
:1007D00039F0233001F1A8F4213019F1223029F148
:1007E000F0E0EE0FFF1FEA5FFC4FA591B4918FB7C9
:1007F000F894EC91611126C030953E233C938FBF55
:1008000008952730A9F02830C9F0243049F78091A5
:1008100080008F7D03C0809180008F77809380005F
:10082000DFCF84B58F7784BDDBCF84B58F7DFBCFE1
:100830008091B0008F778093B000D2CF8091B000CC
:100840008F7DF9CF3E2BDACF3FB7F89480915802D5
:1008500090915902A0915A02B0915B0226B5A89BD3
:1008600005C02F3F19F00196A11DB11D3FBFBA2F42
:10087000A92F982F8827BC01CD01620F711D811D02
:10088000911D42E0660F771F881F991F4A95D1F787
:1008900008958F929F92AF92BF92CF92DF92EF9284
:1008A000FF924B015C010E9424046B017C010E94B9
:1008B00024046C197D098E099F09683E73408105E7
:1008C0009105A8F321E0821A9108A108B10888EEE9
:1008D000C80E83E0D81EE11CF11C81149104A10410
:1008E000B10429F7FF90EF90DF90CF90BF90AF90C9
:1008F0009F908F9008950895089590910401891311
:100900000BC0E5E0F3E0E4919FEF90930401E13048
:1009100049F028F0E23061F060E00C94D8031092C6
:100920006E00FACF90916F009D7F90936F00F4CF8F
:10093000909170009D7F9093700091E09093B00033
:100940009091B100987F94609093B1001092B300A1
:10095000E3CFAF92BF92CF92DF92EF92FF920F93CD
:100960001F93CF93DF936C017B018B01040F151F45
:10097000EB015E01AE18BF08C017D10759F06991AD
:10098000D601ED91FC910190F081E02DC601099511
:10099000892B79F7C501DF91CF911F910F91FF90BE
:1009A000EF90DF90CF90BF90AF900895FC01538DF2
:1009B000448D252F30E0842F90E0821B930B541739
:1009C00010F0CF96089501970895FC01918D828DC6
:1009D000981761F0A28DAE0FBF2FB11D5D968C915F
:1009E000928D9F5F9F73928F90E008958FEF9FEF9E
:1009F0000895FC01918D828D981731F0828DE80F5A
:100A0000F11D858D90E008958FEF9FEF0895FC0113
:100A1000918D228D892F90E0805C9F4F821B9109E0
:100A20008F73992708958DEB92E00E94070521E0CE
:100A3000892B09F420E0822F089580E090E0892B33
:100A400029F00E94130581110C9400000895FC0107
:100A5000A48DA80FB92FB11DA35ABF4F2C91848D1F
:100A600090E001968F739927848FA689B7892C937C
:100A7000A089B1898C91837080648C93938D848DCF
:100A8000981306C00288F389E02D80818F7D8083D2
:100A90000895EF92FF920F931F93CF93DF93EC0192
:100AA00081E0888F9B8D8C8D98131AC0E889F98915
:100AB000808185FF15C09FB7F894EE89FF89608318
:100AC000E889F98980818370806480839FBF81E099
:100AD00090E0DF91CF911F910F91FF90EF900895DB
:100AE000F62E0B8D10E00F5F1F4F0F731127E02EB6
:100AF0008C8D8E110CC00FB607FCFACFE889F989EE
:100B0000808185FFF5CFCE010E942705F1CFEB8DC7
:100B1000EC0FFD2FF11DE35AFF4FF0829FB7F894C1
:100B20000B8FEA89FB8980818062CFCF0F931F935F
:100B3000CF93DF938C01D0E0C0E0F801EC0FFD1FF4
:100B40006491662341F08DEB92E00E944905892B68
:100B500011F02196F2CFCE01DF91CF911F910F912D
:100B60000895CF93DF93EC01888D8823B9F0AA898B
:100B7000BB89E889F9898C9185FD03C0808186FD58
:100B80000DC00FB607FCF7CF8C9185FFF2CF8081A7
:100B900085FFEDCFCE010E942705E9CFDF91CF91F0
:100BA000089520910102260F3327331F213231058A
:100BB000ECF420919302FC0190E080E0243069F095
:100BC00082E00895A09101022191AC014F515E4F46
:100BD000A40FB52FB11D2C930196861798F3809121
:100BE0000102680F6093010280E0089581E008959A
:100BF0001092930281E08093920210926D0261E064
:100C000082E10E94D80361E083E10E94D803E9EB0E
:100C1000F0E080818E7F808380818D7F808388E477
:100C20008093B80085E48093BC000895CF93DF9350
:100C300091E09093E0018823B9F0C091B800D09181
:100C4000BA008091BC008A7B8093BC0060E082E1A6
:100C50000E94D80360E083E10E94D8030E94F80557
:100C6000D093BA00C093B800DF91CF9108958F92CE
:100C70009F92AF92BF92CF92DF92EF92FF920F932B
:100C80001F93CF93DF93D091BC02D13208F0D7C02D
:100C9000182FC091BB020E9424046B017C0180913B
:100CA000930281116BC082E08093930210939202B1
:100CB0008FEF8093910210929002D0938F02ABE954
:100CC000B2E0EFE6F2E080E0D81391C010926E023D
:100CD00080916E02CC0FC82BC0936E0280916D0282
:100CE000813009F088C010926D020E9424046B01CB
:100CF0007C0180916E028093BB008091950290915F
:100D00009602A0919702B0919802892B8A2B8B2B87
:100D1000A1F00E9424040091950210919602209166
:100D20009702309198026C197D098E099F09061768
:100D300017072807390708F442C08091BC0083FDDB
:100D4000D8CF85EC8093BC000E9424046B017C0109
:100D500080919302823009F450C0809191028F3FBC
:100D600009F46FC080919102803209F46CC08091C7
:100D70009102803309F469C084E026C08091950215
:100D800090919602A0919702B0919802892B8A2B9C
:100D90008B2B09F484CF0E942404809095029090BC
:100DA0009602A0909702B09098026C197D098E0966
:100DB0009F0986169706A806B90608F070CF80919D
:100DC00094020E94160685E010929A021092BC02CC
:100DD00010929902DF91CF911F910F91FF90EF90A8
:100DE000DF90CF90BF90AF909F908F9008959D918E
:100DF00091938F5F69CF85EEA5CF809195029091F9
:100E00009602A0919702B0919802892B8A2B8B2B86
:100E100009F49ECF0E94240400919502109196023D
:100E200020919702309198026C197D098E099F09D3
:100E3000061717072807390708F08ACFC0CF81E0C7
:100E4000C3CF80E0C1CF82E0BFCF83E0BDCF0895A4
:100E5000E091490280914802E81730F4F0E0EC5D3F
:100E6000FD4F808190E008958FEF9FEF089590915E
:100E70004902809148022FEF3FEF981748F4E92F7D
:100E8000F0E0EC5DFD4F208130E09F5F90934902E0
:100E9000C90108958091480290914902891B990BDC
:100EA0000895CF92DF92EF92FF920F931F93CF930B
:100EB000DF937C01CB018A0120919902222389F0E2
:100EC000EB016B01C40ED51ECC15DD0569F06991EF
:100ED000D701ED91FC910190F081E02DC7010995BA
:100EE000F3CF642F0E94D105C801DF91CF911F91EC
:100EF0000F91FF90EF90DF90CF900895CF93DF9305
:100F00001F92CDB7DEB76983209199022223F9F0B1
:100F10002091BC02203258F021E030E0FC01338304
:100F2000228390E080E00F90DF91CF91089580912F
:100F30009A02E82FF0E0E556FD4F998190838F5F8C
:100F400080939A028093BC0281E090E0ECCF61E054
:100F5000CE0101960E94D105F7CF2F923F924F927A
:100F60005F926F927F928F929F92AF92BF92CF9239
:100F7000DF92EF92FF920F931F93CF93DF93CDB742
:100F8000DEB7A9970FB6F894DEBF0FBECDBF362FE0
:100F9000FC01E75AFF4F40815181628173814F5FAD
:100FA0005F4F6F4F7F4F4083518362837383DC01B8
:100FB000AC5BBF4F2C91E3E0E227E80FF92FF11D66
:100FC00034832F5F2C93203409F016C1FC01EB5BB6
:100FD000FF4F40805180628073804D865E866F86B1
:100FE000788A34966080718082809380698A7A8A58
:100FF0008B8A9C8A349680809180A280B3808D8A6F
:101000009E8AAF8AB88E3496A080B180C280D38089
:10101000A98EBA8ECB8EDC8E3496C080D180E280D1
:10102000F380CD8EDE8EEF8EF8A2C986DA86EB864F
:10103000FC862D853E854F8558892D833E834F83C1
:101040005887C988DA88EB88FC88898C9A8CAB8CA5
:10105000BC8C0D891E892F89388DBEE02B2E312C3A
:1010600019A249A1443108F051C1B501A40140279A
:101070005127622773274C215D216E217F212A0190
:101080003B01482459246A247B24B301A20147561A
:1010900056486D47754A4EA35FA368A779A7E9A193
:1010A000EF70F0E03196EE0FFF1FEE0FFF1FE80F1D
:1010B000F91F4D805E806F8078845BE17694679441
:1010C000579447945A95D1F74D815E816F81788509
:1010D000A5E0440F551F661F771FAA95D1F7442935
:1010E0005529662977294080518062807380440D9C
:1010F000551D661D771D2A013B014EA15FA168A504
:1011000079A5440E551E661E771E49855A856B8546
:101110007C85440D551D661D771D49835A836B835D
:101120007C8326013701B2E0769467945794479404
:10113000BA95D1F7B701A601EEE1440F551F661F1E
:10114000771FEA95D1F74429552966297729A9A15E
:10115000AF5FA9A3A03509F068C0FC01EB5BFF4FAE
:101160004D845E846F847888C980DA80EB80FC804F
:101170004C0C5D1C6E1C7F1C40825182628273820B
:101180003496C988DA88EB88FC884D805E806F8051
:101190007884C40CD51CE61CF71CC082D182E28284
:1011A000F3823496CD88DE88EF88F88C4C0D5D1D77
:1011B0006E1D7F1D40835183628373833496498DF6
:1011C0005A8D6B8D7C8D400F511F621F731F4083A2
:1011D00051836283738334962D8D3E8D4F8D58A13C
:1011E000820E931EA41EB51E80829182A282B382BB
:1011F0008C5B9F4FDC011C92A9960FB6F894DEBF62
:101200000FBECDBFDF91CF911F910F91FF90EF9057
:10121000DF90CF90BF90AF909F908F907F906F9016
:101220005F904F903F902F900895E9A1EF70A4E058
:10123000EA9FF00111242C014E0E5F1E5A8649864A
:10124000D2011496CD90DD90ED90FC901797B9A146
:10125000B03108F443C0F1013597EF70FF273196A4
:10126000EE0FFF1FEE0FFF1FE80FF91FD101AF7048
:10127000BB271196AA0FBB1FAA0FBB1FA80FB91F30
:101280004D905D906D907C90C424D524E624F72485
:101290004080518062807380C424D524E624F724E2
:1012A000F1013B97EF70FF273196EE0FFF1FEE0F16
:1012B000FF1FE80FF91F4080518062807380C424B3
:1012C000D524E624F724CC0CDD1CEE1CFF1CC11C2D
:1012D000E985FA85C482D582E682F782FFEF2F1A6C
:1012E0003F0A89869A86AB86BC86CD80DE80EF80F9
:1012F000F88449805A806B807C804D825E826F8248
:101300007886480159018A019B01ABCE59A1583218
:1013100098F4B501A40140275127622773272A01B9
:101320003B014C245D246E247F24B301A2014F5560
:10133000544166427149AFCE59A15C33D8F4B9012A
:10134000A8014C295D296E297F29482159216A214C
:101350007B21280139014C205D206E207F20442A0A
:10136000552A662A772AB301A20144525344644E97
:10137000704791CEB501A4014027512762277327FA
:101380002A013B014C245D246E247F24B301A20179
:101390004A525E436D4975437ECE089590E080E0E9
:1013A0000895FC0101900020E9F73197AF01481B37
:1013B000590BBC018DEB92E00C94A9048DE791E0F0
:1013C0000C94D109CF93DF930E949605EC010E9403
:1013D000DE098C0F9D1FDF91CF910895CF93DF938E
:1013E0000E94D109EC010E94DE098C0F9D1FDF9144
:1013F000CF91089585ED8093BC00809195029091E6
:101400009602A0919702B09198020796A11DB11D76
:1014100023E0B695A795979587952A95D1F72091C2
:10142000BC0024FD03C010929302089540919502E0
:10143000509196026091970270919802452B462B2D
:10144000472B69F30097A105B10541F02AE22A95DF
:10145000F1F700C00197A109B109E1CF8091940291
:101460000C9416062F923F924F925F926F927F924A
:101470008F929F92AF92BF92CF92DF92EF92FF92A4
:101480000F931F93CF93DF93CDB7DEB7CC52D440E9
:101490000FB6F894DEBF0FBECDBF0E9424046B01CF
:1014A0007C0124EFC20ED11CE11CF11CAE014F5F88
:1014B0005F4F1A01CE018F5F9D4FC95FDB4F99834C
:1014C0008883C750D4408C01C55FDB4F5983488364
:1014D000CB50D440E0E4BE2EB0927C0080917A00E4
:1014E000806480937A0080917A0086FDFCCF6091C1
:1014F000780070917900072E000C880B990B0E94E0
:10150000311AC55FDB4FA881B981CB50D4406D93B0
:101510007D938D939D93C55FDB4FB983A883CB509B
:10152000D440F80111921192119211928F010E94F0
:1015300024046C157D058E059F05C8F3F4EFCF0ECE
:10154000D11CE11CF11CC55FDB4F28813981CB50D8
:10155000D440C95FDB4F48815981C750D44024171C
:10156000350709F0B9CF7901610110E000E0B80159
:1015700090E080E00E942F1A20E030E04EEF52E42D
:101580000E9487192BED3FE049EC50E40E94251B97
:101590000E9482192FE135E84BEE5EE30E94251B85
:1015A0009B01AC0161E77DE38AE09FE30E94101993
:1015B0004B015C01AC019B01D6016D917D918D9138
:1015C0009C910E94251BF6016193719381939193E5
:1015D0006F01A5019401D7019E918E917E916E912C
:1015E0007D010E94251BF7016083718382839383B1
:1015F0000F5F1F4F0034110509F0B9CFF10150E022
:1016000040E090E080E01DC048175907C8F4DC01B5
:10161000AA0FBB1FAA0FBB1FA20DB31D048115810A
:1016200026813781CD90DD90ED90FC901397C48298
:10163000D582E682F7820D931D932D933C931397E9
:10164000349620E430E08217930728F0821B930B36
:1016500036952795F8CF820F931F4F5F5F4F4F3717
:10166000510591F6C75EDB4F188219821A821B82E0
:10167000C951D440C15EDB4F1882CF51D440C05E07
:10168000DB4F1882C052D440F0E8CF5DDB4FF883C7
:10169000C152D4402FEBCE5DDB4F2883C252D440E1
:1016A00041E050E0CB5FDB4F59834883C550D440C5
:1016B000C75FDB4F19821882C950D440CB5FDB4F24
:1016C00088819981C550D440880F991FC75DDB4F31
:1016D00099838883C952D440CB5FDB4FA881B981FD
:1016E000C550D44033E0AA0FBB1F3A95E1F7C55D62
:1016F000DB4FB983A883CB52D440CB5FDB4FE8816B
:10170000F981C550D440EE0FFF1FEE0FFF1FC95DDA
:10171000DB4FF983E883C752D440C95FDB4F288190
:101720003981C750D440C35EDB4F39832883CD5104
:10173000D440CB5EDB4F39822882C551D440412C46
:10174000512C320100E0C35FDB4F1882CD50D440F2
:1017500030E8C25FDB4F3883CE50D4401FE3C15F17
:10176000DB4F19821882CF50D440C15FDB4F4881D4
:101770005981CF50D440CB5FDB4F88819981C550D0
:10178000D4404817590709F4EBC1C35EDB4FA88169
:10179000B981CD51D440CF5FDB4FB983A883C1500D
:1017A000D440CB5EDB4FE881F981C551D440CD5F99
:1017B000DB4FF983E883C350D440C95EDB4F5983C4
:1017C0004883C751D440C95EDB4F28813981C75156
:1017D000D4402038310508F020C1CD5FDB4F48816F
:1017E0005981C350D440C95DDB4F88819981C7526C
:1017F000D440480F591FCB5DDB4F59834883C552F6
:10180000D440DA018D909D90AD90BC90CF5FDB4FBE
:10181000E881F981C150D440E80FF91FCD5DDB4F5D
:10182000F983E883C352D4402081318142815381BE
:10183000CF5EDB4F288339834A835B83C151D44019
:10184000202FC35FDB4F3881CD50D440C25FDB4FC8
:101850004881CE50D440512FC501B4010E94251BB0
:101860006B017C01A3019201CF5EDB4F688179811E
:101870008A819B81C151D4400E94251B9B01AC01F0
:10188000C701B6010E9410196B017C01CF5EDB4FCE
:10189000288139814A815B81C151D440602FC35F67
:1018A000DB4F7881CD50D440C25FDB4F8881CE5072
:1018B000D440912F0E94251BCF5EDB4F6883798334
:1018C0008A839B83C151D440A3019201C501B40115
:1018D0000E94251B9B01AC01CF5EDB4F68817981A3
:1018E0008A819B81C151D4400E9411194B015C0136
:1018F000A7019601CD5FDB4FE881F981C350D44049
:1019000060817181828193810E941019CB5DDB4FD0
:10191000A881B981C552D4406D937D938D939C93DA
:101920001397A5019401CF5FDB4FE881F981C15086
:10193000D44060817181828193810E941019CD5DB4
:10194000DB4FA881B981C352D4406D937D938D93B1
:101950009C931397A7019601CD5FDB4FE881F98136
:10196000C350D44060817181828193810E9411199A
:10197000CD5FDB4FA881B981C350D4406D937D9377
:101980008D939C931397A5019401CF5FDB4FE88162
:10199000F981C150D44060817181828193810E941C
:1019A0001119CF5FDB4FA881B981C150D4406D932D
:1019B0007D938D939C931397C95EDB4FE881F981EA
:1019C000C751D440C75DDB4F28813981C952D4400B
:1019D000E20FF31FC95EDB4FF983E883C751D440A0
:1019E000CD5FDB4F48815981C350D440C55DDB4F8B
:1019F00088819981CB52D440480F591FCD5FDB4F6E
:101A000059834883C350D440A80FB91FCF5FDB4F21
:101A1000B983A883C150D440D6CEC15EDB4F2881A4
:101A2000CF51D440C05EDB4F3881C052D440CF5D2F
:101A3000DB4F4881C152D440CE5DDB4F5881C2524A
:101A4000D440602FC35FDB4F7881CD50D440C25F5C
:101A5000DB4F8881CE50D440912F0E94251B6B0113
:101A60007C01C75EDB4F288139814A815B81C95186
:101A7000D440C301B2010E94251B9B01AC01C701E8
:101A8000B6010E9410196B017C01C15EDB4F2881F9
:101A9000CF51D440C05EDB4F3881C052D440CF5DBF
:101AA000DB4F4881C152D440CE5DDB4F5881C252DA
:101AB000D440C301B2010E94251B4B015C01C75EEB
:101AC000DB4F288139814A815B81C951D440602F25
:101AD000C35FDB4F7881CD50D440C25FDB4F88813C
:101AE000CE50D440912F0E94251BA50194010E9445
:101AF00011192B013C01C15FDB4FA881B981CF5087
:101B0000D4401196C15FDB4FB983A883CF50D44036
:101B1000CB5EDB4FE881F981C551D4403496CB5E72
:101B2000DB4FF983E883C551D440C35EDB4F288186
:101B30003981CD51D4402C5F3F4FC35EDB4F398399
:101B40002883CD51D4400C2DC35FDB4FD882CD50BC
:101B5000D440C25FDB4FE882CE50D4401F2D05CE6B
:101B6000C75FDB4FE881F981C950D440E653FF4F8E
:101B700085919591A591B491C75FDB4FE881F9817B
:101B8000C950D440EA57FF4F4591559165917491E2
:101B9000C15EDB4F4883CF51D440C05EDB4F5883DA
:101BA000C052D440CF5DDB4F6883C152D440CE5D7C
:101BB000DB4F7883C252D4409C01AD015058C75EC0
:101BC000DB4F288339834A835B83C951D440C75F85
:101BD000DB4F48815981C950D4404C5F5F4FC75F8C
:101BE000DB4F59834883C950D440C75DDB4F8881A0
:101BF0009981C952D440CB5FDB4F99838883C5500C
:101C0000D4404C31510509F059CD8101D8016D9175
:101C10007D918D919D918D01C95FDB4FE881F981A7
:101C2000C750D440C190D190E190F190C95FDB4F93
:101C3000F983E883C750D4409B01AC010E94251B67
:101C40004B015C01A7019601C701B6010E94251B4B
:101C50009B01AC01C501B4010E9411190E94981B9F
:101C6000F80134976083718382839383C55FDB4F70
:101C700028813981CB50D4400217130739F610E080
:101C800000E0712C612C512C412CEE24E394F12CBA
:101C9000D1016D917D918D919D911D018C90119639
:101CA0009C9011971296CC9012971396DC90570146
:101CB000BFEFAB1ABB0A9401A6010E947D1987FFF2
:101CC0001AC0F1012481358146815781B401C601D2
:101CD0000E94201B18167CF4272D362D452D542DDF
:101CE000B401C6010E94201B18162CF48701782C21
:101CF000692C5C2C4D2C7501F1E4AF16B10441F652
:101D0000180121E0221A20EC320A220C331C220C8A
:101D1000331CFE01E20DF31D81809280A380B4800C
:101D2000FE01E20DF31DC184D284E384F484A70193
:101D30009601C501B4010E9410192B013C01FE015E
:101D4000E20DF31D65817681878190859B01AC0151
:101D50000E9411199B01AC01C501B4010E94101928
:101D6000A70196010E9411199B01AC01C301B201A8
:101D70000E94871920E030E040E05FE30E94251BCD
:101D80006B017C01B80190E080E00E942F1A9B015A
:101D9000AC01C701B6010E94111920E030E040E813
:101DA00055E40E94251B0034110501F120E030E0CC
:101DB0004EEF52E40E948719C45DDB4F0FB6F894D2
:101DC000DEBF0FBECDBFDF91CF911F910F91FF906E
:101DD000EF90DF90CF90BF90AF909F908F907F90CB
:101DE0006F905F904F903F902F90089520E030E0EB
:101DF00040E05CE30E94251BDFCF1F920F920FB6DD
:101E00000F9211242F933F938F939F93AF93BF9380
:101E10008091540290915502A0915602B0915702C0
:101E20003091530223E0230F2D3758F50196A11D61
:101E3000B11D209353028093540290935502A093B6
:101E40005602B09357028091580290915902A09186
:101E50005A02B0915B020196A11DB11D80935802F8
:101E600090935902A0935A02B0935B02BF91AF9135
:101E70009F918F913F912F910F900FBE0F901F90C8
:101E8000189526E8230F0296A11DB11DD2CF1F92EF
:101E90000F920FB60F9211242F933F934F935F939E
:101EA0006F937F938F939F93AF93BF93EF93FF9322
:101EB0008091610290916202A0916302B0916402EC
:101EC000892B8A2B8B2BD1F190915C02E0915D02E2
:101ED000F0915E02808189278083809161029091D8
:101EE0006202A0916302B0916402181619061A06E4
:101EF0001B069CF48091610290916202A0916302A2
:101F0000B09164020197A109B10980936102909395
:101F10006202A0936302B0936402FF91EF91BF91BC
:101F2000AF919F918F917F916F915F914F913F9171
:101F30002F910F900FBE0F901F9018958091040164
:101F40000E947D04EACF1F920F920FB60F921124C8
:101F50002F933F934F935F936F937F938F939F93B1
:101F6000AF93BF93EF93FF938DEB92E00E94270511
:101F7000FF91EF91BF91AF919F918F917F916F9161
:101F80005F914F913F912F910F900FBE0F901F9037
:101F900018951F920F920FB60F9211242F938F93C3
:101FA0009F93EF93FF93E091CD02F091CE02808159
:101FB000E091D302F091D40282FD1BC09081809108
:101FC000D6028F5F8F732091D702821741F0E09184
:101FD000D602F0E0E354FD4F958F8093D602FF9137
:101FE000EF919F918F912F910F900FBE0F901F90A7
:101FF00018958081F4CF1F920F920FB60F92112483
:102000002F933F934F935F936F937F938F939F9300
:10201000AF93BF93EF93FF938091B900887F803691
:1020200009F44AC0F0F5883209F4A7C018F58031E8
:1020300009F49BC0B8F4882309F4F9C0883009F486
:1020400094C0FF91EF91BF91AF919F918F917F913C
:102050006F915F914F913F912F910F900FBE0F9015
:102060001F901895883109F488C0803251F7809309
:10207000910214C0803409F49DC040F48033B9F358
:102080008833F9F68093910285ECB0C0803509F46D
:1020900085C0883509F496C0883499F60E94FA09FB
:1020A000D0CF883909F48CC038F5883729F050F43E
:1020B000883611F0803729F683E0809393021092DE
:1020C000230257C0883809F47BC0803919F0803862
:1020D00009F0B7CF80912302803208F071C0E091FF
:1020E000230281E08E0F809323028091BB00F0E0F9
:1020F000ED5FFD4F80833DC0803B39F0E0F4803AD6
:1021000009F479C0883A09F09CCF84E08093930267
:102110001092020210920102E0914402F0914502F5
:1021200009958091010281110FC081E08093010225
:102130001092E10109C0803C09F4A6CF883C09F463
:10214000A3CF883B09F07DCFE091020281E08E0FA2
:1021500080930202F0E0EF51FE4F80818093BB003C
:10216000909102028091010229C080916E028093B9
:10217000BB0085EC8093BC0064CF9091900280916D
:102180008F02981758F5E091900281E08E0F8093AE
:102190009002F0E0E159FD4F8081E9CFE09190029B
:1021A00081E08E0F809390028091BB00F0E0E159B6
:1021B000FD4F80839091900280918F029817C8F212
:1021C00085E8D8CFE091900281E08E0F8093900255
:1021D0008091BB00F0E0E159FD4F80838091920235
:1021E00081115CCF81E080936D0284EA8093BC0012
:1021F0001092930226CF85EC8093BC00109293023C
:1022000080912302803230F4E0912302F0E0ED5F10
:10221000FD4F10826091230270E0E0914602F09140
:10222000470283E092E00995109223020ACF1092B0
:10223000910234CFEDEBF2E01382128248EE53E0CC
:1022400060E070E044835583668377838DE591E099
:102250009183808385EC90E09587848784EC90E07F
:102260009787868780EC90E0918B808B81EC90E063
:10227000938B828B82EC90E0958B848B86EC90E044
:10228000978B868B118E128E138E148EAAE5B3E077
:1022900013961C921E92129714964D935D936D9314
:1022A0007C9317978FE691E011969C938E93EDE6C1
:1022B000F3E080ED97E097A386A311A610A612A6DF
:1022C000178A118E12A213A214A215A214821582CB
:1022D000E6E6F3E01682158280E1818380E2808366
:1022E000B483A3838CE282830895CF93DF93CDB729
:1022F000DEB7CA5AD1400FB6F894DEBF0FBECDBFCD
:10230000789484B5826084BD84B5816084BD85B5D0
:10231000826085BD85B5816085BD80916E008160DC
:1023200080936E0010928100809181008260809382
:102330008100809181008160809381008091800084
:102340008160809380008091B10084608093B100AF
:102350008091B00081608093B00080917A008460A9
:1023600080937A0080917A00826080937A008091D5
:102370007A00816080937A0080917A0080688093EF
:102380007A001092C10080E2E5E0F1E0DE01AF5991
:10239000BE4F01900D928A95E1F7E091CD02F09148
:1023A000CE0282E08083E091C902F091CA021082DD
:1023B000E091CB02F091CC0280E180831092D502B3
:1023C000E091D102F091D20286E08083E091CF02C9
:1023D000F091D002808180618083E091CF02F09102
:1023E000D002808188608083E091CF02F091D0029A
:1023F000808180688083E091CF02F091D00280815B
:102400008F7D808388E0E5E2F1E08E010F5F1F4F52
:10241000D80101900D928A95E1F781E080937103D4
:1024200010927203109273038093840398E0909348
:10243000850310926D0380936F0380936E03109257
:102440007003F801ACE7B3E0CE01099621912D931A
:10245000E817F907D9F7CF5BDE4F8881C154D14027
:1024600080937403F12C80918403F81698F48F2DD7
:1024700090E09C0123593C4F6901D90117968C913A
:102480000E94CC0160916E03F60187810E94D803FF
:10249000F394E9CFF12C80918503F81650F09091D8
:1024A0008403E7E8F3E080E09817B1F011928F5FC2
:1024B000FBCF8F2D90E09C0123593C4F6901D9013E
:1024C0001F968C910E94CC0160917003F601878564
:1024D0000E94D803F394DFCFF12C80918403F81687
:1024E00058F4EF2DF0E0E359FC4F60916E038781C3
:1024F0000E94D803F394F1CF6091700380917C0324
:102500000E94D803F12C80918503F81658F4EF2D22
:10251000F0E0E359FC4F6091700387850E94D80377
:10252000F394F1CF60916E03809174030E94D803FD
:1025300088E097E09093940380939303109296031E
:1025400010929503109297038CE00E94CC0160E0FA
:102550008CE00E94D8038BE00E94CC0160E08BE00D
:102560000E94D8030E94F8058CE08093B800109276
:1025700049021092480210929A021092BC020E94E4
:10258000F8058BE794E090934502809344028CE732
:1025900094E0909347028093460280916903909162
:1025A0006A032091660331E0309399022093BB02C5
:1025B000DC01ED91FC910190F081E02D60EF099537
:1025C00081E00E943706F82E8111A1C0E0906603D9
:1025D0000E9424044B015C0180919302811163C02D
:1025E00081E080939302809392029FEF90939102F7
:1025F0001092900210928F0280936E0280916E0270
:10260000EE0CE82AE0926E0280916D02813009F0B2
:1026100098C010926D020E9424044B015C018091CD
:102620006E028093BB008091950290919602A091DA
:102630009702B0919802892B8A2B8B2BA1F00E94D4
:1026400024044090950250909602609097027090FA
:102650009802681979098A099B094616570668067F
:10266000790608F441C08091BC0083FDD8CF85EC89
:102670008093BC000E9424044B015C018091930272
:10268000813009F460C08091900281117EC08091F8
:102690009002EFE6F2E0A4E2B2E0F81649F191917F
:1026A0009D93F394FACF8091950290919602A09118
:1026B0009702B0919802892B8A2B8B2B09F48CCF2F
:1026C0000E942404409095025090960260909702D8
:1026D00070909802681979098A099B09461657066D
:1026E0006806790608F078CF809194020E94160659
:1026F00010924902F09248028091690390916A0316
:10270000DC01ED91FC910284F385E02D0995809127
:10271000660391E0909399028093BB0210929A0213
:102720001092BC0281E00E943706CB56DE4F8883B0
:10273000C559D140882359F180E891E00E94EE0903
:10274000FFCF85EE95CF8091950290919602A09152
:102750009702B0919802892B8A2B8B2B09F48ECF8C
:102760000E94240440909502509096026090970237
:1027700070909802681979098A099B0946165706CC
:102780006806790608F07ACFAFCF81E082CFEDB747
:10279000FEB7CB55DE4FF983E883C55AD14081E0BF
:1027A00093E2A5E4B7E6CF57DE4F88839983AA83E7
:1027B000BB83C158D14089E89BEAADECBFEECB5753
:1027C000DE4F88839983AA83BB83C558D1408EEF9F
:1027D0009CEDAAEBB8E9C757DE4F88839983AA839B
:1027E000BB83C958D14086E794E5A2E3B0E1C35763
:1027F000DE4F88839983AA83BB83CD58D14080EF75
:1028000091EEA2EDB3ECCF56DE4F88839983AA8375
:10281000BB83C159D1402DB73EB7205431090FB603
:10282000F8943EBF0FBE2DBF2F5F3F4F8DB79EB7B1
:102830008F5B9F4FD9011D921D921D921D928A1789
:102840009B07C9F740916E0380916D0390E0B0E063
:10285000A0E0B82FAA2799278827A42B9068F90110
:102860004081518162817381842B952BA62BB72BDC
:1028700080839183A283B38380E190E0A0E0B0E005
:1028800084AF95AFA6AFB7AF80E491E0D801FC016B
:102890001D923197E9F7F801C156DE4F398328833D
:1028A000CF59D1401E012FE3221A310880EF91EE5B
:1028B000A2EDB3ECCF55DE4F88839983AA83BB8307
:1028C000C15AD14021E033E245E457E6C556DE4F18
:1028D000288339834A835B83CB59D140A9E84A2EA8
:1028E000ABEA5A2EADEC6A2EAFEE7A2EB6E7CB2EBF
:1028F000B4E5DB2EB2E3EB2EB0E1FB2E8EEF9CEDC8
:10290000AAEBB8E9C956DE4F88839983AA83BB83B3
:10291000C759D140CB56DE4F9881C559D14090312F
:1029200008F090C3C156DE4FA881B981CF59D1407C
:102930004D915D916D917C9140835183628373834E
:10294000C956DE4F088119812A813B81C759D14080
:102950000C251D252E253F25042115212621372153
:102960000C251D252E253F2579E9872E79E7972E01
:1029700072E8A72E7AE5B72E81919191A191B1913C
:10298000C955DE4F88839983AA83BB83C75AD14038
:10299000C556DE4F88819981AA81BB81CB59D14030
:1029A0006BE1B695A795979587956A95D1F7C5562A
:1029B000DE4F488159816A817B81CB59D14068942F
:1029C00014F8440F551F661F771F1694D1F7842BF8
:1029D000952BA62BB72BC955DE4F488159816A81AB
:1029E0007B81C75AD140480F591F6A1F7B1F400F78
:1029F000511F621F731F840E951EA61EB71ECF5552
:102A0000DE4F288139814A815B81C15AD140820ED3
:102A1000931EA41EB51EB301A20182E076956795B0
:102A2000579547958A95D1F7930182019EE1000F52
:102A3000111F221F331F9A95D1F7042B152B262B1C
:102A4000372BCB56DE4F4881C559D1404F5FCB560F
:102A5000DE4F4883C559D140C156DE4F88819981E8
:102A6000CF59D1400496C156DE4F99838883CF5900
:102A7000D14094E0290E311CC556DE4F4880598064
:102A80006A807B80CB59D140CF55DE4FC882D98236
:102A9000EA82FB82C15AD140403509F0BAC2AFEF99
:102AA0008A1AACED9A0AAAEBAA0AA8E9BA0ACF5781
:102AB000DE4F88829982AA82BB82C158D140D3015D
:102AC000C20187579445A243B041CB57DE4F88835C
:102AD0009983AA83BB83C558D14028013901B2E04C
:102AE0004B1AB3E25B0AB5E46B0AB7E67B0AC75739
:102AF000DE4F488259826A827B82C958D140C956CA
:102B0000DE4F88819981AA81BB81C759D1408A58FB
:102B10009B4AAD4CBF4EC357DE4F88839983AA832F
:102B2000BB83CD58D140E0E1CE1AEEE1DE0AEDE202
:102B3000EE0AECE3FE0ACF56DE4FC882D982EA8263
:102B4000FB82C159D140CB55DE4F28813981C55A0E
:102B5000D1400FB6F8943EBF0FBE2DBFFE01EF5718
:102B6000FE4F9F012C5E3F4F80E090E0DC014191E1
:102B700051916191719184279527A627B7272E1728
:102B80003F07A9F78B3D9748AA4BB84021F080EA50
:102B900091E00E94EE09AE014F5F5F4F6A018A012A
:102BA000F0E0E0E054E1A52EB12C30E020E04F0150
:102BB000820E931E7901EE0CFF1CE00EF11EC40183
:102BC000B5010E94281CA1E8B1E0AC0FBD1FA80F01
:102BD000B91F8C91889CA001899C500D500D112427
:102BE000840F952F911DD7018D939C932F5F3F4F9D
:102BF00028303105E1F63896005F1F4FE034F105CB
:102C0000A1F68E010F5B1E4FF801B096C956DE4F3C
:102C1000F983E883C759D1407801D7011D921D92ED
:102C20001D921D927D011E01BFE92B1ABEEF3B0ACA
:102C3000F101B096C556DE4FF983E883CB59D140F8
:102C4000CB56DE4FD982C882C559D140412C512C78
:102C50003201CB56DE4FA881B981C559D1406D9163
:102C60007D91CB56DE4FB983A883C559D140F10180
:102C700081909190A190B1901F01072E000C880BBC
:102C8000990B0E94311AA50194010E94251B9B01FA
:102C9000AC01C301B2010E9411192B013C01C556C0
:102CA000DE4F28813981CB59D1402215330589F671
:102CB000F70134974082518262827382F0E1CF0E35
:102CC000D11CC956DE4F28813981C759D1402E15F4
:102CD0003F0509F0A2CF2AE4C22E22E0D22ED8016D
:102CE0008D909D90AD90BD908D0120E030E0A901C8
:102CF000C501B4010E94201B20E030E040E05FE30A
:102D000087FD3FC2C501B4010E9411190E94F91943
:102D1000F60161936F01E016F10609F780914A020E
:102D2000855280934A02109252028EE091E00E94F6
:102D3000E20989E591E00E94E2098EE091E00E94BB
:102D4000E20994EB292E9BEF392E609100017091DE
:102D50000101809102019091030126E030E040E002
:102D600050E00E94EE18062F82E0882E860E0E9408
:102D7000DE0986EE92E00E949605209100013091D6
:102D80000101409102015091030119A27E01F1E27B
:102D9000EF0EF11CCA01B9012AE030E040E050E03A
:102DA0000E94EE18605DD7016E937D0121153105FB
:102DB0004105510579F7109719F0CD010E94D1090D
:102DC0008BEA92E00E9496058091000190910101AA
:102DD000A0910201B09103010196A11DB11D809344
:102DE000000190930101A0930201B0930301EDE271
:102DF000F1E0C956DE4FF983E883C759D1402DE38E
:102E000031E0CB56DE4F39832883C559D140BB24EE
:102E1000B394CC24C394F12CE12CE02FF0E0E35BDD
:102E2000FE4F80818E151F0439F4801628F00F5F45
:102E300089EA92E00E949605CB56DE4FA881B981BF
:102E4000C559D140AD90CB56DE4FB983A883C55943
:102E5000D140A29CC001A39C900D1124845B9B4F88
:102E60000E94EB016CE271E080E090E00E94490476
:102E700015E00E94320A0E94001A635A7240DD2453
:102E8000D394633A724008F4D12C62E370E080E09E
:102E900090E00E9449040E94320A2B013C0162E347
:102EA00070E080E090E00E944904C301B2010E94FA
:102EB000001A635A724099249394633A724008F45A
:102EC000912C11509D1419F01111D3CF9D2CF4E6C3
:102ED0001F9FB001112468537F4F072E000C880BF1
:102EE000990B0E944904C956DE4FA881B981C75980
:102EF000D1408D91C956DE4FB983A883C759D140BF
:102F00008911B12CA910C12CBFEFEB1AFB0AE0E12B
:102F1000EE16F10409F081CFBB2009F437C10E94FD
:102F2000DE090E94DE0982E791E00E94E2098CE757
:102F300092E00E94E2098AE492E00E94EE098BEBA3
:102F400091E00E94E2090E94DE090E94DE0904E18C
:102F500010E088EB91E00E94EB0164E670E080E015
:102F600090E00E9449048EEE91E00E94EB0164E63D
:102F700070E080E090E00E9449048BE092E00E94C3
:102F8000EB0164E670E080E090E00E9449048BE48D
:102F900092E00E94EB0164E670E080E090E00E9425
:102FA000490483E992E00E94EB0164E670E080E06E
:102FB00090E00E9449048AEB92E00E94EB0164E6F3
:102FC00070E080E090E00E94490480E193E00E947C
:102FD000EB0164E670E080E090E00E9449048AE042
:102FE0000E947D0464E670E080E090E00E94490465
:102FF0000150110909F0ADCF20E030E0232B09F496
:10300000A4CE0E941305882309F49FCE0E940000DD
:103010009CCEC556DE4F88829982AA82BB82CB594C
:10302000D140C956DE4FC880D980EA80FB80C7599D
:10303000D140C956DE4F088319832A833B83C75981
:10304000D14068CCD101D4964D915D916D917C9128
:10305000D79790960D911D912D913C9193970427B0
:1030600015272627372718964D915D916D917C91F4
:103070001B9704271527262737274D915D916D91C2
:103080007C91D901C80184279527A627B727880FE7
:10309000991FAA1FBB1F811D80839183A283B383C5
:1030A000CB56DE4FB881C559D140B43108F448CC75
:1030B000CB56DE4F2881C559D1402832C8F4C956B5
:1030C000DE4F088119812A813B81C759D1400C25E7
:1030D0001D252E253F25042515252625372561EAA2
:1030E000862E6BEE962E69EDA62E6EE6B62E44CC9D
:1030F000CB56DE4F3881C559D1403C3348F5C956CF
:10310000DE4F088119812A813B81C759D1400C29A2
:103110001D292E293F290421152126213721C95691
:10312000DE4F488159816A817B81C759D1404C214A
:103130005D216E217F21042B152B262B372B5CED77
:10314000852E5CEB952E5BE1A52E5FE8B52E14CCA9
:10315000C956DE4F088119812A813B81C759D14068
:103160000C251D252E253F2504251525262537252B
:1031700046ED842E41EC942E42E6A42E4AECB42E69
:10318000FBCBC501B4010E941019C0CD8FE392E0C2
:10319000C11002C084E092E00E94E2092DCF052E0A
:1031A00097FB1EF400940E94E61857FD07D00E947A
:1031B000EE1807FC03D04EF40C94E6185095409599
:1031C000309521953F4F4F4F5F4F089590958095D3
:1031D000709561957F4F8F4F9F4F0895A1E21A2EF2
:1031E000AA1BBB1BFD010DC0AA1FBB1FEE1FFF1FAB
:1031F000A217B307E407F50720F0A21BB30BE40BFB
:10320000F50B661F771F881F991F1A9469F7609541
:103210007095809590959B01AC01BD01CF010895FB
:103220005058BB27AA270E9428190C94D21A0E9432
:10323000991A38F00E94A01A20F039F49F3F19F42F
:1032400026F40C94961A0EF4E095E7FB0C94901A71
:10325000E92F0E94F71A58F3BA1762077307840719
:10326000950720F079F4A6F50C94191B0EF4E0955F
:103270000B2EBA2FA02D0B01B90190010C01CA0130
:10328000A0011124FF27591B99F0593F50F4503EDB
:1032900068F11A16F040A22F232F342F4427585FCD
:1032A000F3CF469537952795A795F0405395C9F7E5
:1032B0007EF41F16BA0B620B730B840BBAF091509D
:1032C000A1F0FF0FBB1F661F771F881FC2F70EC03C
:1032D000BA0F621F731F841F48F48795779567950F
:1032E000B795F7959E3F08F0B0CF9395880F08F0FB
:1032F0009927EE0F9795879508950E946C1A08F408
:1033000081E008950E94A91AE3950C94E31A0E94A3
:103310009B190C94D21A0E94A01A58F00E94991A74
:1033200040F029F45F3F29F00C94901A51110C944D
:103330001A1B0C94961A0E94F71A68F39923B1F39A
:10334000552391F3951B550BBB27AA2762177307CB
:10335000840738F09F5F5F4F220F331F441FAA1F5F
:10336000A9F335D00E2E3AF0E0E832D0915050401B
:10337000E695001CCAF72BD0FE2F29D0660F771FC9
:10338000881FBB1F261737074807AB07B0E809F0AF
:10339000BB0B802DBF01FF2793585F4F3AF09E3F34
:1033A000510578F00C94901A0C941A1B5F3FE4F3CB
:1033B000983ED4F3869577956795B795F7959F5F77
:1033C000C9F7880F911D9695879597F90895E1E0C3
:1033D000660F771F881FBB1F621773078407BA0722
:1033E00020F0621B730B840BBA0BEE1F88F7E0957D
:1033F00008950E94001A6894B1110C941A1B089544
:103400000E94FF1A88F09F5798F0B92F9927B7515B
:10341000B0F0E1F0660F771F881F991F1AF0BA9578
:10342000C9F714C0B13091F00E94191BB1E00895A2
:103430000C94191B672F782F8827B85F39F0B93F94
:10344000CCF3869577956795B395D9F73EF490952B
:103450008095709561957F4F8F4F9F4F0895E894A9
:1034600009C097FB3EF490958095709561957F4FCC
:103470008F4F9F4F9923A9F0F92F96E9BB2793957A
:10348000F695879577956795B795F111F8CFFAF48A
:10349000BB0F11F460FF1BC06F5F7F4F8F4F9F4FBB
:1034A00016C0882311F096E911C0772321F09EE819
:1034B000872F762F05C0662371F096E8862F70E07F
:1034C00060E02AF09A95660F771F881FDAF7880F59
:1034D0009695879597F90895990F0008550FAA0BAF
:1034E000E0E8FEEF16161706E807F907C0F0121617
:1034F0001306E407F50798F0621B730B840B950B1A
:1035000039F40A2661F0232B242B252B21F408956E
:103510000A2609F4A140A6958FEF811D811D08950B
:1035200097F99F6780E870E060E008959FEF80EC76
:10353000089500240A941616170618060906089519
:1035400000240A94121613061406050608950C9416
:10355000961A0E94FF1AD8F3E894E0E0BB279F5721
:10356000F0F02AED3FE049EC06C0EE0FBB0F661FFE
:10357000771F881F28F0B23A62077307840728F084
:10358000B25A620B730B840BE3959A9572F78038ED
:1035900030F49A95BB0F661F771F881FD2F79048AB
:1035A0000C94DA1B092E0394000C11F4882352F0BA
:1035B000BB0F40F4BF2B11F460FF04C06F5F7F4F5F
:1035C0008F4F9F4F0895EF93E0FF07C0A2EA2AEDC7
:1035D0003FE049EC5FEB0E9428190E94D21A0F903D
:1035E000039401FC9058E8E6F0E00C94ED1B57FDC5
:1035F0009058440F551F59F05F3F71F04795880F61
:1036000097FB991F61F09F3F79F0879508951216F7
:1036100013061406551FF2CF4695F1DF08C01616A3
:1036200017061806991FF1CF869571056105089454
:103630000895E894BB2766277727CB0197F908956B
:103640000E946C1A08F48FEF08950E94381B0C94A6
:10365000D21A0E94991A38F00E94A01A20F09523DD
:1036600011F00C94901A0C94961A11240C941A1BB5
:103670000E94F71A70F3959FC1F3950F50E0551F04
:10368000629FF001729FBB27F00DB11D639FAA27B7
:10369000F00DB11DAA1F649F6627B00DA11D661F06
:1036A000829F2227B00DA11D621F739FB00DA11D27
:1036B000621F839FA00D611D221F749F3327A00DE1
:1036C000611D231F849F600D211D822F762F6A2F7D
:1036D00011249F5750409AF0F1F088234AF0EE0FE2
:1036E000FF1FBB1F661F771F881F91505040A9F70F
:1036F0009E3F510580F00C94901A0C941A1B5F3F6A
:10370000E4F3983ED4F3869577956795B795F7954A
:10371000E7959F5FC1F7FE2B880F911D96958795C2
:1037200097F9089519F416F40C94961A0C94D81B72
:103730000E94FF1AB8F39923C9F3B6F39F57550BAC
:1037400087FF0E94E61B0024A0E640EA9001805813
:103750005695979528F4805C660F771F881F20F098
:1037600026173707480730F4621B730B840B202998
:1037700031294A2BA69517940794202531254A27ED
:1037800058F7660F771F881F20F02617370748075E
:1037900030F4620B730B840B200D311D411DA0957D
:1037A00081F7B901842F9158880F969587950895D0
:1037B0009F3F31F0915020F4879577956795B795A5
:1037C000880F911D9695879597F9089591505040CF
:1037D000660F771F881FD2F708959F938F937F936B
:1037E0006F93FF93EF939B01AC010E94251BEF9118
:1037F000FF910E94011C2F913F914F915F910C947A
:10380000251BDF93CF931F930F93FF92EF92DF92CD
:103810007B018C01689406C0DA2EEF010E94381BF0
:10382000FE01E894A5912591359145915591A6F316
:10383000EF010E942819FE019701A801DA9469F7A7
:10384000DF90EF90FF900F911F91CF91DF9108953E
:1038500097FB072E16F4009407D077FD09D00E943D
:103860003C1C07FC05D03EF4909581959F4F089530
:10387000709561957F4F0895AA1BBB1B51E107C04E
:10388000AA1FBB1FA617B70710F0A61BB70B881FF0
:10389000991F5A95A9F780959095BC01CD0108957F
:1038A000EE0FFF1F0590F491E02D0994F894FFCFDF
:1038B000C5E40701FF1CC7F1BF89279C40932F4631
:1038C0004268848DC2DDA417C1D56DB63FADE91342
:1038D00042AE782EC1060502030407080900000065
:1038E00001010101010101010101000000000000CE
:1038F00001010101000100010001000000000306B8
:103900000A0D100003060A0D10000000004905A969
:1039100004D604B1050705E504F904000000007EA3
:10392000075107CE0927074A07370728070D0A005E
:103930000A63616E6E6F7420636F6D6D756E69637F
:1039400061746520746F206B65797061642E0A0064
:103950004F62667573636174696F6E206973206965
:103960006E76616C69642E20506C656173652063AE
:103970006F6E74616374206368616C6C656E6765FB
:103980002061646D696E6973747261746F722E0068
:00000001FF
