:100000000C945A010C9482010C9482010C9482018C
:100010000C9482010C9482010C9482010C947F0C4C
:100020000C9482010C9482010C9482010C94820144
:100030000C9482010C9482010C9482010C94820134
:100040000C94350C0C9482010C94010D0C94DB0C77
:100050000C9482010C9482010C9482010C94820114
:100060000C94330D0C9482012F2A2A2A2A2A2A2A38
:100070002A2A2A2A2A2A2A2A2A2A2A2A2A2A2A2AE0
:100080002A2A2A2A2A2A2A2A2A2A2A2A2A2A2A2AD0
:100090002A2A2A2A2A2A2A2A2A2A2A2A2A2A2A2AC0
:1000A0002A2A2A2A2A2A2A2A2A2A2A2A2A2A2A2AB0
:1000B0002A2F002F2A2A2A2A2A2A2A2A2A2A2A2AC0
:1000C0002A2A2A2A2A2A2A2A2020594F55204245FC
:1000D000415420544845204348414C4C454E4745E7
:1000E0002121212020202A2A2A2A2A2A2A2A2A2AA9
:1000F0002A2A2A2A2A2A2A2A2A2A2F002F2A2A2A80
:100100002A2A2A2A2A2A2A2A2A2A2A2A2A2A2A2A4F
:100110002A20202020202020202020436F6E67727C
:100120006174732121212020202020202020202ADA
:100130002A2A2A2A2A2A2A2A2A2A2A2A2A2A2A2A1F
:100140002A2A2A2F00506C61636520746865206636
:100150006F6C6C6F77696E6720666C616720696E83
:1001600020796F7572207265706F7274004D6F74B4
:100170006F72206D6F76656D656E742053554343C5
:100180004553532E20536E61636B20776173206457
:10019000697370656E73656420666F722024322EF9
:1001A00020496E7365727420616E6F746865722089
:1001B00063726564697420666F722061206E657772
:1001C00020736E61636B2E002F35004D6F746F725C
:1001D000204572726F722035393032205265706F4F
:1001E000727465642E20536C69676874206275743C
:1001F000206E6F74207369676E69666967616E74DB
:10020000206D6F746F72206D6F76656D656E7420F2
:1002100064657465637465642E2052657472792018
:10022000417474656D70742000416674657220635A
:1002300072656469742069732072656369657665A7
:10024000722C2073656E6420224552522220746FF6
:10025000206A616D20746865206D6F746F72732EF3
:100260000000000008000201000003040700000075
:1002700000000000000200000000250028002B0004
:1002800000000000240027002A00040404040404E1
:100290000404020202020202030303030303010235
:1002A0000408102040800102040810200102040804
:1002B0001020520E11241FBECFEFD8E0DEBFCDBFFD
:1002C00011E0A0E0B1E0ECE7FFE202C005900D9282
:1002D000AA3DB107D9F723E0AAEDB1E001C01D9214
:1002E000A739B207E1F711E0CAE5D1E004C02197D0
:1002F000FE010E94C415C935D107C9F70E94AD0E91
:100300000C94BC170C94000090E0FC01E256FD4FE9
:10031000249186579D4FFC018491882399F090E0A9
:10032000880F991FFC01E058FD4FA591B491FC0185
:10033000EA58FD4F859194918FB7F894EC91E22B98
:10034000EC938FBF0895CF92DF92EF92FF92CF93FD
:100350006C01809100018A3049F08F3F09F44EC052
:10036000CF91FF90EF90DF90CF900895E5E7F2E016
:10037000C491C7FDF5CF8AE00E948401CC2319F017
:10038000C23009F0D8C0F12CE12C68E478EE81E0AD
:1003900090E0A70196010E945A14BA01A9014150A8
:1003A000510961097109CC2309F405C1C23009F072
:1003B00093C04F3F51056105710509F00CF4B9C0B8
:1003C00064E274EF80E090E0A70196010E945A1465
:1003D000BA01A901415051096109710995E0809163
:1003E000B100887F892B8093B100C13009F4BBC074
:1003F000C23009F4CDC0C111B3CF89C08AE0809367
:100400000001E5E7F2E0C491CF3F09F4A9CFC13084
:1004100019F148F0C23009F43DC0C7FDA1CF8AE010
:100420000E948401ADCF14BC15BC84B5826084BD2C
:1004300085B5816085BDE4E9F2E0E491F0E0EE0F7E
:10044000FF1FEA58FD4F85919491E8EAF2E0E491AC
:10045000E0935202C0E08FCF109280001092810092
:10046000809181008860809381008091810081600B
:1004700080938100E4E9F2E0E491F0E0EE0FFF1FE9
:10048000EA58FD4F85919491E8EAF2E0E491E09317
:10049000510271CF1092B0001092B1008091B00063
:1004A00082608093B0008091B10081608093B10040
:1004B000E4E9F2E0E491F0E0EE0FFF1FEA58FD4FAF
:1004C000859194919093500280934F02E8EAF2E074
:1004D000E491E0934E024FCF4F3F51056105710506
:1004E00041F13CF162E17AE780E090E0A7019601FA
:1004F0000E945A14BA01A9014150510961097109B8
:10050000C11162C094E085B5887F892B85BD47BD48
:100510008FEF9FEFDC0180935B0290935C02A093CE
:100520005D02B0935E0280916E00826080936E00E7
:1005300017CF94E054CF960150E040E060E072E1C4
:100540008AE790E00E945A14BA01A901415051096A
:1005500061097109C13009F048CF80918100887F1D
:1005600081608093810050938900409388008FEFD1
:100570009FEFDC018093570290935802A093590299
:10058000B0935A0280916F00826080936F00E8CE32
:100590004093B3008FEF9FEFDC0180935302909361
:1005A0005402A0935502B09356028091700082606D
:1005B00080937000D5CE93E04F3F510561057105E2
:1005C00011F00CF08FCF9FCF96E009CF90E0FC01A7
:1005D000EF59FD4F2491FC01E256FD4F3491FC018F
:1005E000E657FD4FE491EE23C9F0222339F0233082
:1005F00001F1A8F4213019F1223029F1F0E0EE0FD9
:10060000FF1FEA58FD4FA591B4918FB7F894EC9174
:10061000611126C030953E233C938FBF089527304B
:10062000A9F02830C9F0243049F7809180008F7DEF
:1006300003C0809180008F7780938000DFCF84B5E6
:100640008F7784BDDBCF84B58F7DFBCF8091B000E9
:100650008F778093B000D2CF8091B0008F7DF9CF9B
:100660003E2BDACF3FB7F894809146029091470233
:10067000A0914802B091490226B5A89B05C02F3F22
:1006800019F00196A11DB11D3FBFBA2FA92F982FB8
:100690008827BC01CD01620F711D811D911D42E0B3
:1006A000660F771F881F991F4A95D1F708958F927B
:1006B0009F92AF92BF92CF92DF92EF92FF926B0127
:1006C0007C010E9432034B015C01C114D104E1049E
:1006D000F104B9F00E943203681979098A099B096B
:1006E000683E73408105910580F321E0C21AD1086C
:1006F000E108F10888EE880E83E0981EA11CB11C69
:10070000E4CFFF90EF90DF90CF90BF90AF909F909D
:100710008F90089508950895089590910001891388
:100720000BC0E5E7F2E0E4919FEF90930001E13028
:1007300049F028F0E23061F060E00C94E60210929B
:100740006E00FACF90916F009D7F90936F00F4CF71
:10075000909170009D7F9093700091E09093B00015
:100760009091B100987F94609093B1001092B30083
:10077000E3CFAF92BF92CF92DF92EF92FF920F93AF
:100780001F93CF93DF936C017B018B01040F151F27
:10079000EB015E01AE18BF08C017D10759F069918F
:1007A000D601ED91FC910190F081E02DC6010995F3
:1007B000892B79F7C501DF91CF911F910F91FF90A0
:1007C000EF90DF90CF90BF90AF900895FC01538DD4
:1007D000448D252F30E0842F90E0821B930B54171B
:1007E00010F0CF96089501970895FC01918D828DA8
:1007F000981761F0A28DAE0FBF2FB11D5D968C9141
:10080000928D9F5F9F73928F90E008958FEF9FEF7F
:1008100008952FB7F89480914A0290914B02A091CD
:100820004C02B0914D022FBF8093C0029093C10241
:10083000A093C202B093C30288EB92E00E94F5033A
:1008400097FF26C02FB7F89480914A0290914B02EF
:10085000A0914C02B0914D022FBF4091C002509127
:10086000C1026091C2027091C302841B950BA60B5A
:10087000B70B4091BC025091BD026091BE027091D5
:10088000BF0284179507A607B707B0F28FEF9FEF57
:100890000895FC01918D828D981731F0828DE80FBB
:1008A000F11D858D90E008958FEF9FEF0895FC0175
:1008B000918D228D892F90E0805C9F4F821B910942
:1008C0008F739927089588EB92E00E94570421E0E6
:1008D000892B09F420E0822F089580E090E0892B95
:1008E00029F00E94630481110C9400000895FC011A
:1008F000A48DA80FB92FB11DA35ABF4F2C91848D81
:1009000090E001968F739927848FA689B7892C93DD
:10091000A089B1898C91837080648C93938D848D30
:10092000981306C00288F389E02D80818F7D808333
:100930000895EF92FF920F931F93CF93DF93EC01F3
:1009400081E0888F9B8D8C8D98131AC0E889F98976
:10095000808185FF15C09FB7F894EE89FF89608379
:10096000E889F98980818370806480839FBF81E0FA
:1009700090E0DF91CF911F910F91FF90EF9008953C
:10098000F62E0B8D10E00F5F1F4F0F731127E02E17
:100990008C8D8E110CC00FB607FCFACFE889F9894F
:1009A000808185FFF5CFCE010E947704F1CFEB8DDA
:1009B000EC0FFD2FF11DE35AFF4FF0829FB7F89423
:1009C0000B8FEA89FB8980818062CFCF0F931F93C1
:1009D000CF93DF938C01D0E0C0E0F801EC0FFD1F56
:1009E0006491662341F088EB92E00E949904892B80
:1009F00011F02196F2CFCE01DF91CF911F910F918F
:100A00000895CF93DF93EC01888D8823B9F0AA89EC
:100A1000BB89E889F9898C9185FD03C0808186FDB9
:100A20000DC00FB607FCF7CF8C9185FFF2CF808108
:100A300085FFEDCFCE010E947704E9CFDF91CF9102
:100A400008952091FB01260F3327331F21323105F2
:100A5000ECF420918E02FC0190E080E0243069F0FB
:100A600082E00895A091FB012191AC0145525E4FB7
:100A7000A40FB52FB11D2C930196861798F3809182
:100A8000FB01680F6093FB0180E0089581E0089509
:100A900010928E0281E080938D021092680261E0D4
:100AA00082E10E94E60261E083E10E94E602E9EB56
:100AB000F0E080818E7F808380818D7F808388E4D9
:100AC0008093B80085E48093BC000895CF93DF93B2
:100AD00091E09093DA018823B9F0C091B800D091E9
:100AE000BA008091BC008A7B8093BC0060E082E108
:100AF0000E94E60260E083E10E94E6020E9448054F
:100B0000D093BA00C093B800DF91CF9108958F922F
:100B10009F92AF92BF92CF92DF92EF92FF920F938C
:100B20001F93CF93DF93D091B702D13208F0D7C093
:100B3000182FC091B6020E9432036B017C01809194
:100B40008E0281116BC082E080938E0210938D0221
:100B50008FEF80938C0210928B02D0938A02A6E9C9
:100B6000B2E0EAE6F2E080E0D81391C010926902A8
:100B700080916902CC0FC82BC093690280916802F2
:100B8000813009F088C0109268020E9432036B0124
:100B90007C01809169028093BB00809190029091CA
:100BA0009102A0919202B0919302892B8A2B8B2BF8
:100BB000A1F00E94320300919002109191022091C5
:100BC0009202309193026C197D098E099F090617D4
:100BD00017072807390708F442C08091BC0083FD3D
:100BE000D8CF85EC8093BC000E9432036B017C015E
:100BF00080918E02823009F450C080918C028F3F28
:100C000009F46FC080918C02803209F46CC080912D
:100C10008C02803309F469C084E026C08091900280
:100C200090919102A0919202B0919302892B8A2B0C
:100C30008B2B09F484CF0E94320380909002909015
:100C40009102A0909202B09093026C197D098E09D6
:100C50009F0986169706A806B90608F070CF8091FE
:100C60008F020E94660585E0109295021092B702ED
:100C700010929402DF91CF911F910F91FF90EF900E
:100C8000DF90CF90BF90AF909F908F9008959D91EF
:100C900091938F5F69CF85EEA5CF8091900290915F
:100CA0009102A0919202B0919302892B8A2B8B2BF7
:100CB00009F49ECF0E94320300919002109191029C
:100CC00020919202309193026C197D098E099F093F
:100CD000061717072807390708F08ACFC0CF81E029
:100CE000C3CF80E0C1CF82E0BFCF83E0BDCF089506
:100CF000E091430280914202E81730F4F0E0E25EB6
:100D0000FD4F808190E008958FEF9FEF08959091BF
:100D10004302809142022FEF3FEF981748F4E92FEA
:100D2000F0E0E25EFD4F208130E09F5F9093430250
:100D3000C90108958091420290914302891B990B49
:100D40000895CF92DF92EF92FF920F931F93CF936C
:100D5000DF937C01CB018A0120919402222389F048
:100D6000EB016B01C40ED51ECC15DD0569F0699150
:100D7000D701ED91FC910190F081E02DC70109951B
:100D8000F3CF642F0E942105C801DF91CF911F91FD
:100D90000F91FF90EF90DF90CF900895CF93DF9366
:100DA0001F92CDB7DEB76983209194022223F9F018
:100DB0002091B702203258F021E030E0FC0133836B
:100DC000228390E080E00F90DF91CF910895809191
:100DD0009502E82FF0E0EA56FD4F998190838F5FEE
:100DE000809395028093B70281E090E0ECCF61E0C0
:100DF000CE0101960E942105F7CF90E080E0089592
:100E0000FC0101900020E9F73197AF01481B590B15
:100E1000BC0188EB92E00C94B9038DE591E00C9451
:100E20000007CF93DF930E94E604EC010E940D07B8
:100E30008C0F9D1FDF91CF910895CF93DF930E9478
:100E40000007EC010E940D078C0F9D1FDF91CF91D1
:100E500008952F923F924F925F926F927F928F925E
:100E60009F92AF92BF92CF92DF92EF92FF920F9339
:100E70001F93CF93DF93CDB7DEB7C659D1400FB6DE
:100E8000F894DEBF0FBECDBFCF57DE4F9983888366
:100E9000C158D140CDB6DEB6CD57DE4FD982C8821B
:100EA000C358D14081E093E2A5E4B7E6CF59DE4FC5
:100EB00088839983AA83BB83C156D14089E89BEA82
:100EC000ADECBFEECB59DE4F88839983AA83BB83F9
:100ED000C556D1408EEF9CEDAAEBB8E9C759DE4F5D
:100EE00088839983AA83BB83C956D14086E794E55A
:100EF000A2E3B0E1C359DE4F88839983AA83BB8301
:100F0000CD56D14080EF91EEA2EDB3ECCF58DE4F3D
:100F100088839983AA83BB83C157D1402DB73EB73D
:100F2000205431090FB6F8943EBF0FBE2DBFEDB768
:100F3000FEB731968DB79EB78F5B9F4FDF011D9235
:100F40001D921D921D928A179B07C9F72091680375
:100F50008091690390E0B0E0A0E0DC019927882748
:100F6000B22B90684081518162817381842B952BD3
:100F7000A62BB72B80839183A283B38380E190E07B
:100F8000A0E0B0E084AF95AFA6AFB7AFAE014F5FC2
:100F90005F4F80E491E0DA019C011D9221503040C6
:100FA000E1F7C558DE4F59834883CB57D140C3572B
:100FB000DE4FF983E883CD58D1401E013FE3231A69
:100FC000310840EF51EE62ED73ECC358DE4F4883B9
:100FD00059836A837B83CD57D14061E073E285E416
:100FE00097E6C958DE4F688379838A839B83C75706
:100FF000D14049E8442E4BEA542E4DEC642E4FEE7E
:10100000742E06E714E522E330E15EEF852E5CEDF9
:10101000952E5AEBA52E58E9B52ECB58DE4F1882E7
:10102000C557D140CB58DE4F7881C557D14070317C
:1010300008F061C2C357DE4FE881F981CD58D14035
:1010400080819181A281B381C558DE4FE881F98109
:10105000CB57D14080839183A283B383B501A40190
:101060004027512762277327442155216621772184
:101070006A017B01C026D126E226F326CD56DE4F3B
:10108000C882D982EA82FB82C359D14089E9C82E3D
:1010900089E7D82E82E8E82E8AE5F82EC558DE4F7B
:1010A000A881B981CB57D1404D915D916D917D91D2
:1010B000C558DE4FB983A883CB57D140CB57DE4FFD
:1010C000488359836A837B83C558D140C958DE4F12
:1010D000488159816A817B81C757D140EBE1769580
:1010E000679557954795EA95D1F7C757DE4F4883DF
:1010F00059836A837B83C958D140C958DE4F6881C0
:1011000079818A819B81C757D140F5E0660F771FAF
:10111000881F991FFA95D1F7DC01CB01C757DE4F25
:10112000488159816A817B81C958D140842B952B94
:10113000A62BB72BCB57DE4F488159816A817B8123
:10114000C558D140840F951FA61FB71FCB57DE4F40
:1011500088839983AA83BB83C558D140CD56DE4F7F
:10116000488159816A817B81C359D140840F951F81
:10117000A61FB71F8C0D9D1DAE1DBF1DC358DE4F92
:10118000C880D980EA80FB80CD57D140C80ED91ED7
:10119000EA1EFB1ED301C20142E0B695A7959795C2
:1011A00087954A95D1F7B301A201EEE1440F551F8F
:1011B000661F771FEA95D1F7482B592B6A2B7B2B9B
:1011C000CB58DE4F8881C557D1408F5FCB58DE4F5B
:1011D0008883C557D140C357DE4FA881B981CD5808
:1011E000D1401496C357DE4FB983A883CD58D14060
:1011F000B4E02B0E311CC958DE4F488059806A80FC
:101200007B80C757D140C358DE4F088319832A8398
:101210003B83CD57D140803509F060C1EFEFCE1A46
:10122000ECEDDE0AEAEBEE0AE8E9FE0ACF59DE4F02
:10123000C882D982EA82FB82C156D140D301C20161
:1012400087579445A243B041CB59DE4F8883998399
:10125000AA83BB83C556D1402A013B01F2E04F1A55
:10126000F3E25F0AF5E46F0AF7E67F0AC759DE4F3B
:10127000488259826A827B82C956D140D501C40115
:101280008A589B4AAD4CBF4EC359DE4F8883998321
:10129000AA83BB83CD56D14000511E412D423C4311
:1012A000CF58DE4F088319832A833B83C157D1402F
:1012B000CD57DE4FC880D980C358D1400FB6F894BF
:1012C000DEBE0FBECDBEFE01EF59FE4F9F012C5E6C
:1012D0003F4F80E090E0DC0141915191619171912B
:1012E00084279527A627B7272E173F07A9F78B3DF9
:1012F0009748AA4BB84021F080E691E00E941D0774
:10130000AE014F5F5F4F6A018A01F0E0E0E024E147
:10131000822E912C30E020E05F01A20EB31E7901F5
:10132000EE0CFF1CE00EF11EC501B4010E949C15DD
:10133000A1E6B1E0AC0FBD1FA80FB91F4C91AA9C4C
:10134000C001AB9C900D900D1124840F911DD7010D
:101350008D939C932F5F3F4F28303105E9F63896E7
:10136000005F1F4FE034F105A9F68E010F5B1E4FA1
:10137000F801B096C958DE4FF983E883C757D140CA
:101380007801CF57DE4F28813981C158D140205E86
:101390003F4FC558DE4F39832883CB57D140D70103
:1013A0001D921D921D921D927D01CF57DE4F288008
:1013B0003980C158D140CB58DE4FD982C882C55739
:1013C000D140412C512C3201CB58DE4FA881B9813C
:1013D000C557D1406D917D91CB58DE4FB983A8831D
:1013E000C557D140F10181909190A190B1901F011A
:1013F000072E000C880B990B0E943D13A501940148
:101400000E949C139B01AC01C301B2010E94F51420
:101410002B013C01C558DE4F28813981CB57D14083
:101420002215330589F6F701349740825182628292
:101430007382B0E1CB0ED11CC958DE4FE881F9812F
:10144000C757D140EE15FF0509F0A9CF8FE5C82E8B
:1014500082E0D82ED8018D909D90AD90BD908D01E9
:1014600020E030E0A901C501B4010E94971520E0F9
:1014700030E040E05FE387FDE4C0C501B4010E94B5
:10148000F5140E946115F60161936F01E016F106F3
:1014900009F7CD57DE4FC880D980C358D1400FB669
:1014A000F894DEBE0FBECDBECA56DE4F0FB6F8941E
:1014B000DEBF0FBECDBFDF91CF911F910F91FF9087
:1014C000EF90DF90CF90BF90AF909F908F907F90E4
:1014D0006F905F904F903F902F900895C958DE4FC6
:1014E000C882D982EA82FB82C757D1409501840124
:1014F0004A015B0197CDD101D4964D915D916D91DB
:101500007C91D79790968D919D910D90BC91A02D37
:1015100084279527A627B727F10140855185628545
:10152000738584279527A627B7274081518162813B
:10153000738184279527A627B727880F991FAA1F8D
:10154000BB1F811DC558DE4FE881F981CB57D140C3
:1015500080839183A283B383CB58DE4FF881C55734
:10156000D140F43108F47ACDCB58DE4F4881C557CD
:10157000D1404832E8F4B501A40140275127622741
:101580007327DB01CA0184259525A625B725CD56ED
:10159000DE4F88839983AA83BB83C359D140B1EAC4
:1015A000CB2EBBEEDB2EB9EDEB2EBEE6FB2E76CDC1
:1015B000CB58DE4F9881C557D140B501A4019C336B
:1015C00028F5402B512B622B732B4421552166218A
:1015D0007721D501C40180239123A223B3236A017B
:1015E0007B01C82AD92AEA2AFB2ACD56DE4FC882B7
:1015F000D982EA82FB82C359D140ACEDCA2EACEB52
:10160000DA2EABE1EA2EAFE8FA2E48CD402751277B
:1016100062277327DB01CA0184259525A625B725F6
:10162000CD56DE4F88839983AA83BB83C359D140AB
:10163000F6EDCF2EF1ECDF2EF2E6EF2EFAECFF2ED8
:101640002DCDC501B4010E94F4141BCF0F931F933D
:10165000CF93DF938C01EB01FC0180819181009796
:10166000E1F06881798161157105A9F042815381AA
:101670002C813D814217530770F00E94B5178C8171
:101680009D81F801958384831D821C82DF91CF9117
:101690001F910F9108950E94661688819981F80123
:1016A000918380838A819B81938382838C819D81B6
:1016B00095838483198218821B821A82E5CFFC01EC
:1016C00080819181009711F00C94661608950F9314
:1016D0001F93CF93DF93EC0188819981009759F094
:1016E0002A813B812617370730F081E0DF91CF91C7
:1016F0001F910F9108958B016F5F7F4F0E94EF162E
:10170000009759F0998388831B830A832C813D813C
:10171000232B59F7FC011082E8CF80E0E7CFEF924E
:10172000FF920F931F93CF93DF93EC017B018A010C
:10173000BA010E94670B28813981811114C02115DB
:10174000310519F0C9010E946616198218821D829E
:101750001C821B821A82CE01DF91CF911F910F91C3
:10176000FF90EF9008951D830C83B701C9010E947B
:10177000B517F1CFEF92FF920F931F93CF93DF93A3
:1017800000D0CDB7DEB78C01FC011182108213822C
:1017900012821582148250E040E06FE571E00E94F1
:1017A0008F0B0E94090497FD1EC089831A82F801DD
:1017B000E480F580FFEFEF1AFF0AB701C8010E942D
:1017C000670B882371F3F801208131818481958131
:1017D000BE016F5F7F4F820F931F0E94B517F80104
:1017E000F582E482DECFC8010F900F90DF91CF9198
:1017F0001F910F91FF90EF90089585ED8093BC00AD
:101800008091900290919102A0919202B0919302E6
:101810000796A11DB11D23E0B695A79597958795CD
:101820002A95D1F72091BC0024FD03C010928E02AE
:1018300008954091900250919102609192027091AE
:101840009302452B462B472B69F30097A105B10561
:1018500041F02AE22A95F1F700C00197A109B109E8
:10186000E1CF80918F020C9466051F920F920FB604
:101870000F9211242F933F938F939F93AF93BF9316
:1018800080914A0290914B02A0914C02B0914D027E
:101890003091450223E0230F2D3758F50196A11D05
:1018A000B11D2093450280934A0290934B02A0936E
:1018B0004C02B0934D028091460290914702A09154
:1018C0004802B09149020196A11DB11D80934602C4
:1018D00090934702A0934802B0934902BF91AF9101
:1018E0009F918F913F912F910F900FBE0F901F905E
:1018F000189526E8230F0296A11DB11DD2CF1F9285
:101900000F920FB60F9211242F933F934F935F9333
:101910006F937F938F939F93AF93BF93EF93FF93B7
:101920008091530290915402A0915502B0915602B9
:10193000892B8A2B8B2BD1F190914E02E0914F0293
:10194000F091500280818927808380915302909189
:101950005402A0915502B0915602181619061A06A3
:101960001B069CF48091530290915402A091550261
:10197000B09156020197A109B10980935302909347
:101980005402A0935502B0935602FF91EF91BF917C
:10199000AF919F918F917F916F915F914F913F9107
:1019A0002F910F900FBE0F901F90189580910001FE
:1019B0000E948D03EACF1F920F920FB60F9211244F
:1019C0002F933F934F935F936F937F938F939F9347
:1019D000AF93BF93EF93FF9388EB92E00E9477045D
:1019E000FF91EF91BF91AF919F918F917F916F91F7
:1019F0005F914F913F912F910F900FBE0F901F90CD
:101A000018951F920F920FB60F9211242F938F9358
:101A10009F93EF93FF93E091C802F091C9028081F8
:101A2000E091CE02F091CF0282FD1BC090818091A7
:101A3000D1028F5F8F732091D202821741F0E09123
:101A4000D102F0E0E854FD4F958F8093D102FF91D1
:101A5000EF919F918F912F910F900FBE0F901F903C
:101A600018958081F4CF1F920F920FB60F92112418
:101A70002F933F934F935F936F937F938F939F9396
:101A8000AF93BF93EF93FF938091B900887F803627
:101A900009F44AC0F0F5883209F4A7C018F580317E
:101AA00009F49BC0B8F4882309F4F9C0883009F41C
:101AB00094C0FF91EF91BF91AF919F918F917F91D2
:101AC0006F915F914F913F912F910F900FBE0F90AB
:101AD0001F901895883109F488C0803251F780939F
:101AE0008C0214C0803409F49DC040F48033B9F3F3
:101AF0008833F9F680938C0285ECB0C0803509F408
:101B000085C0883509F496C0883499F60E94FD0B8B
:101B1000D0CF883909F48CC038F5883729F050F4D3
:101B2000883611F0803729F683E080938E02109278
:101B30001D0257C0883809F47BC0803919F08038FD
:101B400009F0B7CF80911D02803208F071C0E0919A
:101B50001D0281E08E0F80931D028091BB00F0E09A
:101B6000E350FE4F80833DC0803B39F0E0F4803A83
:101B700009F479C0883A09F09CCF84E080938E0202
:101B80001092FC011092FB01E0913E02F0913F02A5
:101B900009958091FB0181110FC081E08093FB01C9
:101BA0001092DB0109C0803C09F4A6CF883C09F4FF
:101BB000A3CF883B09F07DCFE091FC0181E08E0F3F
:101BC0008093FC01F0E0E552FE4F80818093BB00E2
:101BD0009091FC018091FB0129C080916902809362
:101BE000BB0085EC8093BC0064CF90918B02809108
:101BF0008A02981758F5E0918B0281E08E0F80934E
:101C00008B02F0E0E659FD4F8081E9CFE0918B0235
:101C100081E08E0F80938B028091BB00F0E0E6594B
:101C2000FD4F808390918B0280918A029817C8F2B1
:101C300085E8D8CFE0918B0281E08E0F80938B02F4
:101C40008091BB00F0E0E659FD4F808380918D02CA
:101C500081115CCF81E08093680284EA8093BC00AC
:101C600010928E0226CF85EC8093BC0010928E02DB
:101C700080911D02803230F4E0911D02F0E0E350CB
:101C8000FE4F108260911D0270E0E0914002F091E1
:101C900041028DEF91E0099510921D020ACF10923A
:101CA0008C0234CFE8EBF2E01382128248EE53E06C
:101CB00060E070E044835583668377838DE391E031
:101CC0009183808385EC90E09587848784EC90E015
:101CD0009787868780EC90E0918B808B81EC90E0F9
:101CE000938B828B82EC90E0958B848B86EC90E0DA
:101CF000978B868B118E128E138E148EA5E5B3E012
:101D000013961C921E92129714964D935D936D93A9
:101D10007C9317978FE491E011969C938E93E8E65D
:101D2000F3E080ED97E097A386A311A610A612A674
:101D3000178A118E12A213A214A215A21482158260
:101D4000E1E6F3E01682158280E1818380E2808300
:101D5000B483A3838CE282830895CF93DF93CDB7BE
:101D6000DEB7AA970FB6F894DEBF0FBECDBF78944A
:101D700084B5826084BD84B5816084BD85B5826090
:101D800085BD85B5816085BD80916E008160809341
:101D90006E001092810080918100826080938100AA
:101DA00080918100816080938100809180008160BA
:101DB000809380008091B10084608093B100809115
:101DC000B00081608093B00080917A00846080933D
:101DD0007A0080917A00826080937A0080917A0004
:101DE000816080937A0080917A00806880937A0085
:101DF0001092C10080E2E1E1F1E0DE011196019074
:101E00000D928A95E1F7E091C802F091C90282E053
:101E10008083E091C402F091C5021082E091C60275
:101E2000F091C70280E180831092D002E091CC0251
:101E3000F091CD0286E08083E091CA02F091CB025E
:101E4000808180618083E091CA02F091CB02808121
:101E500088608083E091CA02F091CB028081806823
:101E60008083E091CA02F091CB0280818F7D8083D4
:101E700088E0E1E3F1E0DE01929601900D928A950F
:101E8000E1F781E080936C0310926D0310926E0372
:101E900080937F0398E0909380031092680380936F
:101EA0006A038093690310926B03FE01B296A7E761
:101EB000B3E0CE018A960E2FFF2E21912D938E171F
:101EC0009F07D9F78AA580936F0310E080917F0365
:101ED000181798F4812F90E09C0128593C4F690114
:101EE000D90117968C910E94840160916903F601D3
:101EF00087810E94E6021F5FE9CF10E08091800396
:101F0000181750F090917F03E2E8F3E080E0981713
:101F1000B1F011928F5FFBCF812F90E09C01285987
:101F20003C4F6901D9011F968C910E9484016091F8
:101F30006B03F60187850E94E6021F5FDFCF10E08A
:101F400080917F03181758F4E12FF0E0E859FC4F17
:101F50006091690387810E94E6021F5FF1CF609163
:101F60006B03809177030E94E60210E0809180036A
:101F7000181758F4E12FF0E0E859FC4F60916B031B
:101F800087850E94E6021F5FF1CF6091690380910F
:101F90006F030E94E60288E097E090938F0380939E
:101FA0008E031092910310929003109292038CE092
:101FB0000E94840160E08CE00E94E6028BE00E94B7
:101FC000840160E08BE00E94E6020E9448058CE0FC
:101FD0008093B80010924302109242021092950230
:101FE0001092B7020E9448058AE893E090933F025E
:101FF00080933E028BE893E09093410280934002ED
:1020000080916403909165032091610331E03093E6
:1020100094022093B602DC01ED91FC910190F081D5
:10202000E02D60EF099581E00E948705182F81114E
:10203000A1C0D09061030E9432032B013C0180912A
:102040008E02811163C081E080938E0280938D02A5
:102050009FEF90938C0210928B0210928A028093D1
:10206000690280916902DD0CD82AD09269028091C0
:102070006802813009F093C0109268020E94320316
:102080002B013C01809169028093BB0080919002FA
:1020900090919102A0919202B0919302892B8A2B88
:1020A0008B2BA1F00E9432038090900290909102BD
:1020B000A0909202B090930264197509860997095D
:1020C00086169706A806B90608F441C08091BC00A0
:1020D00083FDD8CF85EC8093BC000E9432032B0196
:1020E0003C0180918E02813009F45BC080918B02AB
:1020F000811179C080918B02AAE6B2E0EEE1F2E0B4
:10210000181749F19D9191931F5FFACF809190022A
:1021100090919102A0919202B0919302892B8A2B07
:102120008B2B09F48CCF0E94320380909002909008
:102130009102A0909202B0909302641975098609E9
:10214000970986169706A806B90608F078CF8091F9
:102150008F020E9466051092430210934202809102
:10216000640390916503DC01ED91FC910284F38599
:10217000E02D09958091610391E090939402809302
:10218000B602109295021092B70281E00E94870574
:10219000882359F180EA91E00E941D07FFCF85EE68
:1021A0009ACF8091900290919102A0919202B09169
:1021B0009302892B8A2B8B2B09F493CF0E94320335
:1021C0008090900290909102A0909202B090930221
:1021D000641975098609970986169706A806B9062F
:1021E00008F07FCFB4CF81E087CFCE0101960E9467
:1021F000290780915F028F5980935F0210926702D6
:1022000088E690E00E94110780EC91E00E941D0793
:1022100088E690E00E94110780E480937C00809122
:102220007A00806480937A0080917A0086FDFCCFEA
:102230006091780070917900072E000C880B990B43
:10224000611571058105910511F00E94321360E05E
:102250008BE00E94E60222E3422E512C612C712C6D
:1022600030E0232E30E0332E1BA21AA21DA21CA2A6
:102270001FA21EA250E040E06FE571E0802F9F2D6D
:102280000E948F0B89E292E00E94110710E094EF08
:10229000892E99249394A12CB12C6EE170E0669F55
:1022A000C001679F900D900D11248C599F4FBC0168
:1022B00090E080E00E94570388EB92E00E94570470
:1022C000892B79F0CE0101960E94BA0BBE016F5F97
:1022D0007F4F802F9F2D0E94260BCE0101960E94DA
:1022E0005F0B8EA19FA1069708F00EC161E08BE005
:1022F0000E94E602C501B4010E94570344E050E089
:102300006BE071E0802F9F2D0E948F0B88EB92E095
:102310000E945704892B09F4F7C0CE0101960E9450
:10232000BA0BBE016F5F7F4F802F9F2D0E94260B3F
:10233000CE0101960E945F0B8EA19FA18630910570
:1023400008F0E2C0009721F0EAA1FBA1309721F448
:1023500010924402E4E4F2E02081253409F0D4C074
:102360008230910528F0EAA1FBA1309709F0BCC0AA
:1023700010924402E4E4F2E02081223509F0B6C074
:1023800060E08BE00E94E6028BEC91E00E94E604A4
:1023900019A281E3810F88A3CE0180960E940007D5
:1023A00088EC91E00E9411070E94E312A3019201C0
:1023B0000E945A141F5FB2E38B1A9108A108B1085A
:1023C000EAEF8E169104A104B10409F068CF15E07C
:1023D00060E08BE00E94E60268EE73E080E090E04F
:1023E0000E945703153009F06FC00E940D070E942C
:1023F0000D0783EB90E00E94110785E491E00E94B5
:1024000011078FE592E00E941D078CEF90E00E947B
:1024100011070E940D070E940D0784E1C82ED12CE0
:1024200088EB91E00E94A30164E670E080E090E018
:102430000E9457038EEE91E00E94A30164E670E0D3
:1024400080E090E00E9457038BE092E00E94A3019D
:1024500064E670E080E090E00E9457038BE492E035
:102460000E94A30164E670E080E090E00E945703C0
:1024700083E992E00E94A30164E670E080E090E0CE
:102480000E9457038AEB92E00E94A30164E670E089
:1024900080E090E00E94570380E193E00E94A30156
:1024A00064E670E080E090E00E9457038AE00E94BA
:1024B0008D0364E670E080E090E00E945703F1E055
:1024C000CF1AD10809F0ACCF802F9F2D0E945F0B4F
:1024D0002114310409F4C8CE0E946304882309F44E
:1024E000C3CE0E940000C0CE319646CF039720F0A5
:1024F000EAA1FBA13097C9F410924402E4E4F2E0AF
:102500008081823509F43CCF68EE73E080E090E092
:102510000E9457038DE691E00E94110760EA7FE078
:1025200080E090E00E94570353CF3296E9CF8F921C
:102530009F92AF92BF92CF92DF92EF92FF92CF9392
:10254000DF93EC01688179818A819B816115710536
:102550008105910521F464E279ED8BE597E02DE1A9
:1025600033EF41E050E00E945A1449015A019B01A7
:10257000AC01A7EAB1E40E9479146B017C01ACEED6
:10258000B4EFA50194010E948714C60ED71EE81E61
:10259000F91EF7FE06C081E0C81AD108E10880E8FC
:1025A000F80AC882D982EA82FB82C701B6019F7706
:1025B000DF91CF91FF90EF90DF90CF90BF90AF90E1
:1025C0009F908F9008958F929F92AF92BF92CF92DB
:1025D000DF92EF92FF926091010170910201809170
:1025E000030190910401611571058105910521F4A4
:1025F00064E279ED8BE597E02DE133EF41E050E0C7
:102600000E945A1449015A019B01AC01A7EAB1E4A6
:102610000E9479146B017C01ACEEB4EFA50194012A
:102620000E948714C60ED71EE81EF91EF7FE06C0CC
:1026300081E0C81AD108E10880E8F80AC0920101D7
:10264000D0920201E0920301F0920401C701B601A9
:102650009F77FF90EF90DF90CF90BF90AF909F90CB
:102660008F9008956093010170930201809303019C
:10267000909304010895E89409C097FB3EF4909567
:102680008095709561957F4F8F4F9F4F9923A9F04B
:10269000F92F96E9BB279395F695879577956795DA
:1026A000B795F111F8CFFAF4BB0F11F460FF1BC01E
:1026B0006F5F7F4F8F4F9F4F16C0882311F096E9B1
:1026C00011C0772321F09EE8872F762F05C066235F
:1026D00071F096E8862F70E060E02AF09A95660F18
:1026E000771F881FDAF7880F9695879597F90895D1
:1026F000990F0008550FAA0BE0E8FEEF1616170613
:10270000E807F907C0F012161306E407F50798F07A
:10271000621B730B840B950B39F40A2661F0232B93
:10272000242B252B21F408950A2609F4A140A6950F
:102730008FEF811D811D08950E94AF130C9420140A
:102740000E94121438F00E94191420F0952311F001
:102750000C9409140C940F1411240C9454140E941A
:10276000311470F3959FC1F3950F50E0551F629F90
:10277000F001729FBB27F00DB11D639FAA27F00DDA
:10278000B11DAA1F649F6627B00DA11D661F829F01
:102790002227B00DA11D621F739FB00DA11D621FE6
:1027A000839FA00D611D221F749F3327A00D611D03
:1027B000231F849F600D211D822F762F6A2F1124E5
:1027C0009F5750409AF0F1F088234AF0EE0FFF1F18
:1027D000BB1F661F771F881F91505040A9F79E3F6F
:1027E000510580F00C9409140C9454145F3FE4F3E9
:1027F000983ED4F3869577956795B795F795E795C5
:102800009F5FC1F7FE2B880F911D9695879597F9CD
:10281000089597F99F6780E870E060E008959FEF62
:1028200080EC089500240A94161617061806090667
:10283000089500240A941216130614060506089536
:10284000092E0394000C11F4882352F0BB0F40F4BE
:10285000BF2B11F460FF04C06F5F7F4F8F4F9F4FFE
:10286000089557FD9058440F551F59F05F3F71F080
:102870004795880F97FB991F61F09F3F79F08795E7
:102880000895121613061406551FF2CF4695F1DF70
:1028900008C0161617061806991FF1CF8695710500
:1028A000610508940895E894BB2766277727CB0134
:1028B00097F90895052E97FB1EF400940E94711459
:1028C00057FD07D00E94C31407FC03D04EF40C94AC
:1028D000711450954095309521953F4F4F4F5F4F64
:1028E000089590958095709561957F4F8F4F9F4F7C
:1028F00008950E94E514A59F900DB49F900DA49F8C
:10290000800D911D11240895B7FF0C9479140E9435
:102910007914821B930B08952F923F924F925F92EE
:102920006F927F928F929F92AF92BF92CF92DF92DF
:10293000EF92FF920F931F93CF93DF93CDB7DEB744
:10294000CA1BDB0B0FB6F894DEBF0FBECDBF0994D8
:102950002A88398848885F846E847D848C849B842F
:10296000AA84B984C884DF80EE80FD800C811B813D
:10297000AA81B981CE0FD11D0FB6F894DEBF0FBE6C
:10298000CDBFED010895A1E21A2EAA1BBB1BFD01CC
:102990000DC0AA1FBB1FEE1FFF1FA217B307E4073E
:1029A000F50720F0A21BB30BE40BF50B661F771F96
:1029B000881F991F1A9469F7609570958095909576
:1029C0009B01AC01BD01CF010895A29FB001B39F4F
:1029D000C001A39F700D811D1124911DB29F700D28
:1029E000811D1124911D08955058BB27AA270E94CC
:1029F0000C150C9420140E94121438F00E94191423
:102A000020F039F49F3F19F426F40C940F140EF4BF
:102A1000E095E7FB0C940914E92F0E94311458F358
:102A2000BA17620773078407950720F079F4A6F5B3
:102A30000C9453140EF4E0950B2EBA2FA02D0B011D
:102A4000B90190010C01CA01A0011124FF27591BF3
:102A500099F0593F50F4503E68F11A16F040A22FF9
:102A6000232F342F4427585FF3CF4695379527956A
:102A7000A795F0405395C9F77EF41F16BA0B620B69
:102A8000730B840BBAF09150A1F0FF0FBB1F661FB0
:102A9000771F881FC2F70EC0BA0F621F731F841FF3
:102AA00048F4879577956795B795F7959E3F08F019
:102AB000B0CF9395880F08F09927EE0F97958795DB
:102AC00008950E9468156894B1110C9454140895E7
:102AD0000E94391488F09F5798F0B92F9927B75161
:102AE000B0F0E1F0660F771F881F991F1AF0BA95B2
:102AF000C9F714C0B13091F00E945314B1E00895A9
:102B00000C945314672F782F8827B85F39F0B93F9A
:102B1000CCF3869577956795B395D9F73EF4909564
:102B20008095709561957F4F8F4F9F4F08950E94BC
:102B3000781308F48FEF089597FB072E16F400948E
:102B400007D077FD09D00E94B01507FC05D03EF4F0
:102B5000909581959F4F0895709561957F4F089549
:102B6000AA1BBB1B51E107C0AA1FBB1FA617B707B3
:102B700010F0A61BB70B881F991F5A95A9F78095CF
:102B80009095BC01CD010895EE0FFF1F0590F491C3
:102B9000E02D09940F931F93CF93DF93823091051B
:102BA00010F482E090E0E0919503F091960330E01C
:102BB00020E0B0E0A0E0309799F42115310509F448
:102BC0004AC0281B390B24303105D8F58A819B81F6
:102BD0006115710589F1FB0193838283FE0111C0A8
:102BE000408151810281138148175907E0F048174D
:102BF000590799F4109761F012960C931297139657
:102C00001C933296CF01DF91CF911F910F910895C0
:102C10000093950310939603F4CF2115310551F0DD
:102C20004217530738F0A901DB019A01BD01DF010A
:102C3000F801C1CFEF01F9CF9093960380939503EC
:102C4000CDCFFE01E20FF31F819391932250310902
:102C500039832883D7CF2091930330919403232B7A
:102C600041F420910701309108013093940320939F
:102C7000930320910501309106012115310541F49E
:102C80002DB73EB74091090150910A01241B350B25
:102C9000E0919303F0919403E217F307A0F42E1B45
:102CA0003F0B2817390778F0AC014E5F5F4F2417B0
:102CB000350748F04E0F5F1F5093940340939303E2
:102CC000819391939FCFF0E0E0E09CCFCF93DF938F
:102CD0000097E9F0FC01329713821282A0919503CC
:102CE000B0919603ED0130E020E01097A1F420812F
:102CF0003181820F931F2091930330919403281701
:102D0000390709F061C0F0939403E0939303DF91D6
:102D1000CF910895EA01CE17DF07E8F54A815B817C
:102D20009E0141155105B1F7E901FB83EA83499101
:102D30005991C40FD51FEC17FD0761F48081918173
:102D40000296840F951FE90199838883828193817C
:102D50009B838A83F0E0E0E012968D919C9113971B
:102D60000097B9F52D913C911197CD010296820FF4
:102D7000931F20919303309194032817390739F654
:102D8000309751F51092960310929503B0939403E7
:102D9000A0939303BCCFD383C28340815181840F1E
:102DA000951FC817D90761F44E5F5F4F88819981DD
:102DB000480F591F518340838A819B81938382836B
:102DC0002115310509F0B0CFF0939603E0939503F8
:102DD0009ECFFD01DC01C0CF13821282D7CFB0E0BD
:102DE000A0E0E5EFF6E10C948E148C01009751F40D
:102DF000CB010E94CA158C01C801CDB7DEB7E0E156
:102E00000C94AA14FC01E60FF71F9C012250310913
:102E1000E217F30708F49DC0D901CD91DC91119719
:102E2000C617D70798F0C530D10530F3CE01049707
:102E30008617970708F3C61BD70B2297C193D19328
:102E40006D937C93CF010E946616D6CF5B01AC1ABE
:102E5000BD0A4C018C0E9D1EA0919503B091960366
:102E6000512C412CF12CE12C109731F580919303DA
:102E7000909194038815990509F05CC04616570691
:102E800008F058C08091050190910601009741F427
:102E90008DB79EB74091090150910A01841B950B93
:102EA000E817F90708F055C0F0939403E0939303F3
:102EB000F90171836083A0CF8D919C911197129637
:102EC0006C90129713967C901397A815B90559F535
:102ED0006C0142E0C40ED11CCA14DB0420F1AC0129
:102EE0004A195B09DA011296159780F062827382A3
:102EF00051834083D9016D937C93E114F10471F007
:102F0000D7011396FC93EE93129776CF22968C0FEF
:102F10009D1FF90191838083F301EFCFF093960316
:102F2000E093950369CF4816590608F42C017D01FA
:102F3000D3019ACFCB010E94CA157C01009749F0BA
:102F4000AE01B8010E94AC17C8010E946616870145
:102F500053CF10E000E050CFFB01DC0102C0019034
:102F60000D9241505040D8F70895FB01DC010190CB
:0C2F70000D920020E1F70895F894FFCFC7
:102F7C00FF010000000000970380002020202000AB
:102F8C00000AD47ABF7CC10040E30840418C0D900C
:102F9C00C1C29A0CC07F250D3F45701A4123804653
:102FAC00C00605020304070809000000009904B9D3
:102FBC0003E60301055704F503490400000000CEA5
:102FCC0006A106FD0677069A06870678060D0A0006
:102FDC004F62667573636174696F6E2069732069E3
:102FEC006E76616C69642E20506C6561736520632C
:102FFC006F6E74616374206368616C6C656E676579
:10300C002061646D696E6973747261746F722E00E5
:10301C000A63616E6E6F7420636F6D6D756E69639C
:10302C0061746520746F206B65797061642E0A0081
:10303C004368616C6C656E67653A2056656E6465B5
:0A304C00722042656E646572000098
:00000001FF
