:100000000C948C010C94B4010C94B4010C94B401C4
:100010000C94B4010C94B4010C94B4010C94A70F8B
:100020000C94B4010C94B4010C94B4010C94B4017C
:100030000C94B4010C94B4010C94B4010C94B4016C
:100040000C945D0F0C94B4010C9429100C940310C3
:100050000C94B4010C94B4010C94B4010C94B4014C
:100060000C945B100C94B4012F2A2A2A2A2A2A2ADB
:100070002A2A2A2A2A2A2A2A2A2A2A2A2A2A2A2AE0
:100080002A2A2A2A2A2A2A2A2A2A2A2A2A2A2A2AD0
:100090002A2A2A2A2A2A2A2A2A2A2A2A2A2A2A2AC0
:1000A0002A2A2A2A2A2A2A2A2A2A2A2A2A2A2A2AB0
:1000B0002A2F004368616C6C656E67653A20416C5D
:1000C0006C2057686974652050617274790001234F
:1000D000456789ABCDEFFEDCBA9876543210F0E17B
:1000E000D2C32F2A2A2A2A2A2A2A2A2A2A2A2A2A2A
:1000F0002A2A2A2A2A2A2A2020594F5520424541B5
:100100005420544845204348414C4C454E474521D6
:1001100021212020202A2A2A2A2A2A2A2A2A2A2A6F
:100120002A2A2A2A2A2A2A2A2A2F002F2A2A2A2A4F
:100130002A2A2A2A2A2A2A2A2A2A2A2A2A2A2A2A1F
:1001400020202020202020202020436F6E67726115
:1001500074732121212020202020202020202A2AE1
:100160002A2A2A2A2A2A2A2A2A2A2A2A2A2A2A2AEF
:100170002A2A2F00596F752066696E697368656455
:100180002074686973206368616C6C656E676521B3
:1001900021205075742074686520757365726E61D6
:1001A0006D6520616E642031302D6469676974204B
:1001B00070617373776F726420696E20796F7572E6
:1001C000207265706F72742E00506C6561736520CB
:1001D00074727920616761696E0050617373776F23
:1001E00072642053484120646F6573206E6F7420E1
:1001F0006D617463683A0031302D646967697420F9
:100200004D464120636F64652073656E7420746F82
:1002100020796F75722070686F6E652E20456E7440
:1002200065722031302D64696769742050696E20D1
:100230006F6E204B65797061642E00496E76616C3B
:10024000696420757365726E616D652E20506C65F2
:100250006173652074727920616761696E3A004547
:100260006E746572206163636F756E74207573655B
:10027000726E616D6520286F766572207365726994
:10028000616C293A200057656C636F6D65212120F0
:100290004261736564206F6E206F757220726563B2
:1002A0006F7264732C20796F7572206163636F7550
:1002B0006E7420686173206265656E206C6F636187
:1002C0007465642E000000000800020100000304B1
:1002D00007000000000000000002000000002500F0
:1002E00028002B0000000000240027002A0004043E
:1002F00004040404040402020202020203030303CE
:1003000003030102040810204080010204081020A9
:100310000102040810207A1111241FBECFEFD8E08B
:10032000DEBFCDBF11E0A0E0B1E0E0E9F5E302C03F
:1003300005900D92A63DB107D9F724E0A6EDB1E0F6
:1003400001C01D92A334B207E1F711E0CCE8D1E07F
:1003500004C02197FE010E94CE18CB38D107C9F7FF
:100360000E94DD110C94C61A0C94000090E0FC0170
:10037000EE5FFC4F249182519D4FFC0184918823B4
:1003800099F090E0880F991FFC01EC51FD4FA59169
:10039000B491FC01E652FD4F859194918FB7F8948A
:1003A000EC91E22BEC938FBF0895CF92DF92EF9206
:1003B000FF92CF936C01809100018A3049F08F3F0A
:1003C00009F44EC0CF91FF90EF90DF90CF90089549
:1003D000E9EDF2E0C491C7FDF5CF8AE00E94B601D5
:1003E000CC2319F0C23009F0D8C0F12CE12C68E41C
:1003F00078EE81E090E0A70196010E947F17BA0194
:10040000A9014150510961097109CC2309F405C1C1
:10041000C23009F093C04F3F51056105710509F0E5
:100420000CF4B9C064E274EF80E090E0A70196019B
:100430000E947F17BA01A901415051096109710950
:1004400095E08091B100887F892B8093B100C13005
:1004500009F4BBC0C23009F4CDC0C111B3CF89C00B
:100460008AE080930001E9EDF2E0C491CF3F09F406
:10047000A9CFC13019F148F0C23009F43DC0C7FD21
:10048000A1CF8AE00E94B601ADCF14BC15BC84B5E3
:10049000826084BD85B5816085BDE8EFF2E0E491BE
:1004A000F0E0EE0FFF1FE652FD4F85919491ECE0D6
:1004B000F3E0E491E0932C02C0E08FCF1092800033
:1004C00010928100809181008860809381008091EA
:1004D0008100816080938100E8EFF2E0E491F0E038
:1004E000EE0FFF1FE652FD4F85919491ECE0F3E093
:1004F000E491E0932B0271CF1092B0001092B10002
:100500008091B00082608093B0008091B1008160E2
:100510008093B100E8EFF2E0E491F0E0EE0FFF1F0E
:10052000E652FD4F8591949190932A02809329027F
:10053000ECE0F3E0E491E09328024FCF4F3F510508
:100540006105710541F13CF162E17AE780E090E0FC
:10055000A70196010E947F17BA01A90141505109D4
:1005600061097109C11162C094E085B5887F892B4A
:1005700085BD47BD8FEF9FEFDC01809335029093DF
:100580003602A0933702B093380280916E008260E9
:1005900080936E0017CF94E054CF960150E040E076
:1005A00060E072E18AE790E00E947F17BA01A9013A
:1005B0004150510961097109C13009F048CF80915A
:1005C0008100887F816080938100509389004093EF
:1005D00088008FEF9FEFDC0180933102909332020D
:1005E000A0933302B093340280916F0082608093B5
:1005F0006F00E8CE4093B3008FEF9FEFDC01809354
:100600002D0290932E02A0932F02B093300280917E
:100610007000826080937000D5CE93E04F3F51050B
:100620006105710511F00CF08FCF9FCF96E009CFD7
:1006300090E0FC01EB53FD4F2491FC01EE5FFC4F79
:100640003491FC01E251FD4FE491EE23C9F02223E5
:1006500039F0233001F1A8F4213019F1223029F1C9
:10066000F0E0EE0FFF1FE652FD4FA591B4918FB75A
:10067000F894EC91611126C030953E233C938FBFD6
:1006800008952730A9F02830C9F0243049F7809127
:1006900080008F7D03C0809180008F7780938000E1
:1006A000DFCF84B58F7784BDDBCF84B58F7DFBCF63
:1006B0008091B0008F778093B000D2CF8091B0004E
:1006C0008F7DF9CF3E2BDACF3FB7F894809120028F
:1006D00090912102A0912202B091230226B5A89BFD
:1006E00005C02F3F19F00196A11DB11D3FBFBA2FC4
:1006F000A92F982F8827BC01CD01620F711D811D84
:10070000911D42E0660F771F881F991F4A95D1F708
:1007100008958F929F92AF92BF92CF92DF92EF9205
:10072000FF926B017C010E9464034B015C01C114C8
:10073000D104E104F104B9F00E9464036819790955
:100740008A099B09683E73408105910580F321E089
:10075000C21AD108E108F10888EE880E83E0981EDD
:10076000A11CB11CE4CFFF90EF90DF90CF90BF9021
:10077000AF909F908F90089561E08CE00E941803E5
:1007800068E572E080E090E00E94890360E08CE020
:100790000E94180368E572E080E090E00C94890301
:1007A0000895089508959091000189130BC0E9ED13
:1007B000F2E0E4919FEF90930001E13049F028F0DE
:1007C000E23061F060E00C94180310926E00FACFF2
:1007D00090916F009D7F90936F00F4CF9091700087
:1007E0009D7F9093700091E09093B0009091B10044
:1007F000987F94609093B1001092B300E3CFAF92D2
:10080000BF92CF92DF92EF92FF920F931F93CF93FD
:10081000DF936C017B018B01040F151FEB015E015F
:10082000AE18BF08C017D10759F06991D601ED91F4
:10083000FC910190F081E02DC6010995892B79F793
:10084000C501DF91CF911F910F91FF90EF90DF9045
:10085000CF90BF90AF900895FC01538D448D252F0C
:1008600030E0842F90E0821B930B541710F0CF964A
:10087000089501970895FC01918D828D981761F07C
:10088000A28DAE0FBF2FB11D5D968C91928D9F5F93
:100890009F73928F90E008958FEF9FEF08952FB789
:1008A000F8948091240290912502A0912602B091A3
:1008B00027022FBF8093BB029093BC02A093BD027E
:1008C000B093BE0283EB92E00E943B0497FF26C0E8
:1008D0002FB7F8948091240290912502A0912602CE
:1008E000B09127022FBF4091BB025091BC02609192
:1008F000BD027091BE02841B950BA60BB70B4091F5
:10090000B7025091B8026091B9027091BA0284178F
:100910009507A607B707B0F28FEF9FEF0895FC0188
:10092000918D828D981731F0828DE80FF11D858DA4
:1009300090E008958FEF9FEF0895FC01918D228D37
:10094000892F90E0805C9F4F821B91098F739927BC
:10095000089583EB92E00E949D0421E0892B09F425
:1009600020E0822F089580E090E0892B29F00E94FA
:10097000A90481110C9400000895FC01A48DA80F16
:10098000B92FB11DA35ABF4F2C91848D90E00196D1
:100990008F739927848FA689B7892C93A089B189F1
:1009A0008C91837080648C93938D848D981306C092
:1009B0000288F389E02D80818F7D80830895EF92F6
:1009C000FF920F931F93CF93DF93EC0181E0888F09
:1009D0009B8D8C8D98131AC0E889F989808185FFD9
:1009E00015C09FB7F894EE89FF896083E889F9897B
:1009F00080818370806480839FBF81E090E0DF917D
:100A0000CF911F910F91FF90EF900895F62E0B8DCF
:100A100010E00F5F1F4F0F731127E02E8C8D8E118A
:100A20000CC00FB607FCFACFE889F989808185FFF1
:100A3000F5CFCE010E94BD04F1CFEB8DEC0FFD2F61
:100A4000F11DE35AFF4FF0829FB7F8940B8FEA89AC
:100A5000FB8980818062CFCFCF93DF93EC01888DBB
:100A60008823B9F0AA89BB89E889F9898C9185FD29
:100A700003C0808186FD0DC00FB607FCF7CF8C91B7
:100A800085FFF2CF808185FFEDCFCE010E94BD04AE
:100A9000E9CFDF91CF9108952091F701260F3327F9
:100AA000331F21323105ECF420918902FC0190E0E2
:100AB00080E0243069F082E00895A091F70121914F
:100AC000AC0149525E4FA40FB52FB11D2C93019676
:100AD000861798F38091F701680F6093F70180E023
:100AE000089581E008951092890281E08093880240
:100AF0001092630261E082E10E94180361E083E1E9
:100B00000E941803E9EBF0E080818E7F8083808172
:100B10008D7F808388E48093B80085E48093BC0057
:100B20000895CF93DF9391E09093D6018823B9F095
:100B3000C091B800D091BA008091BC008A7B8093AC
:100B4000BC0060E082E10E94180360E083E10E9443
:100B500018030E947305D093BA00C093B800DF91C8
:100B6000CF9108958F929F92AF92BF92CF92DF92D2
:100B7000EF92FF920F931F93CF93DF93D091B20226
:100B8000D13208F0D7C0182FC091B1020E9464037F
:100B90006B017C018091890281116BC082E080939E
:100BA0008902109388028FEF809387021092860249
:100BB000D0938502A1E9B2E0E5E6F2E080E0D81347
:100BC00091C01092640280916402CC0FC82BC09334
:100BD000640280916302813009F088C01092630240
:100BE0000E9464036B017C01809164028093BB00CE
:100BF00080918B0290918C02A0918D02B0918E0217
:100C0000892B8A2B8B2BA1F00E94640300918B020D
:100C100010918C0220918D0230918E026C197D0909
:100C20008E099F09061717072807390708F442C0DD
:100C30008091BC0083FDD8CF85EC8093BC000E94DE
:100C400064036B017C0180918902823009F450C0F9
:100C5000809187028F3F09F46FC0809187028032B4
:100C600009F46CC080918702803309F469C084E084
:100C700026C080918B0290918C02A0918D02B09140
:100C80008E02892B8A2B8B2B09F484CF0E9464035C
:100C900080908B0290908C02A0908D02B0908E027A
:100CA0006C197D098E099F0986169706A806B90654
:100CB00008F070CF80918A020E94910585E0109221
:100CC00090021092B20210928F02DF91CF911F9189
:100CD0000F91FF90EF90DF90CF90BF90AF909F90DB
:100CE0008F9008959D9191938F5F69CF85EEA5CFE9
:100CF00080918B0290918C02A0918D02B0918E0216
:100D0000892B8A2B8B2B09F49ECF0E9464030091C0
:100D10008B0210918C0220918D0230918E026C1901
:100D20007D098E099F09061717072807390708F05C
:100D30008ACFC0CF81E0C3CF80E0C1CF82E0BFCFF8
:100D400083E0BDCF0895E091420280914102E8170F
:100D500030F4F0E0ED5BFD4F808190E008958FEF7F
:100D60009FEF089590914202809141022FEF3FEF53
:100D7000981748F4E92FF0E0ED5BFD4F208130E05B
:100D80009F5F90934202C901089580914102909122
:100D90004202891B990B0895CF92DF92EF92FF9246
:100DA0000F931F93CF93DF937C01CB018A01209196
:100DB0008F02222389F0EB016B01C40ED51ECC15E6
:100DC000DD0569F06991D701ED91FC910190F08109
:100DD000E02DC7010995F3CF642F0E944C05C8018F
:100DE000DF91CF911F910F91FF90EF90DF90CF9007
:100DF0000895CF93DF931F92CDB7DEB7698320911B
:100E00008F022223F9F02091B202203258F021E023
:100E100030E0FC013383228390E080E00F90DF918B
:100E2000CF91089580919002E82FF0E0EF56FD4FAA
:100E3000998190838F5F809390028093B20281E0CA
:100E400090E0ECCF61E0CE0101960E944C05F7CF17
:100E50002F923F924F925F926F927F928F929F92CA
:100E6000AF92BF92CF92DF92EF92FF920F931F93B8
:100E7000CF93DF93CDB7DEB7A9970FB6F894DEBF57
:100E80000FBECDBFDC01AC5BBF4F2C91E3E0E2278E
:100E9000E80FF92FF11D64832F5F2C93203409F0A4
:100EA00016C1FC01EB5BFF4F408051806280738074
:100EB0004D865E866F86788A3496608071808280E7
:100EC0009380698A7A8A8B8A9C8A34968080918002
:100ED000A280B3808D8A9E8AAF8AB88E3496A08015
:100EE000B180C280D380A98EBA8ECB8EDC8E349630
:100EF000C080D180E280F380CD8EDE8EEF8EF8A2AE
:100F0000C986DA86EB86FC862D853E854F85588915
:100F10002D833E834F835887C988DA88EB88FC8805
:100F2000898C9A8CAB8CBC8C0D891E892F89388D4D
:100F3000BEE02B2E312C19A249A1443108F051C139
:100F4000B501A40140275127622773274C215D2159
:100F50006E217F212A013B01482459246A247B24E5
:100F6000B301A201475656486D47754A4EA35FA389
:100F700068A779A7E9A1EF70F0E03196EE0FFF1FA7
:100F8000EE0FFF1FE80FF91F4D805E806F807884A1
:100F90005BE176946794579447945A95D1F74D81C5
:100FA0005E816F817885A5E0440F551F661F771F0E
:100FB000AA95D1F74429552966297729408051807F
:100FC00062807380440D551D661D771D2A013B010B
:100FD0004EA15FA168A579A5440E551E661E771E19
:100FE00049855A856B857C85440D551D661D771D89
:100FF00049835A836B837C8326013701B2E0769460
:10100000679457944794BA95D1F7B701A601EEE1DA
:10101000440F551F661F771FEA95D1F744295529BC
:1010200066297729A9A1AF5FA9A3A03509F068C0F7
:10103000FC01EB5BFF4F4D845E846F847888C98030
:10104000DA80EB80FC804C0C5D1C6E1C7F1C4082A7
:101050005182628273823496C988DA88EB88FC8870
:101060004D805E806F807884C40CD51CE61CF71C14
:10107000C082D182E282F3823496CD88DE88EF8806
:10108000F88C4C0D5D1D6E1D7F1D40835183628366
:1010900073833496498D5A8D6B8D7C8D400F511F13
:1010A000621F731F408351836283738334962D8D37
:1010B0003E8D4F8D58A1820E931EA41EB51E8082B8
:1010C0009182A282B3828C5B9F4FDC011C92A99615
:1010D0000FB6F894DEBF0FBECDBFDF91CF911F9149
:1010E0000F91FF90EF90DF90CF90BF90AF909F90C7
:1010F0008F907F906F905F904F903F902F900895CA
:10110000E9A1EF70A4E0EA9FF00111242C014E0E3A
:101110005F1E5A864986D2011496CD90DD90ED90DF
:10112000FC901797B9A1B03108F443C0F10135978D
:10113000EF70FF273196EE0FFF1FEE0FFF1FE80F36
:10114000F91FD101AF70BB271196AA0FBB1FAA0FC1
:10115000BB1FA80FB91F4D905D906D907C90C4246B
:10116000D524E624F7244080518062807380C42413
:10117000D524E624F724F1013B97EF70FF27319641
:10118000EE0FFF1FEE0FFF1FE80FF91F4080518089
:1011900062807380C424D524E624F724CC0CDD1CA3
:1011A000EE1CFF1CC11CE985FA85C482D582E6824B
:1011B000F782FFEF2F1A3F0A89869A86AB86BC8694
:1011C000CD80DE80EF80F88449805A806B807C80FF
:1011D0004D825E826F827886480159018A019B01A7
:1011E000ABCE59A1583298F4B501A401402751273C
:1011F000622773272A013B014C245D246E247F243F
:10120000B301A2014F55544166427149AFCE59A175
:101210005C33D8F4B901A8014C295D296E297F29D6
:10122000482159216A217B21280139014C205D2068
:101230006E207F20442A552A662A772AB301A2010C
:1012400044525344644E704791CEB501A4014027E7
:101250005127622773272A013B014C245D246E2409
:101260007F24B301A2014A525E436D4975437ECE8D
:1012700060E880E593E00E9428078091940360E095
:101280008833B9F780E593E00E94280760E080E5A5
:1012900093E00E94280760E080E593E00E94280721
:1012A0006091A9037091AA038091AB039091AC0364
:1012B0002DE196958795779567952A95D1F780E5E5
:1012C00093E00E9428076091A9037091AA0380917E
:1012D000AB039091AC0335E196958795779567952B
:1012E0003A95D1F780E593E00E9428076091A90321
:1012F0007091AA038091AB039091AC034DE0969559
:101300008795779567954A95D1F780E593E00E9498
:1013100028076091A9037091AA038091AB03909173
:10132000AC0355E096958795779567955A95D1F7D3
:1013300080E593E00E9428076091A903660F660F7D
:10134000660F80E593E00E942807E5E9F3E06191EC
:101350007191819191910E94B318DF0114976D935F
:101360007D938D939C93139783E0E93AF80779F77F
:1013700085E993E00895262FFC01E75AFF4F40814D
:101380005181628173814F5F5F4F6F4F7F4F408309
:10139000518362837383622F0E942807089590E02F
:1013A00080E00895CF92DF92EF92FF920F931F9308
:1013B000CF93DF93A0911004B091110490910D048C
:1013C00021E020938F029093B1021092900210922C
:1013D000B202ED91FC9111970190F081E02D682F00
:1013E000CD01099581E00E94B205C82F8FEFC11190
:1013F000A1C0D0910D040E9464036B017C01809117
:101400008902811163C081E0809389028093880200
:101410009FEF90938702109286021092850280932C
:10142000640280916402DD0FD82BD0936402809116
:101430006302813009F087C0109263020E94640346
:101440006B017C01809164028093BB0080918B02D0
:1014500090918C02A0918D02B0918E02892B8A2BE3
:101460008B2BA1F00E94640300918B0210918C02DF
:1014700020918D0230918E026C197D098E099F0991
:10148000061717072807390708F441C08091BC00E8
:1014900083FDD8CF85EC8093BC000E9464036B0170
:1014A0007C0180918902813009F44FC080918602CD
:1014B00081116DC080918602E5E6F2E0A3E4B2E01E
:1014C000C81749F191919D93CF5FFACF80918B021C
:1014D00090918C02A0918D02B0918E02892B8A2B63
:1014E0008B2B09F48CCF0E94640300918B02109126
:1014F0008C0220918D0230918E026C197D098E092B
:101500009F09061717072807390708F078CF809139
:101510008A020E94910510924202C093410280917A
:10152000100490911104DC01ED91FC910284F3858B
:10153000E02D0995DF91CF911F910F91FF90EF90D2
:10154000DF90CF90089585EEA6CF80918B02909189
:101550008C02A0918D02B0918E02892B8A2B8B2B4D
:1015600009F49FCF0E94640300918B0210918C02BA
:1015700020918D0230918E026C197D098E099F0990
:10158000061717072807390708F08BCFC0CF81E06F
:1015900093CFFB0101900020E9F73197AF01461B83
:1015A000570BDC01ED91FC910280F381E02D099451
:1015B00061E771E083EB92E00C94C90A0F931F93EB
:1015C000CF93DF938C01D0E0C0E0F801EC0FFD1F5A
:1015D0006491662341F083EB92E00E94DF04892B43
:1015E00011F02196F2CF0E94D80A8C0F9D1FDF9137
:1015F000CF911F910F9108952F923F924F925F923A
:101600006F927F928F929F92AF92BF92CF92DF9212
:10161000EF92FF920F931F93CF93DF93CDB7DEB777
:10162000C659D1400FB6F894DEBF0FBECDBFCF571D
:10163000DE4F99838883C158D140CDB6DEB6CD57F1
:10164000DE4FD982C882C358D14081E093E2A5E43D
:10165000B7E6CF59DE4F88839983AA83BB83C156EF
:10166000D14089E89BEAADECBFEECB59DE4F8883D1
:101670009983AA83BB83C556D1408EEF9CEDAAEB1C
:10168000B8E9C759DE4F88839983AA83BB83C956BB
:10169000D14086E794E5A2E3B0E1C359DE4F8883E9
:1016A0009983AA83BB83CD56D14080EF91EEA2ED02
:1016B000B3ECCF58DE4F88839983AA83BB83C1578D
:1016C000D1402DB73EB7205431090FB6F8943EBF34
:1016D0000FBE2DBFEDB7FEB731968DB79EB78F5BAE
:1016E0009F4FDF011D921D921D921D92A817B907F1
:1016F000C9F7209114048091150490E0B0E0A0E0B7
:10170000DC0199278827B22B906840815181628142
:101710007381842B952BA62BB72B80839183A28377
:10172000B38380E190E0A0E0B0E084AF95AFA6AFD6
:10173000B7AFAE014F5F5F4F80E491E0DA019C01EB
:101740001D9221503040E1F7C558DE4F5983488340
:10175000CB57D140C357DE4FF983E883CD58D140F2
:101760001E013FE3231A310840EF51EE62ED73ECA6
:10177000C358DE4F488359836A837B83CD57D1405A
:1017800061E073E285E497E6C958DE4F68837983A8
:101790008A839B83C757D14049E8442E4BEA542E95
:1017A0004DEC642E4FEE742E06E714E522E330E193
:1017B0005EEF852E5CED952E5AEBA52E58E9B52EE1
:1017C000CB58DE4F1882C557D140CB58DE4F7881B9
:1017D000C557D140703108F065C2C357DE4FE8816C
:1017E000F981CD58D14080819181A281B381C558C2
:1017F000DE4FE881F981CB57D14080839183A2836A
:10180000B383B501A40140275127622773274421E0
:101810005521662177216A017B01C026D126E22667
:10182000F326CD56DE4FC882D982EA82FB82C359A5
:10183000D14089E9C82E89E7D82E82E8E82E8AE5CA
:10184000F82EC558DE4FA881B981CB57D1404D91B4
:101850005D916D917D91C558DE4FB983A883CB57BB
:10186000D140CB57DE4F488359836A837B83C55869
:10187000D140C958DE4F488159816A817B81C75761
:10188000D140EBE17695679557954795EA95D1F765
:10189000C757DE4F488359836A837B83C958D14039
:1018A000C958DE4F688179818A819B81C757D140B1
:1018B000F5E0660F771F881F991FFA95D1F7DC01B5
:1018C000CB01C757DE4F488159816A817B81C95856
:1018D000D140842B952BA62BB72BCB57DE4F4881BD
:1018E00059816A817B81C558D140840F951FA61FFD
:1018F000B71FCB57DE4F88839983AA83BB83C55814
:10190000D140CD56DE4F488159816A817B81C359D0
:10191000D140840F951FA61FB71F8C0D9D1DAE1DB6
:10192000BF1DC358DE4FC880D980EA80FB80CD57E9
:10193000D140C80ED91EEA1EFB1ED301C20142E0EF
:10194000B695A795979587954A95D1F7B301A201CA
:10195000EEE1440F551F661F771FEA95D1F7482B1C
:10196000592B6A2B7B2BCB58DE4F8881C557D14032
:101970008F5FCB58DE4F8883C557D140C357DE4FAA
:10198000A881B981CD58D1401496C357DE4FB98391
:10199000A883CD58D140B4E02B0E311CC958DE4F7E
:1019A000488059806A807B80C757D140C358DE4F3A
:1019B000088319832A833B83CD57D140803509F0B2
:1019C00064C1EFEFCE1AECEDDE0AEAEBEE0AE8E9CD
:1019D000FE0ACF59DE4FC882D982EA82FB82C15605
:1019E000D140D301C20187579445A243B041CB599E
:1019F000DE4F88839983AA83BB83C556D1402A01D1
:101A00003B01F2E04F1AF3E25F0AF5E46F0AF7E6F2
:101A10007F0AC759DE4F488259826A827B82C95643
:101A2000D140D501C4018A589B4AAD4CBF4EC35921
:101A3000DE4F88839983AA83BB83CD56D140005162
:101A40001E412D423C43CF58DE4F088319832A8321
:101A50003B83C157D140CD57DE4FC880D980C35892
:101A6000D1400FB6F894DEBE0FBECDBEFE01EF59D9
:101A7000FE4F9F012C5E3F4F80E090E0DC014191E2
:101A800051916191719184279527A627B727E21775
:101A9000F307A9F78B3D9748AA4BB84041F064E79C
:101AA00071E083EB92E00E94C90A0E94D80AAE015D
:101AB0004F5F5F4F6A018A01F0E0E0E024E1822E8F
:101AC000912C30E020E05F01A20EB31E7901EE0CF4
:101AD000FF1CE00EF11EC501B4010E949F18A1E693
:101AE000B1E0AC0FBD1FA80FB91F4C91AA9CC0015B
:101AF000AB9C900D900D1124840F911DD7018D93F7
:101B00009C932F5F3F4F28303105E9F63896005FF0
:101B10001F4FE034F105A9F68E010F5B1E4FF8014F
:101B2000B096C958DE4FF983E883C757D140780192
:101B3000CF57DE4F28813981C158D140205E3F4FB9
:101B4000C558DE4F39832883CB57D140D7011D922A
:101B50001D921D921D927D01CF57DE4F2880398046
:101B6000C158D140CB58DE4FD982C882C557D14029
:101B7000412C512C3201CB58DE4FA881B981C55779
:101B8000D1406D917D91CB58DE4FB983A883C55765
:101B9000D140F10181909190A190B1901F01072E49
:101BA000000C880B990B0E946216A50194010E94FB
:101BB000C1169B01AC01C301B2010E94F8172B01B1
:101BC0003C01C558DE4F28813981CB57D1402215C1
:101BD000330589F6F701349740825182628273821D
:101BE000B0E1CB0ED11CC958DE4FE881F981C7574F
:101BF000D140EE15FF0509F0A9CF89E3C82E82E098
:101C0000D82ED8018D909D90AD90BD908D0120E093
:101C100030E0A901C501B4010E949A1820E030E02B
:101C200040E05FE387FDE4C0C501B4010E94F817FE
:101C30000E946418F60161936F01E016F10609F73E
:101C4000CD57DE4FC880D980C358D1400FB6F89425
:101C5000DEBE0FBECDBECA56DE4F0FB6F894DEBF55
:101C60000FBECDBFDF91CF911F910F91FF90EF90ED
:101C7000DF90CF90BF90AF909F908F907F906F90AC
:101C80005F904F903F902F900895C958DE4FC882C3
:101C9000D982EA82FB82C757D140950184014A016B
:101CA0005B0193CDD101D4964D915D916D917C9165
:101CB000D79790968D919D910D90BC91A02D8427E2
:101CC0009527A627B727F101408551856285738541
:101CD00084279527A627B727408151816281738188
:101CE00084279527A627B727880F991FAA1FBB1FF0
:101CF000811DC558DE4FE881F981CB57D1408083E3
:101D00009183A283B383CB58DE4FF881C557D1406E
:101D1000F43108F476CDCB58DE4F4881C557D14019
:101D20004832E8F4B501A401402751276227732700
:101D3000DB01CA0184259525A625B725CD56DE4FA2
:101D400088839983AA83BB83C359D140B1EACB2E40
:101D5000BBEEDB2EB9EDEB2EBEE6FB2E72CDCB58E3
:101D6000DE4F9881C557D140B501A4019C3328F5B9
:101D7000402B512B622B732B442155216621772157
:101D8000D501C40180239123A223B3236A017B01DF
:101D9000C82AD92AEA2AFB2ACD56DE4FC882D98220
:101DA000EA82FB82C359D140ACEDCA2EACEBDA2EED
:101DB000ABE1EA2EAFE8FA2E44CD40275127622747
:101DC0007327DB01CA0184259525A625B725CD56A5
:101DD000DE4F88839983AA83BB83C359D140F6ED34
:101DE000CF2EF1ECDF2EF2E6EF2EFAECFF2E29CD0E
:101DF000C501B4010E94F7171BCF0F931F93CF9318
:101E0000DF93EC0188819981009759F02A813B8109
:101E10002617370730F081E0DF91CF911F910F91A6
:101E200008958B016F5F7F4F0E94F919009759F059
:101E3000998388831B830A832C813D81232B59F747
:101E4000FC011082E8CF80E0E7CF85ED8093BC00F5
:101E500080918B0290918C02A0918D02B0918E02A4
:101E60000796A11DB11D23E0B695A7959795879577
:101E70002A95D1F72091BC0024FD03C0109289025D
:101E8000089540918B0250918C0260918D02709167
:101E90008E02452B462B472B69F30097A105B10510
:101EA00041F02AE22A95F1F700C00197A109B10992
:101EB000E1CF80918A020C9491051F920F920FB688
:101EC0000F9211242F933F938F939F93AF93BF93C0
:101ED0008091240290912502A0912602B0912702C0
:101EE00030911F0223E0230F2D3758F50196A11DD5
:101EF000B11D20931F028093240290932502A0938A
:101F00002602B09327028091200290912102A09195
:101F10002202B09123020196A11DB11D80932002DF
:101F200090932102A0932202B0932302BF91AF911C
:101F30009F918F913F912F910F900FBE0F901F9007
:101F4000189526E8230F0296A11DB11DD2CF1F922E
:101F50000F920FB60F9211242F933F934F935F93DD
:101F60006F937F938F939F93AF93BF93EF93FF9361
:101F700080912D0290912E02A0912F02B0913002FB
:101F8000892B8A2B8B2BD1F190912802E091290289
:101F9000F0912A0280818927808380912D0290917F
:101FA0002E02A0912F02B0913002181619061A06BF
:101FB0001B069CF480912D0290912E02A0912F027D
:101FC000B09130020197A109B10980932D0290933D
:101FD0002E02A0932F02B0933002FF91EF91BF9198
:101FE000AF919F918F917F916F915F914F913F91B1
:101FF0002F910F900FBE0F901F90189580910001A8
:102000000E94D303EACF1F920F920FB60F921124B2
:102010002F933F934F935F936F937F938F939F93F0
:10202000AF93BF93EF93FF9383EB92E00E94BD04C5
:10203000FF91EF91BF91AF919F918F917F916F91A0
:102040005F914F913F912F910F900FBE0F901F9076
:1020500018951F920F920FB60F9211242F938F9302
:102060009F93EF93FF93E091C302F091C4028081AC
:10207000E091C902F091CA0282FD1BC0908180915B
:10208000CC028F5F8F732091CD02821741F0E091D7
:10209000CC02F0E0ED54FD4F958F8093CC02FF9180
:1020A000EF919F918F912F910F900FBE0F901F90E6
:1020B00018958081F4CF1F920F920FB60F921124C2
:1020C0002F933F934F935F936F937F938F939F9340
:1020D000AF93BF93EF93FF938091B900887F8036D1
:1020E00009F44AC0F0F5883209F4A7C018F5803128
:1020F00009F49BC0B8F4882309F4F9C0883009F4C6
:1021000094C0FF91EF91BF91AF919F918F917F917B
:102110006F915F914F913F912F910F900FBE0F9054
:102120001F901895883109F488C0803251F7809348
:10213000870214C0803409F49DC040F48033B9F3A1
:102140008833F9F68093870285ECB0C0803509F4B6
:1021500085C0883509F496C0883499F60E94250F09
:10216000D0CF883909F48CC038F5883729F050F47D
:10217000883611F0803729F683E080938902109227
:10218000190257C0883809F47BC0803919F08038AB
:1021900009F0B7CF80911902803208F071C0E09148
:1021A000190281E08E0F809319028091BB00F0E04C
:1021B000E750FE4F80833DC0803B39F0E0F4803A29
:1021C00009F479C0883A09F09CCF84E080938902B1
:1021D0001092F8011092F701E0911A02F0911B029F
:1021E00009958091F70181110FC081E08093F7017B
:1021F0001092D70109C0803C09F4A6CF883C09F4AD
:10220000A3CF883B09F07DCFE091F80181E08E0FEC
:102210008093F801F0E0E952FE4F80818093BB008B
:102220009091F8018091F70129C080916402809318
:10223000BB0085EC8093BC0064CF909186028091B6
:102240008502981758F5E091860281E08E0F809301
:102250008602F0E0EB59FD4F8081E9CFE0918602E4
:1022600081E08E0F809386028091BB00F0E0EB59F5
:10227000FD4F808390918602809185029817C8F265
:1022800085E8D8CFE091860281E08E0F80938602A8
:102290008091BB00F0E0EB59FD4F80838091880274
:1022A00081115CCF81E08093630284EA8093BC005B
:1022B0001092890226CF85EC8093BC00109289028F
:1022C00080911902803230F4E0911902F0E0E75079
:1022D000FE4F10826091190270E0E0911C02F091B3
:1022E0001D0289EF91E00995109219020ACF109210
:1022F000870234CFE3EBF2E01382128248EE53E020
:1023000060E070E0448355836683778385E491E0E1
:102310009183808385EC90E09587848784EC90E0BE
:102320009787868780EC90E0918B808B81EC90E0A2
:10233000938B828B82EC90E0958B848B86EC90E083
:10234000978B868B118E128E138E148EA1E0B4E0C3
:1023500013961C921E92129714964D935D936D9353
:102360007C93179787E591E011969C938E93E0E517
:10237000F3E01382128289E691E091838083E4E1A5
:10238000F4E080ED97E097A386A311A610A612A60D
:10239000178A118E12A213A214A215A214821582FA
:1023A000EDE0F4E01682158280E1818380E2808393
:1023B000B483A3838CE282830895CF93DF93CDB758
:1023C000DEB7EC970FB6F894DEBF0FBECDBF7894A2
:1023D00084B5826084BD84B5816084BD85B582602A
:1023E00085BD85B5816085BD80916E0081608093DB
:1023F0006E00109281008091810082608093810044
:102400008091810081608093810080918000816053
:10241000809380008091B10084608093B1008091AE
:10242000B00081608093B00080917A0084608093D6
:102430007A0080917A00826080937A0080917A009D
:10244000816080937A0080917A00806880937A001E
:102450001092C10080E2E7E0F1E0DE011196019008
:102460000D928A95E1F7E091C302F091C40282E0F7
:102470008083E091BF02F091C0021082E091C1021E
:10248000F091C20280E180831092CB02E091C702FA
:10249000F091C80286E08083E091C502F091C60207
:1024A000808180618083E091C502F091C6028081C5
:1024B00088608083E091C502F091C60280818068C7
:1024C0008083E091C502F091C60280818F7D808378
:1024D00088E0E7E2F1E0DE01929601900D928A95A4
:1024E000E1F781E0809318041092190410921A0405
:1024F00080932B0498E090932C0410921404809302
:1025000016048093150410921704FE01B296A3E2FC
:10251000B4E0CE018A963F0121912D93E817F90787
:10252000D9F78DA580931B0410E080912B04181718
:1025300098F4812F90E09C012C5E3B4F7901D901EA
:1025400017968C910E94B60160911504F70187815E
:102550000E9418031F5FE9CF10E080912C04181728
:1025600050F090912B04EEE2F4E080E09817B1F087
:1025700011928F5FFBCF812F90E09C012C5E3B4F2F
:102580007901D9011F968C910E94B60160911704C0
:10259000F70187850E9418031F5FDFCF10E080914D
:1025A0002B04181758F4E12FF0E0EC5EFB4F60911C
:1025B000150487810E9418031F5FF1CF60911704F3
:1025C000809123040E94180310E080912C041817B6
:1025D00058F4E12FF0E0EC5EFB4F60911704878523
:1025E0000E9418031F5FF1CF6091150480911B04B6
:1025F0000E94180388E097E090933B0480933A048C
:1026000010923D0410923C0410923E048CE00E9413
:10261000B60160E08CE00E9418038BE00E94B601D6
:1026200060E08BE00E9418030E9473058CE08093A9
:10263000B800109242021092410210929002109241
:10264000B2020E94730580ED93E090931B02809389
:102650001A0281ED93E090931D0280931C0280EF9B
:102660000E94D20980910D0491E090938F02809393
:10267000B102109290021092B20281E00E94B20563
:10268000882349F064EB71E083EB92E00E94C90A71
:102690000E94D80AFFCFCE0101960E94FC0A8091C9
:1026A00039028E508093390288E690E00E94DE0A5B
:1026B00083EB90E00E94DE0A88E690E00E94DE0A4A
:1026C00020E0822E20E0922ED301EBE01D92EA95CD
:1026D000E9F71EA61DA618AA1FA61AAA19AA70E035
:1026E00060E0CE018D960E94FD0E2DA53EA58111C4
:1026F00055C02115310519F0C9010E9470191EA697
:102700001DA61AAA19AA18AA1FA686E892E00E9476
:10271000DE0A8FE592E00E94DE0A83EB92E00E94DF
:102720009D04892BD1F31A8219821C821B821E827E
:102730001D8270E060E0CE0101960E94FD0E2981AD
:102740003A81811133C02115310519F0C9010E9468
:1027500070191A8219821E821D821C821B820E949D
:102760004F0497FD2BC08BAB1CAA0D811E810F5F00
:102770001F4FB801CE0101960E94FD0E882379F308
:1027800029813A818D819E81BE016D5C7F4F820FD0
:10279000931F0E94BF1A1E830D83E1CF1AAA19AAA4
:1027A00063E771E0C9010E94BF1AAFCF1E821D828C
:1027B00063E771E0C9010E94BF1AD1CF8DA59EA524
:1027C000009709F441C069817A8161157105D1F1E1
:1027D0004FA558A92D813E814217530798F10E94B9
:1027E000BF1A8D819E819AAB89AB1E821D82898121
:1027F0009A81009711F00E94701999E3E92E92E0F6
:10280000F92E10E000E0D7018D917D018823E1F1E0
:1028100090E029A93AA90217130720F4EDA5FEA517
:10282000309719F510921E02EEE1F2E02081022E9F
:10283000000C330B82179307D9F00E94BC038BE383
:1028400092E069CF0E94701989819A819EA78DA715
:102850008B819C8198AB8FA78D819E819AAB89AB30
:102860001A8219821C821B82C0CFE00FF11FDECFBB
:102870006CE271E080E090E00E9489030F5F1F4FDF
:102880000830110509F0BFCF87EF91E00E94DE0A02
:10289000D12CC12C80910F04853309F011C188EF30
:1028A0000E94D209883FB1F3803F71F0883E09F45D
:1028B000FCC0883D09F4FBC0883B09F4FAC014E071
:1028C000883719F011E10EC010E087E00E94D209AC
:1028D000873001F3863021F0853009F0ECC01B5FB2
:1028E00010930E04E12FF0E0E15DFE4F608180ED7A
:1028F000860F8A3080F47601EFEFEE1AFE0AE2E2EC
:10290000F0E0EC0FFD1FEC0DFD1D608383EB92E00A
:102910000E94DF04670180EF0E94D2098F3F11F00F
:10292000803FC9F76AE070E080E090E00E94890390
:1029300080EF0E94D2098F3F11F0803FC9F7BAE0C3
:10294000CB16D10409F0A6CF1CA60E94D80A44E1F8
:1029500050E06EEC70E085E993E00E94571610920B
:10296000A9031092AA031092AB031092AC03109229
:10297000940349A95AA96DA57EA580E593E00E941C
:10298000FF030E9438098E01085C1F4F9C012B5FDA
:102990003F4FF801DC014D91CD0141932A173B07D0
:1029A000C9F744E150E06EEC70E085E993E00E94E5
:1029B00057161092A9031092AA031092AB0310921B
:1029C000AC0310929403BE016E5D7F4F80E593E0EF
:1029D0000E94C90A0E9438096E01B3E3CB0ED11CD4
:1029E0009C012B5F3F4FF601DC014D91CD014193DE
:1029F0002A173B07C9F75801B5E0AB0EB11C7801A7
:102A0000F70181917F01D6019D916D01891302C06B
:102A10008111D9C08AED91E00E94DE0A8AE0282E59
:102A2000312C412C512CF80121918F0130E050E0E4
:102A300040E019A27E01F1E2EF0EF11CCA01B901DA
:102A4000A20191010E94D517605DD7016E937D01AF
:102A5000211531054105510589F7109729F0BD0170
:102A600083EB92E00E94C90A64ED71E083EB92E08F
:102A70000E94C90AA016B106B1F689EC91E00E9445
:102A8000DE0A0E94BC038DA59EA5009711F00E944E
:102A900070198114910409F417CE0E94A9048823A7
:102AA00009F412CE0E9400000FCE11E00ECF12E00A
:102AB0000CCF13E00ACF165F833009F411CF02CF99
:102AC0008E3361F58CEF0E94D2098C3F09F4E2CE7F
:102AD000883FD1F0843FD1F08C3ED1F08C3DD1F0D5
:102AE0008C3BD1F015E08C3709F0ECCE83E00E94EE
:102AF000D209833009F4CECE823009F4F1CE1A5FC8
:102B0000813009F4EDCEDECE10E0F0CF11E0EECF53
:102B100012E0ECCF13E0EACF14E0E8CF813539F5CD
:102B20008FEF0E94D2098F3F09F4B4CE8E3F89F017
:102B30008D3F89F08B3F89F0873F89F08F3E89F088
:102B40008F3D89F08F3B89F017E08F3709F4C8CEAD
:102B5000B9CE10E0C5CE11E0C3CE12E0C1CE13E075
:102B6000BFCE14E0BDCE15E0BBCE16E0B9CE80EFEF
:102B70000E94D209803F09F48DCE803EA9F0803DAD
:102B8000A9F0803BA9F013E0803709F09BCE8FE0DD
:102B90000E94D2098F3009F47DCE8E3009F4A0CE88
:102BA0008D3041F41C5F9CCE10E0F1CF11E0EFCFEF
:102BB00012E0EDCF8B3011F4185F92CE873009F020
:102BC00081CE145F8DCE6CE271E080E090E00E94D7
:102BD0008903AE14BF0409F013CF0E94D80A0E94E3
:102BE000D80A82EE90E00E94DE0A84E791E00E941B
:102BF000DE0A8BE291E00E94DE0A0E94D80A0E945F
:102C0000D80A04E110E088EB91E00E94D50164E667
:102C100070E080E090E00E9489038EEE91E00E94D7
:102C2000D50164E670E080E090E00E9489038BE0CB
:102C300092E00E94D50164E670E080E090E00E949E
:102C400089038BE492E00E94D50164E670E080E0A5
:102C500090E00E94890383E992E00E94D50164E636
:102C600070E080E090E00E9489038AEB92E00E948D
:102C7000D50164E670E080E090E00E94890380E185
:102C800093E00E94D50164E670E080E090E00E944D
:102C900089038AE00E94D30364E670E080E090E05C
:102CA0000E9489030150110909F0ADCFECCEFB0160
:102CB000DC0102C005900D9241505040D8F70895B4
:102CC000E89409C097FB3EF49095809570956195C6
:102CD0007F4F8F4F9F4F9923A9F0F92F96E9BB277C
:102CE0009395F695879577956795B795F111F8CFF8
:102CF000FAF4BB0F11F460FF1BC06F5F7F4F8F4F63
:102D00009F4F16C0882311F096E911C0772321F058
:102D10009EE8872F762F05C0662371F096E8862FF0
:102D200070E060E02AF09A95660F771F881FDAF747
:102D3000880F9695879597F90895990F0008550F74
:102D4000AA0BE0E8FEEF16161706E807F907C0F031
:102D500012161306E407F50798F0621B730B840B39
:102D6000950B39F40A2661F0232B242B252B21F413
:102D700008950A2609F4A140A6958FEF811D811DB3
:102D800008950E94D4160C9445170E94371738F006
:102D90000E943E1720F0952311F00C942E170C94EE
:102DA000341711240C9479170E94561770F3959FCD
:102DB000C1F3950F50E0551F629FF001729FBB2732
:102DC000F00DB11D639FAA27F00DB11DAA1F649FCE
:102DD0006627B00DA11D661F829F2227B00DA11D81
:102DE000621F739FB00DA11D621F839FA00D611D07
:102DF000221F749F3327A00D611D231F849F600D28
:102E0000211D822F762F6A2F11249F5750409AF050
:102E1000F1F088234AF0EE0FFF1FBB1F661F771FDC
:102E2000881F91505040A9F79E3F510580F00C94A7
:102E30002E170C9479175F3FE4F3983ED4F38695F0
:102E400077956795B795F795E7959F5FC1F7FE2B47
:102E5000880F911D9695879597F9089597F99F6723
:102E600080E870E060E008959FEF80EC0895002412
:102E70000A941616170618060906089500240A94DF
:102E800012161306140605060895092E0394000C65
:102E900011F4882352F0BB0F40F4BF2B11F460FFF4
:102EA00004C06F5F7F4F8F4F9F4F089557FD90581D
:102EB000440F551F59F05F3F71F04795880F97FBFE
:102EC000991F61F09F3F79F08795089512161306B8
:102ED0001406551FF2CF4695F1DF08C016161706E7
:102EE0001806991FF1CF869571056105089408951C
:102EF000E894BB2766277727CB0197F90895052E1D
:102F000097FB1EF400940E94961757FD07D00E946D
:102F1000D51707FC03D04EF40C94961750954095A6
:102F2000309521953F4F4F4F5F4F08959095809575
:102F3000709561957F4F8F4F9F4F08952F923F92CD
:102F40004F925F926F927F928F929F92AF92BF92B9
:102F5000CF92DF92EF92FF920F931F93CF93DF9365
:102F6000CDB7DEB7CA1BDB0B0FB6F894DEBF0FBEC2
:102F7000CDBF09942A88398848885F846E847D840F
:102F80008C849B84AA84B984C884DF80EE80FD8011
:102F90000C811B81AA81B981CE0FD11D0FB6F89487
:102FA000DEBF0FBECDBFED010895A1E21A2EAA1B10
:102FB000BB1BFD010DC0AA1FBB1FEE1FFF1FA217E9
:102FC000B307E407F50720F0A21BB30BE40BF50BE6
:102FD000661F771F881F991F1A9469F7609570956F
:102FE000809590959B01AC01BD01CF01089550588B
:102FF000BB27AA270E940F180C9445170E94371769
:1030000038F00E943E1720F039F49F3F19F426F45F
:103010000C9434170EF4E095E7FB0C942E17E92F6F
:103020000E94561758F3BA1762077307840795076B
:1030300020F079F4A6F50C9478170EF4E0950B2E99
:10304000BA2FA02D0B01B90190010C01CA01A001FA
:103050001124FF27591B99F0593F50F4503E68F155
:103060001A16F040A22F232F342F4427585FF3CF96
:10307000469537952795A795F0405395C9F77EF467
:103080001F16BA0B620B730B840BBAF09150A1F0B0
:10309000FF0FBB1F661F771F881FC2F70EC0BA0F36
:1030A000621F731F841F48F4879577956795B795BE
:1030B000F7959E3F08F0B0CF9395880F08F09927B9
:1030C000EE0F9795879508950E946B186894B1113B
:1030D0000C94791708950E945E1788F09F5798F016
:1030E000B92F9927B751B0F0E1F0660F771F881F0D
:1030F000991F1AF0BA95C9F714C0B13091F00E9427
:103100007817B1E008950C947817672F782F8827E7
:10311000B85F39F0B93FCCF3869577956795B3954D
:10312000D9F73EF490958095709561957F4F8F4FBC
:103130009F4F08950E949D1608F48FEF089597FB06
:10314000072E16F4009407D077FD09D00E94BA1814
:1031500007FC05D03EF4909581959F4F089570959A
:1031600061957F4F089569279627692778278727D4
:1031700078270895AA1BBB1B51E107C0AA1FBB1FDC
:10318000A617B70710F0A61BB70B881F991F5A95F3
:10319000A9F780959095BC01CD010895EE0FFF1F12
:1031A0000590F491E02D09940F931F93CF93DF9333
:1031B0008230910510F482E090E0E0914104F091BA
:1031C000420430E020E0B0E0A0E0309799F421150F
:1031D000310509F44AC0281B390B24303105D8F5D4
:1031E0008A819B816115710589F1FB01938382833B
:1031F000FE0111C040815181028113814817590796
:10320000E0F04817590799F4109761F012960C9363
:10321000129713961C933296CF01DF91CF911F9195
:103220000F9108950093410410934204F4CF2115A7
:10323000310551F04217530738F0A901DB019A011B
:10324000BD01DF01F801C1CFEF01F9CF9093420436
:1032500080934104CDCFFE01E20FF31F8193919340
:103260002250310939832883D7CF20913F043091F0
:103270004004232B41F42091030130910401309349
:10328000400420933F042091010130910201211557
:10329000310541F42DB73EB740910501509106012B
:1032A000241B350BE0913F04F0914004E217F30733
:1032B000A0F42E1B3F0B2817390778F0AC014E5FA6
:1032C0005F4F2417350748F04E0F5F1F509340049F
:1032D00040933F04819391939FCFF0E0E0E09CCF37
:1032E000CF93DF930097E9F0FC01329713821282AB
:1032F000A0914104B0914204ED0130E020E010972C
:10330000A1F420813181820F931F20913F043091DD
:1033100040042817390709F061C0F0934004E09396
:103320003F04DF91CF910895EA01CE17DF07E8F55A
:103330004A815B819E0141155105B1F7E901FB838B
:10334000EA8349915991C40FD51FEC17FD0761F429
:10335000808191810296840F951FE901998388836A
:10336000828193819B838A83F0E0E0E012968D91C5
:103370009C9113970097B9F52D913C911197CD0130
:103380000296820F931F20913F043091400428172A
:10339000390739F6309751F51092420410924104E2
:1033A000B0934004A0933F04BCCFD383C283408139
:1033B0005181840F951FC817D90761F44E5F5F4F85
:1033C00088819981480F591F518340838A819B814D
:1033D000938382832115310509F0B0CFF093420425
:1033E000E09341049ECFFD01DC01C0CF1382128225
:1033F000D7CFB0E0A0E0EFEFF9E10C94A0178C017B
:10340000009751F4CB010E94D4188C01C801CDB7AC
:10341000DEB7E0E10C94BC17FC01E60FF71F9C013E
:1034200022503109E217F30708F49DC0D901CD916C
:10343000DC911197C617D70798F0C530D10530F346
:10344000CE0104978617970708F3C61BD70B229760
:10345000C193D1936D937C93CF010E947019D6CF05
:103460005B01AC1ABD0A4C018C0E9D1EA09141045B
:10347000B0914204512C412CF12CE12C109731F5E4
:1034800080913F04909140048815990509F05CC033
:103490004616570608F058C080910101909102012C
:1034A000009741F48DB79EB74091050150910601F8
:1034B000841B950BE817F90708F055C0F0934004FA
:1034C000E0933F04F90171836083A0CF8D919C91BB
:1034D000119712966C90129713967C901397A815DB
:1034E000B90559F56C0142E0C40ED11CCA14DB04C5
:1034F00020F1AC014A195B09DA011296159780F0A8
:103500006282738251834083D9016D937C93E1146D
:10351000F10471F0D7011396FC93EE93129776CFD6
:1035200022968C0F9D1FF90191838083F301EFCFC9
:10353000F0934204E093410469CF4816590608F419
:103540002C017D01D3019ACFCB010E94D4187C01BC
:10355000009749F0AE01B8010E94B61AC8010E9456
:103560007019870153CF10E000E050CFFB01DC0160
:1035700002C001900D9241505040D8F70895FB01D0
:10358000DC0101900D920020E1F70895F894FFCF3F
:10359000FF000043048000DECE103EC7D302C04AC5
:1035A0002ED0C14C561342390AA1403AF9F5BDEE6E
:1035B0002FA4C1FE9DD5400605020304070809316A
:1035C00032334134353642373839432A3023444E7A
:1035D0000000000000DF04FF032C042C059D043BC9
:1035E000048F0400000000F906CC06CF09A206C52E
:1035F00006B206A30600000000BB09FF03CF09D2F4
:10360000030D0A004F62667573636174696F6E2003
:10361000697320696E76616C69642E20506C6561F7
:10362000736520636F6E74616374206368616C6C92
:10363000656E67652061646D696E6973747261742B
:103640006F722E000A63616E6E6F7420636F6D6D12
:10365000756E696361746520746F206B6579706144
:06366000642E0A002000A8
:00000001FF
