:100000000C9466010C948E010C948E010C948E015C
:100010000C948E010C948E010C948E010C94331070
:100020000C948E010C948E010C948E010C948E0114
:100030000C948E010C948E010C948E010C948E0104
:100040000C94E90F0C948E010C94DB100C94B510F9
:100050000C948E010C948E010C948E010C948E01E4
:100060000C940D110C948E0105A84CCDB2D44EB950
:100070003836A9020C50B9918688083CA6AAAA2A4B
:10008000BE000000803F00000000F304353F5E83A7
:100090006C3FBE147B3F6DC47E3F0FB17F3F43EC8E
:1000A0007F3F11FB7F3FC4FE7F3FB1FF7F3FECFFEF
:1000B0007F3FFBFF7F3FFFFF7F3F0000803F00004F
:1000C000803F0000803F0000803F0000803FF3043D
:1000D000353F15EFC33EC2C5473E36BDC83D30FB78
:1000E000483DB00AC93C900E493C880FC93BC60F39
:1000F000493BD60FC93AD90F493ADB0FC939DB0F53
:100100004939DB0FC938DB0F4938BF0FC9372F2AF0
:100110002A2A2A2A2A2A2A2A2A2A2A2A2A2A2A2A3F
:100120002A2A2A2A2A2A2A2A2A2A2A2A2A2A2A2A2F
:100130002A2A2A2A2A2A2A2A2A2A2A2A2A2A2A2A1F
:100140002A2A2A2A2A2A2A2A2A2A2A2A2A2A2A2A0F
:100150002A2A2A2A2A2A2A2F00537065616B65727F
:100160002F4D6963726F70686F6E652F4B65797084
:1001700061642054657374002000496620657272C2
:100180006F722C20706C6561736520636865636BAA
:1001900020796F7572204B657970616420636F6E92
:1001A0006E656374696F6E2E2044495020737769C1
:1001B00074636865732073686F756C6420616C6C20
:1001C000206265204F46462E004B65795061642FB2
:1001D000536576656E205365676D656E7420746532
:1001E00073743A2050726573732061206E756D626E
:1001F0006572206F6E20746865206E756D70616425
:100200002E00537065616B6572204D6963726F706B
:10021000686F6E65205465737420506173736564F4
:1002200000200044656275673A2000200044656242
:1002300075673A200054657374204661696C656483
:100240002E20506C656173652074756E652074682E
:100250006520706F74656E74696F6D65746572206A
:100260006F6E20746865206D6963726F70686F6E61
:100270006520626F6172642E0000000008000201B8
:10028000000003040700000000000000000200005E
:100290000000250028002B0000000000240027009B
:1002A0002A000404040404040404020202020202F8
:1002B000030303030303010204081020408001022A
:1002C000040810200102040810202C1211241FBE63
:1002D000CFEFD8E0DEBFCDBF11E0A0E0B1E0E2E4B7
:1002E000F7E302C005900D92AA39B107D9F723E0D0
:1002F000AAE9B1E001C01D92A936B207E1F711E009
:10030000C6E6D1E004C02197FE010E94991BC536C4
:10031000D107C9F70E94C9120C949F1B0C940000CE
:1003200090E0FC01EA54FD4F24918E559D4FFC0155
:100330008491882399F090E0880F991FFC01E8567A
:10034000FD4FA591B491FC01E257FD4F8591949129
:100350008FB7F894EC91E22BEC938FBF08954F92F6
:100360005F926F927F928F929F92AF92BF92CF9245
:10037000DF92EF92FF920F931F93CF938C018091A6
:1003800000018A3099F08F3F09F485C0CF911F9109
:100390000F91FF90EF90DF90CF90BF90AF909F9024
:1003A0008F907F906F905F904F900895EDE8F2E00E
:1003B000C491C7FDEBCF8AE00E949001CC2319F0D5
:1003C000C23009F04EC14801B12CA12C60E072E1AD
:1003D0008AE790E0A50198010E94331829013A01AB
:1003E0007A01690121E0C21AD108E108F1088FEF12
:1003F000C816D104E104F10409F00CF405C160E46D
:1004000072E48FE090E0A50198010E943318690121
:100410007A0181E0C81AD108E108F108C23009F078
:10042000A8C082E02FEFC216D104E104F10409F064
:100430000CF491C160E970ED83E090E0A5019801B2
:100440000E94331869017A0181E0C81AD108E108D5
:10045000F10883E02FEFC216D104E104F10409F0A2
:100460000CF479C168E478EE81E090E0A501980190
:100470000E94331869017A0181E0C81AD108E108A5
:10048000F1082FEFC216D104E104F10411F00CF0D1
:1004900093C084E060C18AE080930001EDE8F2E05F
:1004A000C491CF3F09F472CFC13019F148F0C23086
:1004B00009F43DC0C7FD6ACF8AE00E94900180CF59
:1004C00014BC15BC84B5826084BD85B5816085BDD2
:1004D000ECEAF2E0E491F0E0EE0FFF1FE257FD4F8F
:1004E00085919491E0ECF2E0E491E093EF01C0E0BB
:1004F00062CF10928000109281008091810088600C
:100500008093810080918100816080938100ECEA7A
:10051000F2E0E491F0E0EE0FFF1FE257FD4F85910E
:100520009491E0ECF2E0E491E093EE0144CF10927C
:10053000B0001092B1008091B00082608093B00052
:100540008091B10081608093B100ECEAF2E0E49127
:10055000F0E0EE0FFF1FE257FD4F859194919093CD
:10056000ED018093EC01E0ECF2E0E491E093EB012B
:1005700022CF8FEFC816D104E104F10409F00CF486
:100580006EC068E478EE81E090E0A50198010E94D9
:10059000331869017A0181E0C81AD108E108F1082D
:1005A000CC2309F4DFC08FEFC816D104E104F104B5
:1005B00011F00CF0E0C06DCF64E274EF80E090E0E9
:1005C000A50194010E94331869017A0181E0C81ADB
:1005D000D108E108F10885E02FEFC216D104E1044B
:1005E000F10409F008F4B7C062E17AE780E090E036
:1005F000A50194010E94331869017A0181E0C81AAB
:10060000D108E108F108C8C081E0C111A4C095B5C6
:10061000987F892B85BD9801220F331FA4E8B3E092
:100620000E94741828EE33E040E050E00E94521817
:10063000C13009F446C0C23009F455C0C111A6CE7C
:10064000C7BC2093F8013093F9014093FA0150930D
:10065000FB0180916E00826080936E0097CE82E0F5
:10066000D4CFF12CE12C60E072E18AE790E0A701A1
:1006700098010E943318DA01C9010197A109B10953
:10068000009721E0A207B1055CF46C0191E0C13054
:1006900011F680918100887F892B80938100BBCFE8
:1006A00068E478EE81E090E0A70198010E94331899
:1006B00069017A0181E0C81AD108E108F10893E0E4
:1006C000E6CFD0928900C09288002093F401309345
:1006D000F5014093F6015093F70180916F0082601D
:1006E00080936F0053CEC092B3002093F0013093FB
:1006F000F1014093F2015093F30180917000826008
:100700008093700043CE730162019AE0F594E79400
:10071000D794C7949A95D1F721E0C21AD108E1087D
:10072000F10885E074CF8FEFC816D104E104F1041D
:1007300009F048F784E06BCF730162018AE0F59419
:10074000E794D794C7948A95D1F721E0C21AD108CB
:10075000E108F10887E09091B100987F892B8093A0
:10076000B10059CF83E02FEFC216D104E104F104A8
:1007700009F00CF44CCF62E17AE780E090E0A5014B
:1007800094010E94331869017A0181E0C81AD108E6
:10079000E108F108CC2339F28FEFC816D104E10447
:1007A000F10409F048F686E0D6CF90E0FC01E75866
:1007B000FD4F2491FC01EA54FD4F3491FC01EE55AC
:1007C000FD4FE491EE23C9F0222339F0233001F1EB
:1007D000A8F4213019F1223029F1F0E0EE0FFF1FCB
:1007E000E257FD4FA591B4918FB7F894EC91611148
:1007F00026C030953E233C938FBF08952730A9F043
:100800002830C9F0243049F7809180008F7D03C0E3
:10081000809180008F7780938000DFCF84B58F77C1
:1008200084BDDBCF84B58F7DFBCF8091B0008F7707
:100830008093B000D2CF8091B0008F7DF9CF3E2B56
:10084000DACFCF93DF93C82FD0E080915603D8172B
:1008500058F4ED2FF0E0E25CFC4F60914103878596
:100860000E94D503DF5FF1CFEC2FF0E0E25CFC4F9C
:1008700060913F038781DF91CF910C94D503CF9393
:10088000DF93C82FD0E080915503D81758F4ED2F8F
:10089000F0E0E25CFC4F60913F0387810E94D5034A
:1008A000DF5FF1CFEC2FF0E0E25CFC4F60914103A1
:1008B0008785DF91CF910C94D5031F93CF93DF935E
:1008C000C82FD0E0C25CDC4F60913E038F810E9454
:1008D000D50310E06A96809156031817A8F4E12F0B
:1008E000F0E0888190E0012E02C0959587950A94EA
:1008F000E2F780FF07C0E25CFC4F60914003878510
:100900000E94D5031F5FE7CFDF91CF911F9108951C
:100910000F931F93CF93C82FE82FF0E0E25CFC4FBA
:100920006091400387850E94D50301E010E002C07A
:10093000000F111FCA95E2F7C0E080915503C81758
:1009400088F4EC2FF0E0E25CFC4F828D90E0802395
:100950009123892B29F060913E0387810E94D50362
:10096000CF5FEBCFCF911F910F910895823091050A
:1009700038F0880F991F880F991F05970197F1F795
:1009800008953FB7F8948091E7019091E801A09114
:10099000E901B091EA0126B5A89B05C02F3F19F0E7
:1009A0000196A11DB11D3FBFBA2FA92F982F8827EF
:1009B000BC01CD01620F711D811D911D42E0660FCA
:1009C000771F881F991F4A95D1F708958F929F929C
:1009D000AF92BF92CF92DF92EF92FF924B015C01F8
:1009E0000E94C1046B017C010E94C1046C197D0945
:1009F0008E099F09683E734081059105A8F321E0A7
:100A0000821A9108A108B10888EEC80E83E0D81EAA
:100A1000E11CF11C81149104A104B10429F7FF9099
:100A2000EF90DF90CF90BF90AF909F908F90089500
:100A300008950895AF92BF92CF92DF92EF92FF9206
:100A40000F931F93CF93DF936C017B018B01040FF6
:100A5000151FEB015E01AE18BF08C017D10759F092
:100A60006991D601ED91FC910190F081E02DC601D4
:100A70000995892B79F7C501DF91CF911F910F91CE
:100A8000FF90EF90DF90CF90BF90AF900895FC0162
:100A9000538D448D252F30E0842F90E0821B930BE3
:100AA000541710F0CF96089501970895FC01918D89
:100AB000828D981761F0A28DAE0FBF2FB11D5D968C
:100AC0008C91928D9F5F9F73928F90E008958FEF2E
:100AD0009FEF0895FC01918D828D981731F0828DE2
:100AE000E80FF11D858D90E008958FEF9FEF089539
:100AF000FC01918D228D892F90E0805C9F4F821B9D
:100B000091098F73992708958EE692E00E947805E7
:100B100021E0892B09F420E0822F089580E090E005
:100B2000892B29F00E94840581110C9400000895FE
:100B3000FC01A48DA80FB92FB11DA35ABF4F2C9152
:100B4000848D90E001968F739927848FA689B78949
:100B50002C93A089B1898C91837080648C93938D40
:100B6000848D981306C00288F389E02D80818F7DE3
:100B700080830895EF92FF920F931F93CF93DF939B
:100B8000EC0181E0888F9B8D8C8D98131AC0E889C9
:100B9000F989808185FF15C09FB7F894EE89FF8998
:100BA0006083E889F98980818370806480839FBF36
:100BB00081E090E0DF91CF911F910F91FF90EF9036
:100BC0000895F62E0B8D10E00F5F1F4F0F73112746
:100BD000E02E8C8D8E110CC00FB607FCFACFE88981
:100BE000F989808185FFF5CFCE010E949805F1CF6C
:100BF000EB8DEC0FFD2FF11DE35AFF4FF0829FB7F5
:100C0000F8940B8FEA89FB8980818062CFCF0F93A4
:100C10001F93CF93DF938C01D0E0C0E0F801EC0F7D
:100C2000FD1F6491662341F08EE692E00E94BA05B2
:100C3000892B11F02196F2CFCE01DF91CF911F9138
:100C40000F910895682F8EE692E00C94BA05CF9329
:100C5000DF93EC01888D8823B9F0AA89BB89E889E4
:100C6000F9898C9185FD03C0808186FD0DC00FB68A
:100C700007FCF7CF8C9185FFF2CF808185FFEDCF08
:100C8000CE010E949805E9CFDF91CF910895209180
:100C9000BB01260F3327331F21323105ECF420919D
:100CA0004402FC0190E080E0243069F082E0089585
:100CB000A091BB012191AC0145565E4FA40FB52F09
:100CC000B11D2C930196861798F38091BB01680F94
:100CD0006093BB0180E0089581E008951092440282
:100CE00081E08093430210921E0261E082E10E9443
:100CF000D50361E083E10E94D503E9EBF0E0808158
:100D00008E7F808380818D7F808388E48093B8008C
:100D100085E48093BC000895CF93DF9391E0909396
:100D20009A018823B9F0C091B800D091BA0080919F
:100D3000BC008A7B8093BC0060E082E10E94D50306
:100D400060E083E10E94D5030E946E06D093BA0052
:100D5000C093B800DF91CF9108958F929F92AF9288
:100D6000BF92CF92DF92EF92FF920F931F93CF9398
:100D7000DF93D0916D02D13208F0D7C0182FC09107
:100D80006C020E94C1046B017C01809144028111BC
:100D90006BC082E080934402109343028FEF8093F4
:100DA000420210924102D0934002ACE4B2E0E0E291
:100DB000F2E080E0D81391C010921F0280911F02D0
:100DC000CC0FC82BC0931F0280911E02813009F006
:100DD00088C010921E020E94C1046B017C018091A8
:100DE0001F028093BB008091460290914702A09120
:100DF0004802B0914902892B8A2B8B2BA1F00E94CB
:100E0000C10400914602109147022091480230919E
:100E100049026C197D098E099F09061717072807D3
:100E2000390708F442C08091BC0083FDD8CF85EC1F
:100E30008093BC000E94C1046B017C01809144023C
:100E4000823009F450C0809142028F3F09F46FC094
:100E500080914202803209F46CC08091420280335A
:100E600009F469C084E026C080914602909147024F
:100E7000A0914802B0914902892B8A2B8B2B09F44F
:100E800084CF0E94C1048090460290904702A090B7
:100E90004802B09049026C197D098E099F09861697
:100EA0009706A806B90608F070CF809145020E9407
:100EB0008C0685E010924B0210926D0210924A024D
:100EC000DF91CF911F910F91FF90EF90DF90CF9026
:100ED000BF90AF909F908F9008959D9191938F5F59
:100EE00069CF85EEA5CF8091460290914702A091EF
:100EF0004802B0914902892B8A2B8B2B09F49ECF93
:100F00000E94C104009146021091470220914802BC
:100F1000309149026C197D098E099F090617170740
:100F20002807390708F08ACFC0CF81E0C3CF80E01F
:100F3000C1CF82E0BFCF83E0BDCF0895E091FD0136
:100F40008091FC01E81730F4F0E0E250FE4F808120
:100F500090E008958FEF9FEF08959091FD018091AB
:100F6000FC012FEF3FEF981748F4E92FF0E0E25033
:100F7000FE4F208130E09F5F9093FD01C9010895ED
:100F80008091FC019091FD01891B990B0895CF92EE
:100F9000DF92EF92FF920F931F93CF93DF937C0129
:100FA000CB018A0120914A02222389F0EB016B01D7
:100FB000C40ED51ECC15DD0569F06991D701ED9100
:100FC000FC910190F081E02DC7010995F3CF642FCA
:100FD0000E944706C801DF91CF911F910F91FF90AA
:100FE000EF90DF90CF900895CF93DF931F92CDB70E
:100FF000DEB7698320914A022223F9F020916D0225
:10100000203258F021E030E0FC013383228390E06D
:1010100080E00F90DF91CF91089580914B02E82FEF
:10102000F0E0E45BFD4F998190838F5F80934B02EA
:1010300080936D0281E090E0ECCF61E0CE010196FB
:101040000E944706F7CF90E080E00895CF92DF92AC
:10105000EF92FF920F931F93CF93DF9300D0CDB702
:10106000DEB720910101309102013A832983833256
:1010700009F442C0898380915503E8E5F3E090E0EC
:1010800089133CC0AEE3B3E030E080E040E458E0D8
:1010900063E670E8931709F464C0E1E0F0E0EC0F58
:1010A000FD1FE80FF11DE081EE2309F45AC020ED89
:1010B0002E0F2A3030F50E2E000CFF0BE552FF4F9D
:1010C00020815A962C935A9721E0280FE1E0F0E016
:1010D000EC0FFD1FE20FF11DE081EE3249F45A964C
:1010E0002C915A9720685A962C935A9722E0280FF1
:1010F0003F5F1196822FCECF88E4BCCF11929F5FC5
:10110000BFCF2FEB2E0F2A3130F40E2E000CFF0B29
:10111000EC52FF4FD5CF2FE92E0F2A3130F40E2E8F
:10112000000CFF0BEC54FF4FCBCFE03221F45A966A
:101130001C925A97C9CFEE3221F45A967C935A9753
:10114000C3CFEA3221F45A966C935A97BDCFEF354C
:1011500021F45A965C935A97B7CF5A964C935A9764
:10116000B3CF8091430381118CC00E94C104409190
:101170006803009160031091610320916203309134
:1011800063036B017C01C01AD10AE20AF30A0091E1
:10119000660310916703411104C00091640310912C
:1011A0006503012E000C220B330BC016D106E2069C
:1011B000F306B4F16093600370936103809362035C
:1011C000909363038091570320914203211133C010
:1011D0004423D9F010926803809157038F5F809366
:1011E000570390915603891710F01092570380917E
:1011F00057030F900F90DF91CF911F910F91FF90A8
:10120000EF90DF90CF900C9488040E943F0480916F
:10121000660390916703892BF9F281E0809368035C
:101220000F900F90DF91CF911F910F91FF90EF9052
:10123000DF90CF9008954423D9F0109268038091F5
:1012400057038F5F8093570390915503891710F0D0
:1012500010925703809157030F900F90DF91CF9119
:101260001F910F91FF90EF90DF90CF900C945D0451
:101270000E9421048091660390916703892BF9F203
:10128000CCCF8091420310E081111AC080915603A7
:10129000181730F6812F0E94880480916403909182
:1012A00065030E94B604812F0E943F04809166036B
:1012B00090916703009711F00E94B6041F5FE6CF7C
:1012C00080915503181708F0ABCF812F0E945D0461
:1012D00080916403909165030E94B604812F0E945F
:1012E00021048091660390916703009711F00E949A
:1012F000B6041F5FE5CFFC0101900020E9F73197AC
:10130000AF01481B590BBC018EE692E00C941A0504
:10131000CF93DF930E940706EC018AE691E00E94DA
:101320007B098C0F9D1FDF91CF9108958F929F9223
:10133000AF92BF920F931F93CF93DF93CDB7DEB7DA
:10134000A1970FB6F894DEBF0FBECDBF19A24230F1
:1013500008F44AE08E010F5D1F4F842E912CB12CB2
:10136000A12CA50194010E945218E62FB901CA01CF
:10137000EA30F4F4E05DD801EE938D01232B242BA9
:10138000252B79F790E080E0109719F0CD010E94AD
:101390007B09A1960FB6F894DEBF0FBECDBFDF91DB
:1013A000CF911F910F91BF90AF909F908F90089514
:1013B000E95CE1CFCF92DF92EF92FF920F931F9300
:1013C000CF93DF93A0913A03B0913B039091370301
:1013D00021E020934A0290936C0210924B021092EB
:1013E0006D02ED91FC9111970190F081E02D682F35
:1013F000CD01099581E00E94AD06C82F8FEFC11184
:10140000A1C0D09137030E94C1046B017C0180917F
:101410004402811163C081E08093440280934302BF
:101420009FEF9093420210924102109240028093EB
:101430001F0280911F02DD0FD82BD0931F028091D5
:101440001E02813009F087C010921E020E94C10462
:101450006B017C0180911F028093BB00809146024A
:1014600090914702A0914802B0914902892B8A2BA2
:101470008B2BA1F00E94C1040091460210914702FB
:1014800020914802309149026C197D098E099F090B
:10149000061717072807390708F441C08091BC00D8
:1014A00083FDD8CF85EC8093BC000E94C1046B0102
:1014B0007C0180914402813009F44FC08091410247
:1014C00081116DC080914102E0E2F2E0AEEFB1E047
:1014D000C81749F191919D93CF5FFACF8091460251
:1014E00090914702A0914802B0914902892B8A2B22
:1014F0008B2B09F48CCF0E94C104009146021091FD
:10150000470220914802309149026C197D098E09E9
:101510009F09061717072807390708F078CF809129
:1015200045020E948C061092FD01C093FC0180913F
:101530003A0390913B03DC01ED91FC910284F38529
:10154000E02D0995DF91CF911F910F91FF90EF90C2
:10155000DF90CF90089585EEA6CF809146029091BE
:101560004702A0914802B0914902892B8A2B8B2B0C
:1015700009F49FCF0E94C1040091460210914702D6
:1015800020914802309149026C197D098E099F090A
:10159000061717072807390708F08BCFC0CF81E05F
:1015A00093CF80EF0E94DA098F3F11F0803FC9F797
:1015B0006AE070E080E090E00E94E60480EF0E9424
:1015C000DA098F3F11F0803FC9F7089585ED8093C8
:1015D000BC008091460290914702A0914802B091D0
:1015E00049020796A11DB11D23E0B695A7959795D1
:1015F00087952A95D1F72091BC0024FD03C0109255
:101600004402089540914602509147026091480279
:1016100070914902452B462B472B69F30097A10592
:10162000B10541F02AE22A95F1F700C00197A1091E
:10163000B109E1CF809145020C948C062F923F9224
:101640004F925F926F927F928F929F92AF92BF92D2
:10165000CF92DF92EF92FF920F931F93CF93DF937E
:10166000CDB7DEB7CC52D4400FB6F894DEBF0FBE74
:10167000CDBF0E94C1046B017C0124EFC20ED11CBE
:10168000E11CF11CAE014F5F5F4F1A01CE018F5F6D
:101690009D4FC95FDB4F99838883C750D4408C012D
:1016A000C55FDB4F59834883CB50D440E0E4BE2E66
:1016B000B0927C0080917A00806480937A0080915F
:1016C0007A0086FDFCCF6091780070917900072E3A
:1016D000000C880B990B0E949D19C55FDB4FA881F8
:1016E000B981CB50D4406D937D938D939D93C55F0D
:1016F000DB4FB983A883CB50D440F80111921192EB
:10170000119211928F010E94C1046C157D058E0506
:101710009F05C8F3F4EFCF0ED11CE11CF11CC55F8F
:10172000DB4F28813981CB50D440C95FDB4F4881E2
:101730005981C750D4402417350709F0B9CF790132
:10174000610110E000E0B80190E080E00E949B1988
:1017500020E030E04EEF52E40E94FA182BED3FE01B
:1017600049EC50E40E94911A0E94F5182FE135E8E7
:101770004BEE5EE30E94911A9B01AC0161E77DE3B1
:101780008AE09FE30E9483184B015C01AC019B013E
:10179000D6016D917D918D919C910E94911AF601D7
:1017A00061937193819391936F01A5019401D70186
:1017B0009E918E917E916E917D010E94911AF7010A
:1017C00060837183828393830F5F1F4F0034110501
:1017D00009F0B9CFF10150E040E090E080E01DC099
:1017E00048175907C8F4DC01AA0FBB1FAA0FBB1F7B
:1017F000A20DB31D0481158126813781CD90DD9026
:10180000ED90FC901397C482D582E682F7820D9307
:101810001D932D933C931397349620E430E0821768
:10182000930728F0821B930B36952795F8CF820FEC
:10183000931F4F5F5F4F4F37510591F6C75EDB4FE8
:10184000188219821A821B82C951D440C15EDB4FB3
:101850001882CF51D440C05EDB4F1882C052D440B2
:10186000F0E8CF5DDB4FF883C152D4402FEBCE5D63
:10187000DB4F2883C252D44041E050E0CB5FDB4FC6
:1018800059834883C550D440C75FDB4F1982188203
:10189000C950D440CB5FDB4F88819981C550D4407B
:1018A000880F991FC75DDB4F99838883C952D44045
:1018B000CB5FDB4FA881B981C550D44033E0AA0F7C
:1018C000BB1F3A95E1F7C55DDB4FB983A883CB52C7
:1018D000D440CB5FDB4FE881F981C550D440EE0F97
:1018E000FF1FEE0FFF1FC95DDB4FF983E883C7526F
:1018F000D440C95FDB4F28813981C750D440C35ED3
:10190000DB4F39832883CD51D440CB5EDB4F398206
:101910002882C551D440412C512C320100E0C35FD4
:10192000DB4F1882CD50D44030E8C25FDB4F3883A4
:10193000CE50D4401FE3C15FDB4F19821882CF50D5
:10194000D440C15FDB4F48815981CF50D440CB5F39
:10195000DB4F88819981C550D4404817590709F455
:10196000EBC1C35EDB4FA881B981CD51D440CF5FBD
:10197000DB4FB983A883C150D440CB5EDB4FE881F5
:10198000F981C551D440CD5FDB4FF983E883C35063
:10199000D440C95EDB4F59834883C751D440C95EE8
:1019A000DB4F28813981C751D4402038310508F0F8
:1019B00020C1CD5FDB4F48815981C350D440C95D00
:1019C000DB4F88819981C752D440480F591FCB5DA6
:1019D000DB4F59834883C552D440DA018D909D90E6
:1019E000AD90BC90CF5FDB4FE881F981C150D4400E
:1019F000E80FF91FCD5DDB4FF983E883C352D44074
:101A00002081318142815381CF5EDB4F288339832E
:101A10004A835B83C151D440202FC35FDB4F3881A1
:101A2000CD50D440C25FDB4F4881CE50D440512FBF
:101A3000C501B4010E94911A6B017C01A3019201BE
:101A4000CF5EDB4F688179818A819B81C151D4400F
:101A50000E94911A9B01AC01C701B6010E94831834
:101A60006B017C01CF5EDB4F288139814A815B812C
:101A7000C151D440602FC35FDB4F7881CD50D4403B
:101A8000C25FDB4F8881CE50D440912F0E94911AC3
:101A9000CF5EDB4F688379838A839B83C151D440B7
:101AA000A3019201C501B4010E94911A9B01AC01EE
:101AB000CF5EDB4F688179818A819B81C151D4409F
:101AC0000E9484184B015C01A7019601CD5FDB4F9A
:101AD000E881F981C350D440608171818281938112
:101AE0000E948318CB5DDB4FA881B981C552D440D9
:101AF0006D937D938D939C931397A5019401CF5F74
:101B0000DB4FE881F981C150D440608171818281CD
:101B100093810E948318CD5DDB4FA881B981C352A8
:101B2000D4406D937D938D939C931397A701960159
:101B3000CD5FDB4FE881F981C350D4406081718172
:101B4000828193810E948418CD5FDB4FA881B98187
:101B5000C350D4406D937D938D939C931397A501AF
:101B60009401CF5FDB4FE881F981C150D44060819F
:101B70007181828193810E948418CF5FDB4FA8819D
:101B8000B981C150D4406D937D938D939C931397ED
:101B9000C95EDB4FE881F981C751D440C75DDB4F97
:101BA00028813981C952D440E20FF31FC95EDB4F4F
:101BB000F983E883C751D440CD5FDB4F4881598119
:101BC000C350D440C55DDB4F88819981CB52D4404E
:101BD000480F591FCD5FDB4F59834883C350D44012
:101BE000A80FB91FCF5FDB4FB983A883C150D44082
:101BF000D6CEC15EDB4F2881CF51D440C05EDB4FD3
:101C00003881C052D440CF5DDB4F4881C152D440AF
:101C1000CE5DDB4F5881C252D440602FC35FDB4F93
:101C20007881CD50D440C25FDB4F8881CE50D44004
:101C3000912F0E94911A6B017C01C75EDB4F2881B6
:101C400039814A815B81C951D440C301B2010E94EC
:101C5000911A9B01AC01C701B6010E9483186B0168
:101C60007C01C15EDB4F2881CF51D440C05EDB4F89
:101C70003881C052D440CF5DDB4F4881C152D4403F
:101C8000CE5DDB4F5881C252D440C301B2010E94E5
:101C9000911A4B015C01C75EDB4F288139814A8173
:101CA0005B81C951D440602FC35FDB4F7881CD5039
:101CB000D440C25FDB4F8881CE50D440912F0E9428
:101CC000911AA50194010E9484182B013C01C15F67
:101CD000DB4FA881B981CF50D4401196C15FDB4F53
:101CE000B983A883CF50D440CB5EDB4FE881F98124
:101CF000C551D4403496CB5EDB4FF983E883C551A0
:101D0000D440C35EDB4F28813981CD51D4402C5F54
:101D10003F4FC35EDB4F39832883CD51D4400C2D18
:101D2000C35FDB4FD882CD50D440C25FDB4FE88227
:101D3000CE50D4401F2D05CEC75FDB4FE881F9811F
:101D4000C950D440E653FF4F85919591A591B49128
:101D5000C75FDB4FE881F981C950D440EA57FF4F94
:101D60004591559165917491C15EDB4F4883CF5188
:101D7000D440C05EDB4F5883C052D440CF5DDB4FB0
:101D80006883C152D440CE5DDB4F7883C252D440C9
:101D90009C01AD015058C75EDB4F288339834A83CD
:101DA0005B83C951D440C75FDB4F48815981C9501B
:101DB000D4404C5F5F4FC75FDB4F59834883C950A6
:101DC000D440C75DDB4F88819981C952D440CB5F35
:101DD000DB4F99838883C550D4404C31510509F0BD
:101DE00059CD8101D8016D917D918D919D918D018C
:101DF000C95FDB4FE881F981C750D440C190D190D1
:101E0000E190F190C95FDB4FF983E883C750D4407C
:101E10009B01AC010E94911A4B015C01A701960144
:101E2000C701B6010E94911A9B01AC01C501B40122
:101E30000E9484180E94041BF80134976083718308
:101E400082839383C55FDB4F28813981CB50D44097
:101E50000217130739F610E000E0712C612C512CA9
:101E6000412CEE24E394F12CD1016D917D918D9163
:101E70009D911D018C9011969C9011971296CC907B
:101E800012971396DC905701BFEFAB1ABB0A94016F
:101E9000A6010E94F01887FF1AC0F1012481358144
:101EA00046815781B401C6010E948C1A18167CF431
:101EB000272D362D452D542DB401C6010E948C1AB4
:101EC00018162CF48701782C692C5C2C4D2C75018C
:101ED000F1E4AF16B10441F6180121E0221A20EC1A
:101EE000320A220C331C220C331CFE01E20DF31DBE
:101EF00081809280A380B480FE01E20DF31DC18435
:101F0000D284E384F484A7019601C501B4010E9440
:101F100083182B013C01FE01E20DF31D65817681E2
:101F2000878190859B01AC010E9484189B01AC01C4
:101F3000C501B4010E948318A70196010E9484186C
:101F40009B01AC01C301B2010E94FA1820E030E00D
:101F500040E05FE30E94911A6B017C01B80190E0C0
:101F600080E00E949B199B01AC01C701B6010E9451
:101F7000841820E030E040E855E40E94911A0034D3
:101F8000110501F120E030E04EEF52E40E94FA1812
:101F9000C45DDB4F0FB6F894DEBF0FBECDBFDF913F
:101FA000CF911F910F91FF90EF90DF90CF90BF9056
:101FB000AF909F908F907F906F905F904F903F90E9
:101FC0002F90089520E030E040E05CE30E94911AF9
:101FD000DFCF1F920F920FB60F9211242F933F93D2
:101FE0008F939F93AF93BF938091E3019091E4010E
:101FF000A091E501B091E6013091E20123E0230FC9
:102000002D3758F50196A11DB11D2093E201809353
:10201000E3019093E401A093E501B093E601809180
:10202000E7019091E801A091E901B091EA010196E0
:10203000A11DB11D8093E7019093E801A093E901F0
:10204000B093EA01BF91AF919F918F913F912F91F2
:102050000F900FBE0F901F90189526E8230F029641
:10206000A11DB11DD2CF1F920F920FB60F92112456
:102070002F933F934F935F936F937F938F939F9390
:10208000AF93BF93EF93FF938091F0019091F10193
:10209000A091F201B091F301892B8A2B8B2BD1F106
:1020A0009091EB01E091EC01F091ED0180818927A5
:1020B00080838091F0019091F101A091F201B091A3
:1020C000F301181619061A061B069CF48091F001FC
:1020D0009091F101A091F201B091F3010197A10952
:1020E000B1098093F0019093F101A093F201B093B4
:1020F000F301FF91EF91BF91AF919F918F917F91EC
:102100006F915F914F913F912F910F900FBE0F9064
:102110001F90189580910001EDE8F2E0E4919FEFA7
:1021200090930001E13051F030F0E23069F060E06E
:102130000E94D503DECF10926E00F9CF90916F0010
:102140009D7F90936F00F3CF909170009D7F90934F
:10215000700091E09093B0009091B100987F9460EE
:102160009093B1001092B300E2CF1F920F920FB67E
:102170000F9211242F933F934F935F936F937F930D
:102180008F939F93AF93BF93EF93FF938EE692E06D
:102190000E949805FF91EF91BF91AF919F918F9110
:1021A0007F916F915F914F913F912F910F900FBE53
:1021B0000F901F9018951F920F920FB60F92112437
:1021C0002F938F939F93EF93FF93E0917E02F09173
:1021D0007F028081E0918402F091850282FD1BC024
:1021E0009081809187028F5F8F7320918802821780
:1021F00041F0E0918702F0E0E259FD4F958F809326
:102200008702FF91EF919F918F912F910F900FBEB9
:102210000F901F9018958081F4CF1F920F920FB6E8
:102220000F9211242F933F934F935F936F937F935C
:102230008F939F93AF93BF93EF93FF938091B900D8
:10224000887F803609F44AC0F0F5883209F4A7C0C7
:1022500018F5803109F49BC0B8F4882309F4F9C05B
:10226000883009F494C0FF91EF91BF91AF919F9195
:102270008F917F916F915F914F913F912F910F902F
:102280000FBE0F901F901895883109F488C08032D6
:1022900051F78093420214C0803409F49DC040F489
:1022A0008033B9F38833F9F68093420285ECB0C0ED
:1022B000803509F485C0883509F496C0883499F6CC
:1022C0000E94E60AD0CF883909F48CC038F58837E7
:1022D00029F050F4883611F0803729F683E0809396
:1022E00044021092DD0157C0883809F47BC0803960
:1022F00019F0803809F0B7CF8091DD01803208F005
:1023000071C0E091DD0181E08E0F8093DD0180914D
:10231000BB00F0E0E354FE4F80833DC0803B39F0CA
:10232000E0F4803A09F479C0883A09F09CCF84E05F
:10233000809344021092BC011092BB01E091E00135
:10234000F091E10109958091BB0181110FC081E0FD
:102350008093BB0110929B0109C0803C09F4A6CF79
:10236000883C09F4A3CF883B09F07DCFE091BC0104
:1023700081E08E0F8093BC01F0E0E556FE4F808136
:102380008093BB009091BC018091BB0129C08091DA
:102390001F028093BB0085EC8093BC0064CF9091BA
:1023A000410280914002981758F5E091410281E086
:1023B0008E0F80934102F0E0E05EFD4F8081E9CF17
:1023C000E091410281E08E0F809341028091BB0039
:1023D000F0E0E05EFD4F80839091410280914002E9
:1023E0009817C8F285E8D8CFE091410281E08E0FBE
:1023F000809341028091BB00F0E0E05EFD4F80835E
:102400008091430281115CCF81E080931E0284EAB7
:102410008093BC001092440226CF85EC8093BC00D0
:10242000109244028091DD01803230F4E091DD01B0
:10243000F0E0E354FE4F10826091DD0170E0E09126
:10244000DE01F091DF018DEB91E009951092DD0145
:102450000ACF1092420234CFEEE6F2E013821282EB
:1024600048EE53E060E070E04483558366837783F1
:102470008AE491E09183808385EC90E0958784875E
:1024800084EC90E09787868780EC90E0918B808B3E
:1024900081EC90E0938B828B82EC90E0958B848B27
:1024A00086EC90E0978B868B118E128E138E148E95
:1024B000ABE2B3E013961C921E92129714964D93C2
:1024C0005D936D937C9317978CE591E011969C93A7
:1024D0008E93EEE3F3E080ED97E097A386A311A639
:1024E00010A612A6178A118E12A213A214A215A268
:1024F00014821582E7E3F3E01682158280E181837E
:1025000080E28083B483A3838CE28283EBE0F3E0F8
:1025100086EB93E09183808381EF93E093838283C2
:102520008CE294E09583848387E694E097838683A6
:1025300082EA94E0918780878DED94E0938782878B
:1025400088E195E09587848783E595E0978786877E
:102550008EE895E0918B808B89EC95E0938B828B54
:1025600084E096E0958B848B8FE396E0978B868B47
:102570008AE796E0918F808F85EB96E0938F828F2C
:1025800080EF96E0958F848F8BE297E0978F868F10
:102590000895CF93DF93CDB7DEB7A7970FB6F89422
:1025A000DEBF0FBECDBF789484B5826084BD84B594
:1025B000816084BD85B5826085BD85B5816085BD3E
:1025C00080916E00816080936E00109281008091F6
:1025D000810082608093810080918100816080937E
:1025E0008100809180008160809380008091B100A3
:1025F00084608093B1008091B00081608093B000CE
:1026000080917A00846080937A0080917A00826061
:1026100080937A0080917A00816080937A00809123
:102620007A00806880937A001092C100E0917E0267
:10263000F0917F0282E08083E0917A02F0917B0248
:102640001082E0917C02F0917D0280E18083109203
:102650008602E0918202F091830286E08083E0911D
:102660008002F0918102808180618083E09180020C
:10267000F0918102808188608083E0918002F091F6
:102680008102808180688083E0918002F0918102E4
:1026900080818F7D808388E0E3E0F1E09E012F5F01
:1026A0003F4F1901D90101900D928A95E1F781E020
:1026B0008093420310924303109244038093550386
:1026C00098E09093560310923E03809340038093CA
:1026D0003F0310924103F901ADE4B3E0CE01099646
:1026E00021912D938E179F07D9F78A8980934503EF
:1026F00010E080915503181790F4812F90E0DC01D1
:10270000A25CBC4F7D0117968C910E949001609154
:102710003F03F70187810E94D5031F5FEACF10E0D6
:1027200080915603181750F090915503E8E5F3E0B7
:1027300080E09817B1F011928F5FFBCF812F90E06E
:102740009C01225C3C4F7901D9011F968C910E941B
:10275000900160914103F70187850E94D5031F5FB7
:10276000DFCF80E00E943F0480E00E94210488E0E7
:1027700097E090936503809364031092670310922F
:102780006603109268038CE00E94900160E08CE088
:102790000E94D5038BE00E94900160E08BE00E94D4
:1027A000D5030E946E068CE08093B8001092FD0164
:1027B0001092FC0110924B0210926D020E946E0664
:1027C00088E195E09093E1018093E00189E195E053
:1027D0009093DF018093DE0180EF0E94DA098091FF
:1027E000370391E090934A0280936C0210924B025F
:1027F00010926D0281E00E94AD06882349F08DE6BB
:1028000091E00E947B098AE691E00E947B09FFCF5C
:102810008EE091E00E94880989E591E00E94880994
:102820008EE091E00E9488099E01275E3F4F3A8F1B
:10283000298F84E391E098A38F8F99249394AF8D8F
:10284000B8A10D91B8A3AF8F4090290350902A03EF
:10285000EDEDE00FE23208F07BC00E2E000CFF0B16
:10286000EC5CFB4E0C94991B9E14A814A814A8149D
:10287000A814A814A814A314A814A814A814A8147D
:10288000A8145614601465146A146F14741479141F
:102890007E1483148814A814A814A814A814A814C7
:1028A000A814A8148D14921497149C1480912503D5
:1028B000909126030E94AF01802F0E9426084BC0F2
:1028C00080910B0390910C03F5CF80910D039091B3
:1028D0000E03F0CF80910F0390911003EBCF809106
:1028E000130390911403E6CF809115039091160382
:1028F000E1CF8091170390911803DCCF80911B03E7
:1029000090911C03D7CF80911D0390911E03D2CFCD
:1029100080911F0390912003CDCF8091110390915E
:102920001203C8CF8091190390911A03C3CF8091ED
:10293000210390912203BECFC201BCCF8091270317
:1029400090912803B7CF8091230390912403B2CFB5
:102950000E3409F0B1CFFE017296FC8FEB8F5F0150
:10296000052C000C660877080E941E0B6B017C0189
:1029700020E030E84DE654E40E94F01887FF04C0E0
:102980000E941E0B6B017C01C301B2010E949D19C4
:102990009B01AC01C701B6010E948C1A18160CF4F9
:1029A000EFC16091270370912803072E000C880B5C
:1029B000990B0E949D199B01AC01C701B6010E94B1
:1029C0008C1A18160CF4DEC1609125037091260351
:1029D000072E000C880B990B0E949D199B01AC01DE
:1029E000C701B6010E948C1A18160CF4CDC1609173
:1029F000230370912403072E000C880B990B0E946F
:102A00009D199B01AC01C701B6010E948C1A1816D2
:102A10000CF4BCC16091210370912203072E000CBD
:102A2000880B990B0E949D199B01AC01C701B6014F
:102A30000E948C1A18160CF4ABC160911F037091A0
:102A40002003072E000C880B990B0E949D199B01F7
:102A5000AC01C701B6010E948C1A18160CF49AC179
:102A600060911D0370911E03072E000C880B990BBB
:102A70000E949D199B01AC01C701B6010E948C1AEE
:102A800018160CF489C160911B0370911C03072E6A
:102A9000000C880B990B0E949D199B01AC01C7018A
:102AA000B6010E948C1A18160CF478C160911903B3
:102AB00070911A03072E000C880B990B0E949D1928
:102AC0009B01AC01C701B6010E948C1A18160CF4C8
:102AD00067C16091170370911803072E000C880BD3
:102AE000990B0E949D199B01AC01C701B6010E9480
:102AF0008C1A18160CF456C16091150370911603C8
:102B0000072E000C880B990B0E949D199B01AC01AC
:102B1000C701B6010E948C1A18160CF445C16091C9
:102B2000130370911403072E000C880B990B0E945D
:102B30009D199B01AC01C701B6010E948C1A1816A1
:102B40000CF434C16091110370911203072E000C34
:102B5000880B990B0E949D199B01AC01C701B6011E
:102B60000E948C1A18160CF423C160910F03709107
:102B70001003072E000C880B990B0E949D199B01D6
:102B8000AC01C701B6010E948C1A18160CF412C1D0
:102B900060910D0370910E03072E000C880B990BAA
:102BA0000E949D199B01AC01C701B6010E948C1ABD
:102BB00018160CF401C160910B0370910C03072EE1
:102BC000000C880B990B0E949D199B01AC01C70159
:102BD000B6010E948C1A18160CF0F0C081E3D501E2
:102BE0008D935D01E98DFA8DAE17BF0709F0BCCE5C
:102BF0000E94D10A1A8981E1D1011D928A95E9F7D3
:102C0000EB8DFC8DFE8FED8FAD8DBE8D9D91BE8FBA
:102C1000AD8FA4E3B1E09101F1018D91981303C050
:102C200080818F5F8083319681E0A534B807A9F752
:102C3000AD8DBE8DAA16BB0639F790E080E0F90194
:102C400041919F01433008F4BBC08C5C9E4FDC0176
:102C50001C91011709F458C085E392E00E9488098D
:102C60008DE292E00E940706802F0E9422068BE2EE
:102C700092E00E940706812F0E9422068AE691E0D8
:102C80000E947B0946015701B7FAB094B7F8B09497
:102C900020E030E0A901C701B6010E94F01887FFCB
:102CA00095C08DA29EA2AFA20B2DD701C601BF7702
:102CB00089A39AA3ABA3BCA383E292E00E94070678
:102CC000A7019601C701B6010E94441B882309F49D
:102CD00082C08DE891E00E947B0981E292E00E942F
:102CE0000706AB8DBC8D8D91BC8FAB8F0E942206E9
:102CF0008AE691E00E947B09EB8DFC8D2D8D3E8D47
:102D0000E217F307C9F6912C1E3419F0812F0E94A7
:102D1000260864E670E080E090E00E94E6048F8D73
:102D200098A18454914009F08ACD992021F082E045
:102D300092E00E94880989EC91E00E9488098AE764
:102D400091E00E94880900E180913903853309F000
:102D500007C188EF0E94DA09883FB1F3803F09F488
:102D6000C6C0883E09F4F2C0883D09F4F1C0883B32
:102D700009F4F0C014E0883709F4BAC011E1C5C005
:102D800084E42DCF83E22BCF80E329CF8AE227CFC3
:102D900083E425CF89E323CF88E321CF87E31FCFC7
:102DA00082E41DCF86E31BCF85E319CF84E317CFE1
:102DB00081E415CF83E313CF82E311CF8EE40FCFED
:102DC00001968131910509F03ACF43CFCDA2DEA221
:102DD000EFA20F2D6ACF2FEF3FEF4FE75FE769A11B
:102DE0007AA18BA19CA10E94441B81110FC02FEFDF
:102DF0003FEF4FE75FE769A17AA18BA19CA10E94F9
:102E0000F01818161CF481E991E065CF2FEF3FEF21
:102E10004FE75FE4C701B6010E948C1A18161CF434
:102E200085E991E058CF2FEF3FEF4FE75FECC70107
:102E3000B6010E94F01887FDF3CF20E030E0A90131
:102E4000C701B6010E94F01887FF03C08DE20E94FF
:102E500022062AE037ED43EA5BE36DA17EA18FA154
:102E6000902F0E9484182B013C010E946C194B0189
:102E70005C010E949B199B01AC01C301B2010E943D
:102E800083182B013C014AE0C501B4010E94960958
:102E90008EE20E94220620E030E040E251E4C301CD
:102EA000B2010E94911A2B013C010E946C194B0146
:102EB000B12CA12C4AE0C501B4010E949609C501BC
:102EC000B4010E949B199B01AC01C301B2010E9495
:102ED000831820E030E040E251E40E94911A0E9401
:102EE0006C1990E080E04AE00E949609F6CE10E06E
:102EF00087E00E94DA09873009F426CF863019F07E
:102F0000853051F51B5F10933803E12FF0E0EC5C46
:102F1000FE4F1081812F0E94220688E791E00E94D7
:102F20000706812F0E9426080E94D10A015009F04D
:102F30000BCF80E090E0892B09F47BCC0E948405C4
:102F4000882309F476CC0E94000073CC11E0D0CF26
:102F500012E0CECF13E0CCCF165F8330A1F20ECFBC
:102F60008E3361F58CEF0E94DA098C3F09F4ECCEC8
:102F7000883FD1F0843FD1F08C3ED1F08C3DD1F030
:102F80008C3BD1F015E08C3709F0F8CE83E00E943D
:102F9000DA09833009F4D8CE823009F4B4CF1A5F4D
:102FA000813009F4B0CFEACE10E0F0CF11E0EECFDF
:102FB00012E0ECCF13E0EACF14E0E8CF813539F529
:102FC0008FEF0E94DA098F3F09F4BECE8E3F89F061
:102FD0008D3F89F08B3F89F0873F89F08F3E89F0E4
:102FE0008F3D89F08F3B89F017E08F3709F48BCF45
:102FF000C5CE10E088CF11E086CF12E084CF13E079
:1030000082CF14E080CF15E07ECF16E07CCF80EF3A
:103010000E94DA09803F09F497CE803EA9F0803DF6
:10302000A9F0803BA9F013E0803709F0A7CE8FE02C
:103030000E94DA098F3009F487CE8E3009F463CF0D
:103040008D3041F41C5F5FCF10E0F1CF11E0EFCF86
:1030500012E0EDCF8B3011F4185F55CF873009F0B7
:103060008DCE145F50CF052E97FB1EF400940E9466
:103070004A1857FD07D00E94521807FC03D04EF49F
:103080000C944A1850954095309521953F4F4F4FDD
:103090005F4F089590958095709561957F4F8F4F04
:1030A0009F4F0895A1E21A2EAA1BBB1BFD010DC064
:1030B000AA1FBB1FEE1FFF1FA217B307E407F507E8
:1030C00020F0A21BB30BE40BF50B661F771F881FC4
:1030D000991F1A9469F760957095809590959B015A
:1030E000AC01BD01CF010895A29FB001B39FC00103
:1030F000A39F700D811D1124911DB29F700D811D24
:103100001124911D08955058BB27AA270E949B188F
:103110000C943E1A0E94051A38F00E940C1A20F0F6
:1031200039F49F3F19F426F40C94021A0EF4E0953A
:10313000E7FB0C94FC19E92F0E94631A58F3BA17A5
:10314000620773078407950720F079F4A6F50C94BD
:10315000851A0EF4E0950B2EBA2FA02D0B01B901A4
:1031600090010C01CA01A0011124FF27591B99F0FD
:10317000593F50F4503E68F11A16F040A22F232F09
:10318000342F4427585FF3CF469537952795A79559
:10319000F0405395C9F77EF41F16BA0B620B730B00
:1031A000840BBAF09150A1F0FF0FBB1F661F771F71
:1031B000881FC2F70EC0BA0F621F731F841F48F426
:1031C000879577956795B795F7959E3F08F0B0CFAF
:1031D0009395880F08F09927EE0F97958795089596
:1031E0000E94D81908F481E008950E94151AE39509
:1031F0000C944F1A0E940E190C943E1A0E940C1A3D
:1032000058F00E94051A40F029F45F3F29F00C9411
:10321000FC1951110C94861A0C94021A0E94631A1C
:1032200068F39923B1F3552391F3951B550BBB27F5
:10323000AA2762177307840738F09F5F5F4F220F3A
:10324000331F441FAA1FA9F335D00E2E3AF0E0E831
:1032500032D091505040E695001CCAF72BD0FE2F7B
:1032600029D0660F771F881FBB1F2617370748070F
:10327000AB07B0E809F0BB0B802DBF01FF279358C7
:103280005F4F3AF09E3F510578F00C94FC190C9476
:10329000861A5F3FE4F3983ED4F386957795679559
:1032A000B795F7959F5FC9F7880F911D96958795FC
:1032B00097F90895E1E0660F771F881FBB1F62171B
:1032C00073078407BA0720F0621B730B840BBA0BD9
:1032D000EE1F88F7E09508950E946B1A88F09F57BB
:1032E00098F0B92F9927B751B0F0E1F0660F771F2A
:1032F000881F991F1AF0BA95C9F714C0B13091F020
:103300000E94851AB1E008950C94851A672F782FD2
:103310008827B85F39F0B93FCCF3869577956795E4
:10332000B395D9F73EF490958095709561957F4F50
:103330008F4F9F4F0895E89409C097FB3EF49095F6
:103340008095709561957F4F8F4F9F4F9923A9F07E
:10335000F92F96E9BB279395F6958795779567950D
:10336000B795F111F8CFFAF4BB0F11F460FF1BC051
:103370006F5F7F4F8F4F9F4F16C0882311F096E9E4
:1033800011C0772321F09EE8872F762F05C0662392
:1033900071F096E8862F70E060E02AF09A95660F4B
:1033A000771F881FDAF7880F9695879597F9089504
:1033B000990F0008550FAA0BE0E8FEEF1616170646
:1033C000E807F907C0F012161306E407F50798F0AE
:1033D000621B730B840B950B39F40A2661F0232BC7
:1033E000242B252B21F408950A2609F4A140A69543
:1033F0008FEF811D811D089597F99F6780E870E028
:1034000060E008959FEF80EC089500240A9416165A
:10341000170618060906089500240A9412161306C2
:103420001406050608950C94021A0E946B1AD8F32C
:10343000E894E0E0BB279F57F0F02AED3FE049EC2D
:1034400006C0EE0FBB0F661F771F881F28F0B23A29
:1034500062077307840728F0B25A620B730B840B60
:10346000E3959A9572F7803830F49A95BB0F661FF2
:10347000771F881FD2F790480C944B1B092E03949A
:10348000000C11F4882352F0BB0F40F4BF2B11F451
:1034900060FF04C06F5F7F4F8F4F9F4F0895EF9382
:1034A000E0FF07C0A2EA2AED3FE049EC5FEB0E9493
:1034B0009B180E943E1A0F90039401FC9058E8E676
:1034C000F0E00C945E1B57FD9058440F551F59F0C7
:1034D0005F3F71F04795880F97FB991F61F09F3F01
:1034E00079F087950895121613061406551FF2CF2A
:1034F0004695F1DF08C0161617061806991FF1CF7A
:1035000086957105610508940895E894BB276627A0
:103510007727CB0197F908950E94D81908F48FEF07
:1035200008950E94A41A0C943E1A0E94051A38F0BD
:103530000E940C1A20F0952311F00C94FC190C94A5
:10354000021A11240C94861A0E94631A70F3959F34
:10355000C1F3950F50E0551F629FF001729FBB278A
:10356000F00DB11D639FAA27F00DB11DAA1F649F26
:103570006627B00DA11D661F829F2227B00DA11DD9
:10358000621F739FB00DA11D621F839FA00D611D5F
:10359000221F749F3327A00D611D231F849F600D80
:1035A000211D822F762F6A2F11249F5750409AF0A9
:1035B000F1F088234AF0EE0FFF1FBB1F661F771F35
:1035C000881F91505040A9F79E3F510580F00C9400
:1035D000FC190C94861A5F3FE4F3983ED4F3869569
:1035E00077956795B795F795E7959F5FC1F7FE2BA0
:1035F000880F911D9695879597F9089519F416F4FB
:103600000C94021A0C94491B0E946B1AB8F399236C
:10361000C9F3B6F39F57550B87FF0E94571B002431
:10362000A0E640EA900180585695979528F4805C72
:10363000660F771F881F20F026173707480730F4DA
:10364000621B730B840B202931294A2BA6951794F2
:103650000794202531254A2758F7660F771F881FC2
:1036600020F026173707480730F4620B730B840BE2
:10367000200D311D411DA09581F7B901842F91586E
:10368000880F9695879508950E94D819880B990BF5
:1036900008959F3F31F0915020F487957795679575
:1036A000B795880F911D9695879597F90895915034
:1036B0005040660F771F881FD2F708959F938F930E
:1036C0007F936F93FF93EF939B01AC010E94911A3C
:1036D000EF91FF910E94721B2F913F914F915F914B
:1036E0000C94911ADF93CF931F930F93FF92EF9255
:1036F000DF927B018C01689406C0DA2EEF010E94F4
:10370000A41AFE01E894A591259135914591559112
:10371000A6F3EF010E949B18FE019701A801DA941D
:1037200069F7DF90EF90FF900F911F91CF91DF919C
:103730000895EE0FFF1F0590F491E02D0994F89481
:02374000FFCFB9
:10374200FF000006050203040708093F065B4F66F7
:103752006D7D077F6F777C395E79713D76300E76AD
:103762003800543F7367506D783E3E00766E5B00C2
:103772004080630831323341343536423738394379
:103782002A3023444E0000000000BA051A054705FE
:103792002706780556056A0500000000F407C707EA
:1037A20023089D07C007AD079E070D0A000A636143
:1037B2006E6E6F7420636F6D6D756E696361746593
:1037C20020746F206B65797061642E0A006E616EE1
:0A37D20000696E66006F7666000065
:00000001FF
