:100000000C94C9000C94F1000C94F1000C94F100D4
:100010000C94F1000C94F1000C94F1000C94EC059C
:100020000C94F1000C94F1000C94F1000C94F1008C
:100030000C94F1000C94F1000C94F1000C94F1007C
:100040000C94A2050C94F1000C9492060C946C068E
:100050000C94F1000C94F1000C94F1000C94F1005C
:100060000C94C4060C94F100022F2A2A2A2A2A2A68
:100070002A2A2A2A2A2A2A2A2A2A2A2A2A2A2A2AE0
:100080002A2A2A2A2A2A2A2A2A2A2A2A2A2A2A2AD0
:100090002A2A2A2A2A2A2A2A2A2A2A2A2A2A2A2AC0
:1000A0002A2A2A2A2A2A2A2A2A2A2A2A2A2A2A2AB0
:1000B0002A2A2F00566962726174696F6E2F526529
:1000C0006C61792054657374004966206572726FA3
:1000D000722C20706C6561736520636865636B20AA
:1000E000796F757220636F6E6E656374696F6E737E
:1000F0002E00566962726174696F6E2F52656C6171
:10010000797320546573743A20596F752073686F42
:10011000756C642068656172207468652056696238
:10012000726174696F6E20736F756E6420616E64A6
:100130002052656C617920636C69636B732E0000DB
:100140000000080002010000030407000000000096
:1001500000000000000000250028002B0000000027
:1001600000240027002A00040404040404040402F8
:100170000202020202030303030303010204081044
:100180002040800102040810200102040810200011
:10019000E30711241FBECFEFD8E0DEBFCDBF11E0D3
:1001A000A0E0B1E0E8E4F8E102C005900D92AE3DB8
:1001B000B107D9F723E0AEEDB1E001C01D92AB3835
:1001C000B207E1F710E0C9ECD0E004C02197FE01CE
:1001D0000E941C0CC83CD107C9F70E943E080C9431
:1001E000220C0C94000090E0FC01E558FE4F249195
:1001F00089599E4FFC018491882399F090E0880FE3
:10020000991FFC01E35AFE4FA591B491FC01ED5AF0
:10021000FE4F859194918FB7F894EC91E22BEC937B
:100220008FBF089590E0FC01E15CFE4F2491FC013A
:10023000E558FE4F3491FC01E959FE4FE491EE235D
:10024000C9F0222339F0233001F1A8F4213019F14B
:10025000223029F1F0E0EE0FFF1FED5AFE4FA5917D
:10026000B4918FB7F894EC91611126C030953E237C
:100270003C938FBF08952730A9F02830C9F024306F
:1002800049F7809180008F7D03C0809180008F7737
:1002900080938000DFCF84B58F7784BDDBCF84B5BA
:1002A0008F7DFBCF8091B0008F778093B000D2CF4D
:1002B0008091B0008F7DF9CF3E2BDACFCF93DF93C3
:1002C000C82FD0E080917803D81758F4ED2FF0E0D4
:1002D000E05AFC4F6091630387850E941201DF5F43
:1002E000F1CFEC2FF0E0E05AFC4F60916103878181
:1002F000DF91CF910C941201CF93DF93C82FD0E000
:1003000080917703D81758F4ED2FF0E0E05AFC4FB6
:100310006091610387810E941201DF5FF1CFEC2FB2
:10032000F0E0E05AFC4F609163038785DF91CF9145
:100330000C9412011F93CF93DF93C82FD0E0C05AC3
:10034000DC4F609160038F810E94120110E06A9679
:10035000809178031817A8F4E12FF0E0888190E0ED
:10036000012E02C0959587950A94E2F780FF07C099
:10037000E05AFC4F6091620387850E9412011F5F63
:10038000E7CFDF91CF911F9108950F931F93CF93E4
:10039000C82FE82FF0E0E05AFC4F60916203878598
:1003A0000E94120101E010E002C0000F111FCA9567
:1003B000E2F7C0E080917703C81788F4EC2FF0E0F3
:1003C000E05AFC4F828D90E080239123892B29F005
:1003D0006091600387810E941201CF5FEBCFCF91C4
:1003E0001F910F9108958230910538F0880F991F61
:1003F000880F991F05970197F1F708953FB7F89473
:1004000080915C0290915D02A0915E02B0915F02CA
:1004100026B5A89B05C02F3F19F00196A11DB11D5F
:100420003FBFBA2FA92F982F8827BC01CD01620F9B
:10043000711D811D911D42E0660F771F881F991F56
:100440004A95D1F708958F929F92AF92BF92CF9223
:10045000DF92EF92FF926B017C010E94FE014B0143
:100460005C01C114D104E104F104B9F00E94FE0161
:10047000681979098A099B09683E734081059105CD
:1004800080F321E0C21AD108E108F10888EE880E55
:1004900083E0981EA11CB11CE4CFFF90EF90DF9089
:1004A000CF90BF90AF909F908F900895089508953A
:1004B000AF92BF92CF92DF92EF92FF920F931F9372
:1004C000CF93DF936C017B018B01040F151FEB01B0
:1004D0005E01AE18BF08C017D10759F06991D60167
:1004E000ED91FC910190F081E02DC6010995892BD9
:1004F00079F7C501DF91CF911F910F91FF90EF9098
:10050000DF90CF90BF90AF900895FC01538D448D44
:10051000252F30E0842F90E0821B930B541710F0AE
:10052000CF96089501970895FC01918D828D9817BB
:1005300061F0A28DAE0FBF2FB11D5D968C91928D93
:100540009F5F9F73928F90E008958FEF9FEF0895C4
:10055000FC01918D828D981731F0828DE80FF11D8D
:10056000858D90E008958FEF9FEF0895FC01918DA8
:10057000228D892F90E0805C9F4F821B91098F73A1
:100580009927089580EB92E00E94B60221E0892B22
:1005900009F420E0822F089580E090E0892B29F073
:1005A0000E94C20281110C9400000895FC01A48DE8
:1005B000A80FB92FB11DA35ABF4F2C91848D90E085
:1005C00001968F739927848FA689B7892C93A08968
:1005D000B1898C91837080648C93938D848D9813F2
:1005E00006C00288F389E02D80818F7D8083089585
:1005F000EF92FF920F931F93CF93DF93EC0181E073
:10060000888F9B8D8C8D98131AC0E889F989808119
:1006100085FF15C09FB7F894EE89FF896083E8894C
:10062000F98980818370806480839FBF81E090E03E
:10063000DF91CF911F910F91FF90EF900895F62ECB
:100640000B8D10E00F5F1F4F0F731127E02E8C8D65
:100650008E110CC00FB607FCFACFE889F9898081AA
:1006600085FFF5CFCE010E94D602F1CFEB8DEC0FC6
:10067000FD2FF11DE35AFF4FF0829FB7F8940B8FC7
:10068000EA89FB8980818062CFCFCF93DF93EC0131
:10069000888D8823B9F0AA89BB89E889F9898C916A
:1006A00085FD03C0808186FD0DC00FB607FCF7CF26
:1006B0008C9185FFF2CF808185FFEDCFCE010E9426
:1006C000D602E9CFDF91CF91089520910902260F3C
:1006D0003327331F21323105ECF420918602FC01CF
:1006E00090E080E0243069F082E00895A091090252
:1006F0002191AC0147515E4FA40FB52FB11D2C9332
:100700000196861798F380910902680F6093090299
:1007100080E0089581E008951092860281E0809340
:1007200085021092600261E082E10E94120161E0A4
:1007300083E10E941201E9EBF0E080818E7F8083EB
:1007400080818D7F808388E48093B80085E48093E6
:10075000BC000895CF93DF9391E09093E801882344
:10076000B9F0C091B800D091BA008091BC008A7BEA
:100770008093BC0060E082E10E94120160E083E1AE
:100780000E9412010E948C03D093BA00C093B8005B
:10079000DF91CF9108958F929F92AF92BF92CF92A7
:1007A000DF92EF92FF920F931F93CF93DF93D0913D
:1007B000AF02D13208F0D7C0182FC091AE020E940C
:1007C000FE016B017C018091860281116BC082E089
:1007D00080938602109385028FEF8093840210929B
:1007E0008302D0938202AEE8B2E0E2E6F2E080E07B
:1007F000D81391C01092610280916102CC0FC82B76
:10080000C093610280916002813009F088C010922B
:1008100060020E94FE016B017C0180916102809365
:10082000BB008091880290918902A0918A02B091C8
:100830008B02892B8A2B8B2BA1F00E94FE01009149
:1008400088021091890220918A0230918B026C19E2
:100850007D098E099F09061717072807390708F42D
:1008600042C08091BC0083FDD8CF85EC8093BC0052
:100870000E94FE016B017C0180918602823009F4A6
:1008800050C0809184028F3F09F46FC08091840230
:10089000803209F46CC080918402803309F469C00D
:1008A00084E026C08091880290918902A0918A02FA
:1008B000B0918B02892B8A2B8B2B09F484CF0E9459
:1008C000FE018090880290908902A0908A02B090E8
:1008D0008B026C197D098E099F0986169706A8065A
:1008E000B90608F070CF809187020E94AA0385E0C4
:1008F00010928D021092AF0210928C02DF91CF9174
:100900001F910F91FF90EF90DF90CF90BF90AF902D
:100910009F908F9008959D9191938F5F69CF85EE01
:10092000A5CF8091880290918902A0918A02B0910E
:100930008B02892B8A2B8B2B09F49ECF0E94FE0100
:10094000009188021091890220918A0230918B02D5
:100950006C197D098E099F090617170728073907A3
:1009600008F08ACFC0CF81E0C3CF80E0C1CF82E062
:10097000BFCF83E0BDCF0895E0915602809155022C
:10098000E81730F4F0E0EF5CFD4F808190E00895CF
:100990008FEF9FEF089590915602809155022FEFAF
:1009A0003FEF981748F4E92FF0E0EF5CFD4F20810E
:1009B00030E09F5F90935602C901089580915502DF
:1009C00090915602891B990B0895CF92DF92EF9276
:1009D000FF920F931F93CF93DF937C01CB018A018A
:1009E00020918C02222389F0EB016B01C40ED51EED
:1009F000CC15DD0569F06991D701ED91FC9101906D
:100A0000F081E02DC7010995F3CF642F0E946503A3
:100A1000C801DF91CF911F910F91FF90EF90DF9070
:100A2000CF900895CF93DF931F92CDB7DEB7698340
:100A300020918C022223F9F02091AF02203258F04D
:100A400021E030E0FC013383228390E080E00F90CE
:100A5000DF91CF91089580918D02E82FF0E0E25769
:100A6000FD4F998190838F5F80938D028093AF02B9
:100A700081E090E0ECCF61E0CE0101960E94650339
:100A8000F7CF90E080E0089542E050E06AEB71E03B
:100A900080EB92E00C9458020F931F93CF93DF9357
:100AA0008C01D0E0C0E0F801EC0FFD1F64916623DB
:100AB00041F080EB92E00E94F802892B11F0219620
:100AC000F2CF0E9444058C0F9D1FDF91CF911F91A3
:100AD0000F91089585ED8093BC00809188029091DC
:100AE0008902A0918A02B0918B020796A11DB11DC7
:100AF00023E0B695A795979587952A95D1F72091EC
:100B0000BC0024FD03C01092860208954091880223
:100B10005091890260918A0270918B02452B462B7D
:100B2000472B69F30097A105B10541F02AE22A9508
:100B3000F1F700C00197A109B109E1CF80918702C7
:100B40000C94AA031F920F920FB60F9211242F93A9
:100B50003F938F939F93AF93BF938091580290914F
:100B60005902A0915A02B0915B023091570223E0E2
:100B7000230F2D3758F50196A11DB11D2093570263
:100B80008093580290935902A0935A02B0935B024B
:100B900080915C0290915D02A0915E02B0915F0233
:100BA0000196A11DB11D80935C0290935D02A093FC
:100BB0005E02B0935F02BF91AF919F918F913F9181
:100BC0002F910F900FBE0F901F90189526E8230FBE
:100BD0000296A11DB11DD2CF1F920F920FB60F9298
:100BE00011242F933F934F935F936F937F938F9332
:100BF0009F93AF93BF93EF93FF9380912D029091BA
:100C00002E02A0912F02B0913002892B8A2B8B2BC0
:100C1000C1F190912C0280910000892780930000FF
:100C200080912D0290912E02A0912F02B09130025E
:100C3000181619061A061B069CF480912D02909135
:100C40002E02A0912F02B09130020197A109B109A3
:100C500080932D0290932E02A0932F02B093300226
:100C6000FF91EF91BF91AF919F918F917F916F9184
:100C70005F914F913F912F910F900FBE0F901F905A
:100C8000189580910001E8E6F0E0E4919FEF9093E1
:100C90000001E13051F030F0E23069F060E00E9494
:100CA0001201DECF10926E00F9CF90916F009D7F00
:100CB00090936F00F3CF909170009D7F90937000A0
:100CC00091E09093B0009091B100987F94609093E0
:100CD000B1001092B300E2CF1F920F920FB60F92A5
:100CE00011242F933F934F935F936F937F938F9331
:100CF0009F93AF93BF93EF93FF9380EB92E00E949B
:100D0000D602FF91EF91BF91AF919F918F917F910B
:100D10006F915F914F913F912F910F900FBE0F9068
:100D20001F9018951F920F920FB60F9211242F93B8
:100D30008F939F93EF93FF93E091C002F091C102D4
:100D40008081E091C602F091C70282FD1BC09081B4
:100D50008091C9028F5F8F732091CA02821741F080
:100D6000E091C902F0E0E055FD4F958F8093C902F4
:100D7000FF91EF919F918F912F910F900FBE0F9048
:100D80001F9018958081F4CF1F920F920FB60F928B
:100D900011242F933F934F935F936F937F938F9380
:100DA0009F93AF93BF93EF93FF938091B900887F98
:100DB000803609F44AC0F0F5883209F4A7C018F566
:100DC000803109F49BC0B8F4882309F4F9C0883055
:100DD00009F494C0FF91EF91BF91AF919F918F91D2
:100DE0007F916F915F914F913F912F910F900FBE27
:100DF0000F901F901895883109F488C0803251F700
:100E00008093840214C0803409F49DC040F4803380
:100E1000B9F38833F9F68093840285ECB0C080354D
:100E200009F485C0883509F496C0883499F60E9483
:100E30006A05D0CF883909F48CC038F5883729F095
:100E400050F4883611F0803729F683E080938602CB
:100E500010922B0257C0883809F47BC0803919F0F2
:100E6000803809F0B7CF80912B02803208F071C032
:100E7000E0912B0281E08E0F80932B028091BB00CA
:100E8000F0E0E55FFD4F80833DC0803B39F0E0F44A
:100E9000803A09F479C0883A09F09CCF84E08093C5
:100EA000860210920A0210920902E0915102F0911A
:100EB000520209958091090281110FC081E080934F
:100EC00009021092E90109C0803C09F4A6CF883CD0
:100ED00009F4A3CF883B09F07DCFE0910A0281E0BD
:100EE0008E0F80930A02F0E0E751FE4F80818093DD
:100EF000BB0090910A028091090229C08091610291
:100F00008093BB0085EC8093BC0064CF90918302FA
:100F100080918202981758F5E091830281E08E0F4C
:100F200080938302F0E0EE59FD4F8081E9CFE0919C
:100F3000830281E08E0F809383028091BB00F0E0FA
:100F4000EE59FD4F80839091830280918202981721
:100F5000C8F285E8D8CFE091830281E08E0F8093BC
:100F600083028091BB00F0E0EE59FD4F80838091B9
:100F7000850281115CCF81E08093600284EA8093D6
:100F8000BC001092860226CF85EC8093BC001092A4
:100F9000860280912B02803230F4E0912B02F0E047
:100FA000E55FFD4F108260912B0270E0E0915302EB
:100FB000F09154028BE092E0099510922B020ACF37
:100FC0001092840234CFE0EBF2E01382128248EEFA
:100FD00053E060E070E044835583668377838AE959
:100FE00091E09183808385EC90E09587848784EC01
:100FF00090E09787868780EC90E0918B808B81ECE6
:1010000090E0938B828B82EC90E0958B848B86ECC6
:1010100090E0978B868B118E128E138E148EADE41A
:10102000B3E013961C921E92129714964D935D9303
:101030006D937C9317978CEA91E011969C938E9315
:10104000E0E6F3E080ED97E097A386A311A610A653
:1010500012A6178A118E12A213A214A215A214822C
:101060001582E9E5F3E01682158280E1818380E252
:101070008083B483A3838CE282830895CF93DF932C
:10108000CDB7DEB729970FB6F894DEBF0FBECDBF40
:10109000789484B5826084BD84B5816084BD85B553
:1010A000826085BD85B5816085BD80916E0081605F
:1010B00080936E0010928100809181008260809305
:1010C0008100809181008160809381008091800007
:1010D0008160809380008091B10084608093B10032
:1010E0008091B00081608093B00080917A0084602C
:1010F00080937A0080917A00826080937A00809158
:101100007A00816080937A0080917A008068809371
:101110007A001092C100E091C002F091C10282E019
:101120008083E091BC02F091BD021082E091BE028A
:10113000F091BF0280E180831092C802E091C40266
:10114000F091C50286E08083E091C202F091C30273
:10115000808180618083E091C202F091C30280812E
:1011600088608083E091C202F091C3028081806830
:101170008083E091C202F091C30280818F7D8083E1
:1011800088E0E1E0F1E0DE01119601900D928A9590
:10119000E1F781E080936403109265031092660387
:1011A0008093770398E09093780310926003809384
:1011B00062038093610310926303FE013196AFE6F0
:1011C000B3E0CE01099621912D93E817F907D9F7DD
:1011D00089858093670310E080917703181798F44E
:1011E000812F90E09C01205A3C4F7901D90117963C
:1011F0008C910E94F30060916103F70187810E9446
:1012000012011F5FE9CF10E080917803181750F0AA
:1012100090917703EAE7F3E080E09817B1F011923C
:101220008F5FFBCF812F90E09C01205A3C4F7901CA
:10123000D9011F968C910E94F30060916303F7011E
:1012400087850E9412011F5FDFCF80E00E947C0132
:1012500080E00E945E0188E097E09093870380938E
:101260008603109289031092880310928A038CE0FF
:101270000E94F30060E08CE00E9412018BE00E946B
:10128000F30060E08BE00E9412010E948C038CE06E
:101290008093B800109256021092550210928D025F
:1012A0001092AF020E948C0386E592E09093520266
:1012B0008093510287E592E0909354028093530209
:1012C00080915C0390915D032091590331E030934C
:1012D0008C022093AE02DC01ED91FC910190F08133
:1012E000E02D60EF099581E00E94CB03182F81115A
:1012F000A1C0009159030E94FE016B017C01809105
:101300008602811163C081E080938602809385020A
:101310009FEF909384021092830210928202809336
:10132000610280916102000F082B0093610280919D
:101330006002813009F099C0109260020E94FE01A3
:101340006B017C01809161028093BB0080918802D7
:1013500090918902A0918A02B0918B02892B8A2BED
:101360008B2BA1F00E94FE01809088029090890250
:10137000A0908A02B0908B026C197D098E099F099A
:1013800086169706A806B90608F441C08091BC00ED
:1013900083FDD8CF85EC8093BC000E94FE016B01D9
:1013A0007C0180918602813009F461C080918302C2
:1013B00081117FC080918302E2E6F2E0A1E3B2E016
:1013C000181749F191919D931F5FFACF8091880280
:1013D00090918902A0918A02B0918B02892B8A2B6D
:1013E0008B2B09F48CCF0E94FE0180908802909094
:1013F0008902A0908A02B0908B026C197D098E0937
:101400009F0986169706A806B90608F078CF80913E
:1014100087020E94AA0310925602109355028091EF
:101420005C0390915D03DC01ED91FC910284F385F6
:10143000E02D09958091590391E090938C0280935F
:10144000AE0210928D021092AF0281E00E94CB0397
:10145000882389F14FE150E06DEB71E080EB92E081
:101460000E9458020E944405FFCF85EE94CF8091E0
:10147000880290918902A0918A02B0918B02892BF7
:101480008A2B8B2B09F48DCF0E94FE01809088025D
:1014900090908902A0908A02B0908B026C197D090D
:1014A0008E099F0986169706A806B90608F079CF17
:1014B000AECF81E081CF89E690E00E944C0584EBBD
:1014C00090E00E944C0589E690E00E944C058090D7
:1014D000090190900A0123E6222E30E8332E82EF94
:1014E00090E00E944C0589EC90E00E944C0594E845
:1014F000E92E91E0F92E04E311E0F70181917F01DB
:101500009A828982833239F1898380917703EAE76D
:10151000F3E090E0891321C0A0E6B3E020E080E092
:10152000921709F463C0E1E0F0E0EC0FFD1FE80F53
:10153000F11DE081EE2309F459C030ED3E0F3A3041
:1015400078F40E2E000CFF0BE552FF4F30815A96B7
:101550003C935A971EC088E4D7CF11929F5FDACF91
:101560003FEB3E0F3A3130F40E2E000CFF0BEC52E5
:10157000FF4FECCF3FE93E0F3A3130F40E2E000C16
:10158000FF0BEC54FF4FE2CFE032D9F45A961C9295
:101590005A9731E0380FE1E0F0E0EC0FFD1FE30F68
:1015A000F11D40814E3249F45A963C915A97306869
:1015B0005A963C935A9732E0380F2F5F1196832F3B
:1015C000AFCFEE3221F45A963C925A97E2CFEA32EC
:1015D00021F45A962C925A97DCCF30E4EF3509F07B
:1015E000B6CFF8E05A96FC935A97D3CF8091650313
:1015F00081119DC00E94FE01E0918A034090820308
:101600005090830360908403709085039B01AC012C
:10161000241935094609570929013A0120918803FF
:1016200030918903E11104C0209186033091870332
:10163000032E000C440B550B421653066406750628
:101640006CF160938203709383038093840390937F
:101650008503809179032091640321114BC0EE230F
:1016600091F010928A03809179038F5F80937903C0
:1016700090917803891710F0109279038091790383
:101680000E94C5010BC00E947C018091880390914B
:101690008903892B41F381E080938A03D12CC12CEB
:1016A000D8011196AD90BC90AC14BD040CF47AC076
:1016B00061E08CE00E941201F8018381948101961F
:1016C000F8ECF89F2001F99F500C1124052C000C18
:1016D00066087708C301B2010E94230260E08CE033
:1016E0000E941201C301B2010E9423022FEFC21A0D
:1016F000D20AD6CFEE2391F010928A03809179031B
:101700008F5F8093790390917703891710F010927F
:101710007903809179030E949A01C0CF0E945E01F3
:101720008091880390918903892B41F3B4CF8091F4
:101730006403D12C81111BC080917803D81608F066
:10174000ADCF8D2D0E94C5018091860390918703B6
:101750000E94F3018D2D0E947C018091880390915D
:101760008903009711F00E94F301D394E5CF809193
:101770007703D81608F092CF8D2D0E949A018091A0
:101780008603909187030E94F3018D2D0E945E01D4
:101790008091880390918903009711F00E94F301D2
:1017A000D394E5CF68EE73E080E090E00E942302DE
:1017B000CC24CA94DC2CAC14BD041CF161E08BE099
:1017C0000E941201D80113968D919C910196B2E36B
:1017D000B89F2001B99F500C1124052C000C6608FD
:1017E0007708C301B2010E94230260E08BE00E94EF
:1017F0001201C301B2010E942302EFEFCE1ADE0AEA
:10180000DACF68EE73E080E090E00E9423020B5F85
:101810001F4FF8E8EF16F1E0FF0609F06ECE80E00A
:1018200090E0892B09F45BCE0E94C202882309F460
:1018300056CE0E94000053CEEE0FFF1F0590F4918C
:08184000E02D0994F894FFCF9C
:10184800FF060502030407080900003F065B4F6610
:101858006D7D077F6F777C395E79713D76300E76C6
:101868003800543F7367506D783E3E00766E5B00DB
:10187800408063083100000000320000010033009E
:10188800000200410000030034010000003501009F
:101898000100360100020042010003003702000087
:1018A8000038020001003902000200430200030070
:1018B8002A03000000300300010023030002004453
:1018C8000300030031323341343536423738394367
:1018D8002A3023444E0000000000F8025802850216
:1018E8004503B6029402A802000000001205E504B0
:1018F8004105BB04DE04CB04BC040D0A000A636185
:101908006E6E6F7420636F6D6D756E69636174655B
:0E19180020746F206B65797061642E0A0000E8
:00000001FF
